:040000008A11112828
:10000800FE00030E83120313C2000408C3000A088B
:10001800C4007F08C5008A154C2E8A111328831343
:100028004F30FD000730FE00F730FF0046308400F7
:100038008A150F2683160313AB0183120313CF010E
:10004800D001D101D201D301D401D501D601830158
:100058008A113E2EFE308312031386004E08F900E3
:100068004D08F8008A152C268A1178088312031384
:10007800A3007908A4007A08A5000030A0007A300F
:10008800A1004430A2008A152E278A118312031377
:100098002008B0002108B1002208B2008A115627B2
:1000A8008A11831203133008BE003108BF003208DA
:1000B800C0003308C10030308312031386004E0895
:1000C800F9004D08F8008A152C268A117808831241
:1000D8000313A3007908A4007A08A5000030A00043
:1000E8007A30A1004430A2008A152E278A11831283
:1000F80003132008B0002108B1002208B2008A11B9
:1001080056278A11831203133008BE003108BF0036
:100118003208C0003308C100C030831203138600C0
:100128004E08F9004D08F8008A152C268A1178081F
:1001380083120313A3007908A4007A08A5000030ED
:10014800A0007A30A1004430A2008A152E278A1117
:10015800831203132008B0002108B1002208B2005E
:100168008A1156278A11831203133008BE003108FA
:10017800BF003208C0003308C100303083120313B7
:1001880086004E08F9004D08F8008A152C268A11B9
:10019800780883120313A3007908A4007A08A5003D
:1001A8000030A0007A30A1004430A2008A152E2722
:1001B8008A11831203132008B0002108B100220815
:1001C800B2008A1156278A11831203133008BE0021
:1001D8003108BF003208C0003308C100FE30831266
:1001E800031386004E08F9004D08F8008A152C26DE
:1001F8008A11780883120313A3007908A4007A08E7
:10020800A5000030A0007A30A1004430A2008A1571
:100218002E278A11831203132008B0002108B10089
:100228002208B2008A1156278A1183120313300854
:10023800BE003108BF003208C0003308C100831275
:10024800031386014E08F9004D08F8008A152C267C
:100258008A11780883120313A3007908A4007A0886
:10026800A5000030A0007A30A1004430A2008A1511
:100278002E278A11831203132008B0002108B10029
:100288002208B2008A1156278A11831203133008F4
:10029800BE003108BF003208C0003308C100831215
:1002A80003134E08F9004D08F8008A152C268A1108
:1002B800780883120313A3007908A4007A08A5001C
:1002C8000030A0007A30A1004430A2008A152E2701
:1002D8008A11831203132008B0002108B1002208F4
:1002E800B2008A1156278A11831203133008BE0000
:1002F8003108BF003208C0003308C100831203135D
:1003080086014E08F9004D08F8008A152C268A1136
:10031800780883120313A3007908A4007A08A500BB
:100328000030A0007A30A1004430A2008A152E27A0
:100338008A11831203132008B0002108B100220893
:10034800B2008A1156278A11831203133008BE009F
:100358003108BF003208C0003308C100DE30831204
:10036800031386004E08F9004D08F8008A152C265C
:100378008A11780883120313A3007908A4007A0865
:10038800A5000030A0007A30A1004430A2008A15F0
:100398002E278A11831203132008B0002108B10008
:1003A8002208B2008A1156278A11831203133008D3
:1003B800BE003108BF003208C0003308C100A030B9
:1003C8008312031386004E08F9004D08F8008A15B9
:1003D8002C268A11780883120313A3007908A40035
:1003E8007A08A5000030A0007A30A1004430A200AD
:1003F8008A152E278A11831203132008B0002108BA
:10040800B1002208B2008A1156278A1183120313F9
:100418003008BE003108BF003208C0003308C100F0
:10042800A0308312031386004E08F9004D08F80027
:100438008A152C268A11780883120313A3007908D9
:10044800A4007A08A5000030A0007A30A10044304A
:10045800A2008A152E278A11831203132008B000E0
:100468002108B1002208B2008A1156278A11831286
:1004780003133008BE003108BF003208C00033083B
:10048800C100A0308312031386004E08F9004D08FE
:10049800F8008A152C268A11780883120313A30002
:1004A8007908A4007A08A5000030A0007A30A100DD
:1004B8004430A2008A152E278A11831203132008BC
:1004C800B0002108B1002208B2008A1156278A110B
:1004D800831203133008BE003108BF003208C00081
:1004E8003308C100DE308312031386004E08F9007A
:1004F8004D08F8008A152C268A11780883120313F0
:10050800A3007908A4007A08A5000030A0007A307A
:10051800A1004430A2008A152E278A1183120313E2
:100528002008B0002108B1002208B2008A1156271D
:100538008A11831203133008BE003108BF00320845
:10054800C0003308C1008312031386014E08F90066
:100558004D08F8008A152C268A117808831203138F
:10056800A3007908A4007A08A5000030A0007A301A
:10057800A1004430A2008A152E278A118312031382
:100588002008B0002108B1002208B2008A115627BD
:100598008A11831203133008BE003108BF003208E5
:1005A800C0003308C100831203134E08F9004D0838
:1005B800F8008A152C268A11780883120313A300E1
:1005C8007908A4007A08A5000030A0007A30A100BC
:1005D8004430A2008A152E278A118312031320089B
:1005E800B0002108B1002208B2008A1156278A11EA
:1005F800831203133008BE003108BF003208C00060
:100608003308C1008312031386014E08F9004D0810
:10061800F8008A152C268A11780883120313A30080
:100628007908A4007A08A5000030A0007A30A1005B
:100638004430A2008A152E278A118312031320083A
:10064800B0002108B1002208B2008A1156278A1189
:10065800831203133008BE003108BF003208C000FF
:100668003308C100F6308312031386004E08F900E0
:100678004D08F8008A152C268A117808831203136E
:10068800A3007908A4007A08A5000030A0007A30F9
:10069800A1004430A2008A152E278A118312031361
:1006A8002008B0002108B1002208B2008A1156279C
:1006B8008A11831203133008BE003108BF003208C4
:1006C800C0003308C10008308312031386004E08A7
:1006D800F9004D08F8008A152C268A11780883122B
:1006E8000313A3007908A4007A08A5000030A0002D
:1006F8007A30A1004430A2008A152E278A1183126D
:1007080003132008B0002108B1002208B2008A11A2
:1007180056278A11831203133008BE003108BF0020
:100728003208C0003308C100083083120313860062
:100738004E08F9004D08F8008A152C268A11780809
:1007480083120313A3007908A4007A08A5000030D7
:10075800A0007A30A1004430A2008A152E278A1101
:10076800831203132008B0002108B1002208B20048
:100778008A1156278A11831203133008BE003108E4
:10078800BF003208C0003308C100083083120313C9
:1007980086004E08F9004D08F8008A152C268A11A3
:1007A800780883120313A3007908A4007A08A50027
:1007B8000030A0007A30A1004430A2008A152E270C
:1007C8008A11831203132008B0002108B1002208FF
:1007D800B2008A1156278A11831203133008BE000B
:1007E8003108BF003208C0003308C100F630831258
:1007F800031386004E08F9004D08F8008A152C26C8
:100808008A11780883120313A3007908A4007A08D0
:10081800A5000030A0007A30A1004430A2008A155B
:100828002E278A11831203132008B0002108B10073
:100838002208B2008A1156278A118312031330083E
:10084800BE003108BF003208C0003308C10083125F
:10085800031386014E08F9004D08F8008A152C2666
:100868008A11780883120313A3007908A4007A0870
:10087800A5000030A0007A30A1004430A2008A15FB
:100888002E278A11831203132008B0002108B10013
:100898002208B2008A1156278A11831203133008DE
:1008A800BE003108BF003208C0003308C1008312FF
:1008B80003134E08F9004D08F8008A152C268A11F2
:1008C800780883120313A3007908A4007A08A50006
:1008D8000030A0007A30A1004430A2008A152E27EB
:1008E8008A11831203132008B0002108B1002208DE
:1008F800B2008A1156278A11831203133008BE00EA
:100908003108BF003208C0003308C1008312031346
:1009180086014E08F9004D08F8008A152C268A1120
:10092800780883120313A3007908A4007A08A500A5
:100938000030A0007A30A1004430A2008A152E278A
:100948008A11831203132008B0002108B10022087D
:10095800B2008A1156278A11831203133008BE0089
:100968003108BF003208C0003308C1008E3083123E
:10097800031386004E08F9004D08F8008A152C2646
:100988008A11780883120313A3007908A4007A084F
:10099800A5000030A0007A30A1004430A2008A15DA
:1009A8002E278A11831203132008B0002108B100F2
:1009B8002208B2008A1156278A11831203133008BD
:1009C800BE003108BF003208C0003308C100423001
:1009D8008312031386004E08F9004D08F8008A15A3
:1009E8002C268A11780883120313A3007908A4001F
:1009F8007A08A5000030A0007A30A1004430A20097
:100A08008A152E278A11831203132008B0002108A3
:100A1800B1002208B2008A1156278A1183120313E3
:100A28003008BE003108BF003208C0003308C100DA
:100A380052308312031386004E08F9004D08F8005F
:100A48008A152C268A11780883120313A3007908C3
:100A5800A4007A08A5000030A0007A30A100443034
:100A6800A2008A152E278A11831203132008B000CA
:100A78002108B1002208B2008A1156278A11831270
:100A880003133008BE003108BF003208C000330825
:100A9800C10062308312031386004E08F9004D0826
:100AA800F8008A152C268A11780883120313A300EC
:100AB8007908A4007A08A5000030A0007A30A100C7
:100AC8004430A2008A152E278A11831203132008A6
:100AD800B0002108B1002208B2008A1156278A11F5
:100AE800831203133008BE003108BF003208C0006B
:100AF8003308C1008E308312031386004E08F900B4
:100B08004D08F8008A152C268A11780883120313D9
:100B1800A3007908A4007A08A5000030A0007A3064
:100B2800A1004430A2008A152E278A1183120313CC
:100B38002008B0002108B1002208B2008A11562707
:100B48008A11831203133008BE003108BF0032082F
:100B5800C0003308C1008312031386014E08F90050
:100B68004D08F8008A152C268A1178088312031379
:100B7800A3007908A4007A08A5000030A0007A3004
:100B8800A1004430A2008A152E278A11831203136C
:100B98002008B0002108B1002208B2008A115627A7
:100BA8008A11831203133008BE003108BF003208CF
:100BB800C0003308C100831203134E08F9004D0822
:100BC800F8008A152C268A11780883120313A300CB
:100BD8007908A4007A08A5000030A0007A30A100A6
:100BE8004430A2008A152E278A1183120313200885
:100BF800B0002108B1002208B2008A1156278A11D4
:100C0800831203133008BE003108BF003208C00049
:100C18003308C1008312031386014E08F9004D08FA
:100C2800F8008A152C268A11780883120313A3006A
:100C38007908A4007A08A5000030A0007A30A10045
:100C48004430A2008A152E278A1183120313200824
:100C5800B0002108B1002208B2008A115627831279
:100C680003133008BE003108BF003208C000330843
:100C7800C10008008A151B268A118A11E4278A11E7
:100C88008312031305195E2E413083160313A9003E
:100C9800EE30A800A80B4E2EA90B4E2E831203137C
:100CA8000519582E0617522E831603132B14831278
:100CB80003138601831603132B1C442E831203137C
:100CC800D501D6018312031355085604031D7E2E41
:100CD80004308606033083160313AA008A30A9005D
:100CE8005530A800A80B762EA90B762EAA0B762EC7
:100CF8000000662E8316031381128B1683124F0889
:100D08005004031D8B2EA83083128600822E831672
:100D1800031381168B130A30A0000030A100831240
:100D280003135508F83E83160313A2008312031316
:100D380056080318013EFF3E83160313A3008A15C5
:100D480084268A1183160313210883120313D400FF
:100D580083160313200883120313D3005408803A20
:100D6800FF0080307F02031DBB2E08305302031C96
:100D7800C32E073083120313D3000030D40083122C
:100D880003135308463E8400831300088600063088
:100D980083160313AA001330A900AD30A800A80BCE
:100DA800D32EA90BD32EAA0BD32E00008312031324
:100DB8008601033083160313AA008A30A900553030
:100DC800A800A80BE52EA90BE52EAA0BE52E00001E
:100DD800831203135308463E8400831300088600D9
:100DE800063083160313AA001330A900AD30A800FB
:100DF800A80BFC2EA90BFC2EAA0BFC2E00008312BC
:100E080003138601033083160313AA008A30A9004E
:100E18005530A800A80B0E2FA90B0E2FAA0B0E2FCA
:100E28000000831203135308463E8400831300080E
:100E38008600063083160313AA001330A900AD30CC
:100E4800A800A80B252FA90B252FAA0B252F0000DA
:100E5800831203138601033083160313AA008A3012
:100E6800A9005530A800A80B372FA90B372FAA0BBC
:100E7800372F0000831203135308463E8400831360
:100E8800000886000B3083160313AA002630A90039
:100E98005D30A800A80B4E2FA90B4E2FAA0B4E2F82
:100EA8000000412E831203133008B4003108B50046
:100EB8003208B6000310350D360DB7003708BD00EF
:100EC8003D08031D702F0030B3000030B200003021
:100ED800B1000030B00008003008B4003108B50097
:100EE8003208B60017300310B60CB50CB40CFF3E30
:100EF800031D772F3408B7003708B800B117FF3043
:100F0800B005FF30B1050030B2053008B90031082E
:100F1800BA003208BB00BC018E30BD02BD1FB22F23
:100F28003D08803A8F3E0318A22F0030B3000030EE
:100F3800B2000030B1000030B000080001300310EA
:100F4800BC0CBB0CBA0CB90CFF3E031DA32F01301F
:100F5800B4003408BD070319CD2FA22F18303D0265
:100F6800031CCA2F0030B3000030B2000030B100BB
:100F78000030B00008000130B4000310B90DBA0DFC
:100F8800BB0DBC0DB40BC12F0130BD023D08031DC4
:100F9800BF2F38080319DB2FB909BA09BB09BC09E7
:100FA800B90A0319BA0A0319BB0A0319BC0A3C088F
:100FB800B3003B08B2003A08B1003908B000080095
:100FC8008316031381168B12831203138101CF0139
:100FD800D001D101D201831603132B108B17831272
:100FE80003138601080008340C340E348E34CE34D2
:080FF800DE34FE342D34003418
:101C16007E088A007F0882000B268A158000840AC7
:101C260004087D0603190034FF0A0319FE0A0F2E65
:101C360083160313811101158114011401308600E6
:101C46000730831203139F008316031305150B1623
:101C56000800FD01F91F362EF809F909F80A0319DB
:101C6600F90AFD01FD0A7808F0007908F100F20191
:101C76008E30FB007B08F3007D08FC007C08F40036
:101C86008A15C2267008F8007108F9007208FA0071
:101C960008000B1D632E8B130130D1070318D20ADF
:101CA6000030D20700305202103003195102031CD3
:101CB600602E5608D0005508CF000B1181018B17F6
:101CC6008B1C792E8B130130D5070318D60A0030EA
:101CD600D607831603132B18732E8A112E208A1506
:101CE60083120313D101D2018B108B174508FF0015
:101CF60044088A0043088400420E8300FE0E7E0ECE
:101D0600090083160313A601A7012008210403195D
:101D1600BD2EA501A50AA11B9C2E01300310A00D06
:101D2600A10DFF3E031D912E0130A4002408A50736
:101D36008E2E01300310A60DA70DFF3E031D9D2E0E
:101D460021082302031DA92E20082202031CB22EFD
:101D56002008A2022108031CA303A30226140130B3
:101D66000310A10CA00CFF3E031DB32E0130A502EB
:101D7600031D9C2E2708A1002608A0000800730852
:101D86000319CA2E720871047004031DDD2E00307B
:101D9600F0000030F1000030F20008000130F500DC
:101DA6007508F30701300310F20CF10CF00CFF3E3E
:101DB600031DD62EFE3072050319F82ED12E0130E2
:101DC600F5007508F3070130F007003003180130FD
:101DD600F107003003180130F20701300310F20C4E
:101DE600F10CF00CFF3E031DF12EFF3072050319B6
:101DF600072FE22E0130F30201300310F00DF10D32
:101E0600F20DFF3E031D002FF11B0D2F0230730252
:101E16000318FD2E7318152FFF30F0057F30F105DE
:101E2600FF30F2050310F30C7308F500F601F70115
:101E360010300310F50DF60DF70DFF3E031D1C2F98
:101E46007508F0047608F1047708F204740803199B
:101E56000800F2170800831203132008A6002108C1
:101E6600A7002208A8000310270D280DA90029089D
:101E7600AA002A08031D462F0030A0000030A1004A
:101E86000030A20008002308A6002408A7002508A1
:101E9600A8000310270D280DA9002908AF002F0858
:101EA600031D5C2F0030A0000030A1000030A2000E
:101EB60008002F087B3EA6002608AA072008A600D1
:101EC6002108A7002208A80010300310A80CA70CB0
:101ED600A60CFF3E031D682F2608A9002908AF009F
:101EE6002308A6002408A7002508A8001030031020
:101EF600A80CA70CA60CFF3E031D7A2F2608A900E6
:101F06002908AF068030A6002608AF05A117A4173A
:101F1600FF30A305FF30A4050030A5050030AB0057
:101F26000030AC000030AD000730A6002608AE0039
:101F3600201CAB2F2308AB07240803110318240A1F
:101F4600031DAC07250803110318250A031DAD0759
:101F560001300310A20CA10CA00CFF3E031DAC2FF8
:101F660001300310A30DA40DA50DFF3E031DB42FD4
:101F76000130AE02031D9B2F0930A6002608AE00D5
:101F8600201CD32F2308AB07240803110318240AA7
:101F9600031DAC07250803110318250A031DAD0709
:101FA60001300310A20CA10CA00CFF3E031DD42F80
:101FB60001300310AD0CAC0CAB0CFF3E031DDC2F47
:101FC6000130AE02031DC32F2B08F0002C08F100D0
:101FD6002D08F2002A08A6002608F3002F08A700FD
:101FE6002708F4008A15C226700883120313A0007E
:0A1FF6007108A1007208A2000800A3
:02400E0018FF99
:00000001FF
