:020000040040BA
:1000000030390020AD094000A9094000A90940008D
:10001000A9094000A9094000A9094000000000000A
:10002000000000000000000000000000A9094000DE
:10003000A909400000000000A9094000A9094000EA
:10004000A9094000A9094000A9094000A9094000E8
:10005000A9094000A9094000A9094000A9094000D8
:10006000A9094000A9094000000000002D08400037
:100070004108400055084000A9094000A909400076
:100080000000000000000000A9094000A90940008C
:10009000A9094000A9094000A9094000F10D40004C
:1000A000A9094000A9094000A9094000A909400088
:1000B000A9094000A9094000A9094000A909400078
:1000C000A9094000A9094000A909400010B5054C44
:1000D000237833B9044B13B10448AFF300800123F4
:1000E000237010BD5408002000000000741F400061
:1000F000084B10B51BB108490848AFF30080084809
:10010000036803B910BD074B002BFBD0BDE81040BE
:10011000184700BF0000000058080020741F40006E
:10012000741F40000000000090B92DE9F0410C461A
:100130009046002A0FDD8F18084E094D3068214681
:100140002B6898470134A742F8D14046BDE8F081BA
:100150004FF0FF3070470020BDE8F08124090020F7
:100160001C090020436913F0020F1DBFC1F30801F1
:10017000C161002001207047436913F0010F05D0D1
:100180008369C3F308030B600020704701207047A8
:100190000138022815D82DE9F0410E4614469AB1CF
:1001A0000D46DFF838800C4FD8F8000015F8011B19
:1001B0003B68984700280ADBA81B013CF4D1BDE846
:1001C000F0814FF0FF3070470020BDE8F0814FF024
:1001D000FF30BDE8F08100BF200900202409002085
:1001E00010B489014318022444504FF0FF31996242
:1001F000196A5A6010BC7047890105234350704743
:1002000000EB8111CA61704700EB81114A627047AF
:1002100000EB8111086A7047F0B486B002240194A3
:100220000824029420240394802404940A9CE40B60
:100230000594B0EB510F1CD84C0CA0421FD201AE5C
:10024000012556F8044FB1FBF4F4270C844212D375
:10025000874215D90135052DF3D1002013E006A9F9
:1002600001EB850151F8141C116033B11D600120B0
:1002700009E0002007E0002005E0012003E0002560
:10028000002AECD1F1E706B0F0BC704710B4AC2303
:1002900003600B684A68B3FBF2F31B095C1E4FF660
:1002A000FE7294420AD803628B68436040F20223D4
:1002B000C0F8203150230360002000E0012010BC72
:1002C000704700BF436913F0020F1ABFC1610020DD
:1002D00001207047436913F0010F1DBF83690B7044
:1002E00000200120704700BF10B50E480E4B984704
:1002F0003E2100200D4B98470D4CA0470028FCD014
:100300000C4B98470C4A0D4B9A620D4CA0470028A5
:10031000FCD010200B4B98470B4B98470148024BE1
:10032000984710BD000E2707710B4000D108400010
:100330002509400035094000013F132000040E400C
:1003400045094000690840005D0A400038B54FF497
:100350000042464B5A600B20454CA0470C20A0475A
:100360000D20A0474FF060511320424CA0474FF0A2
:1003700060511420A04740492320A0473F494C200A
:10038000A0474FF000624FF4C0613D483D4B984795
:100390004FF080510020A0474FF080510820A04727
:1003A0004FF080515220A0474FF000610C20A04731
:1003B0004FF000610D20A0474FF000610E20A047D4
:1003C0004FF000610B20A0474FF000611520A047BF
:1003D0004FF000611620A0474FF040511720A04772
:1003E0001720294B9847294D29464020A0472946E8
:1003F0004120A04729464220A04729464320A04744
:1004000029464420A04729464520A04729464620A2
:10041000A04729464720A04729464B20A047294608
:100420004820A04729464F20A04729465320A047EF
:100430004FF040514D20A04705F1005529461020AE
:10044000A04729461120A0474FF000610C20A0478B
:100450004FF000610D20A0474FF000610E20A04733
:100460004FF000610B20A04738BD00BF50140E4074
:1004700055094000C50540007900002859000028B2
:10048000000E0E40E906400085054000010000080E
:100490004264B1F1C05F2FD007D8B1F1006F14D022
:1004A000B1F1805F1ED039B97047B1F1205F36D00D
:1004B00004D8B1F1005F29D042607047B1F1405FCC
:1004C0002DD0B1F1605F2AD0F6E710B4046F016F50
:1004D000D343214019400167446F416F21400B40D5
:1004E00043671AE0036F13430367416F436F0B4089
:1004F00023EA02034367DFE7016F036F0B4023EA40
:1005000002030367436F13434367D5E7036F134346
:100510000367436F13434367CEE7426010BC7047E5
:10052000416412F0010F14BF4166016612F00A0F18
:1005300014BF0162416212F0020F02D0C0F88010B5
:1005400004E012F0080F18BFC0F884104161016088
:10055000704700BF10B44164019C0CB1416600E0DB
:1005600001660BB1016500E041650AB1016300E07D
:1005700041630161016010BC704700BFC06C7047EF
:10058000806C7047430903F5001303F207735B02A5
:1005900000F01F00012202FA00F05863704700BF0C
:1005A000430903F5001303F207735B02996B00F034
:1005B0001F00012202FA00F0014214BF58631863C1
:1005C000704700BF70B582B00D46430903F50013B4
:1005D00003F207735C0201F0F043B3F1005F47D010
:1005E00009D8B3F1805F21D0B3F1C05F2FD0B3F150
:1005F000006F6FD109E0B3F1405F55D0B3F1605F98
:1006000052D0B3F1205F44D064E000F01F00012617
:10061000864032464FF000612046304B984715F037
:10062000010F14BF66662666012054E000F01F002B
:100630000126864032464FF080512046274B98478E
:1006400015F0010F14BF66662666012043E000F036
:100650001F000126864032464FF0C05120461F4BF6
:10066000984715F0010F14BF66662666012032E038
:1006700000F01F000126864032464FF00051204610
:10068000164B984715F0010F14BF666626660120C9
:1006900021E000F01F0101262A4606FA01F120465A
:1006A0000F4B9847304616E005F0605200F01F01EE
:1006B000012605EA06030093C5F38003B2F1605FEB
:1006C00014BF0022012206FA01F12046054CA04782
:1006D000304600E0002002B070BD00BF9104400031
:1006E000210540005505400070B582B005460E4614
:1006F000144602F0F043B3F1005F38D009D8B3F1EB
:10070000805F1CD0B3F1C05F25D0B3F1006F50D132
:1007100009E0B3F1405F3AD0B3F1605F37D0B3F195
:10072000205F30D045E00A464FF00061224B9847E9
:1007300014F0010F14BF6E662E6601203AE00A46DF
:100740004FF080511C4B984714F0010F14BF6E6698
:100750002E6601202EE00A464FF0C051164B9847F6
:1007600014F0010F14BF6E662E66012022E00A46C7
:100770004FF00051104B984714F0010F14BF6E66F4
:100780002E66012016E00D4B9847012012E004F080
:10079000605204F001030093C4F38003B2F1605F80
:1007A00014BF0022012231462846054CA0470120F3
:1007B00000E0002002B070BD91044000210540001F
:1007C000550540002DE9F84381468846124B98476D
:1007D00005464846114B9847054013D0104C04F18C
:1007E00060062368434508D16168294205D0E36863
:1007F00040469847636825EA0305B44202D01034A6
:10080000002DEED1074B1B6823B1074B1B680BB1C2
:1008100048469847BDE8F8837D05400081054000C3
:1008200074080020280900207008002008B50B215A
:100830000148024B984708BD000E0E40C507400016
:1008400008B50C210148024B984708BD00100E4026
:10085000C507400008B50D210148024B984708BD67
:1008600000120E40C5074000184A136B23F07003B6
:1008700018431063936E13F0080F03D009E0013B97
:1008800003D11EE04FF4006310498A6E12F0080F86
:10089000F5D00E4A136B23F0030343F002031363F6
:1008A000906E10F0080004D000207047013B03D187
:1008B00009E04FF4006305498A6E12F0080FF5D085
:1008C0007047012070470120704700BF00040E40B0
:1008D00038B111490B6A114A1A40114B13430B628C
:1008E00070470D48026A090289B222F45C1323F0B2
:1008F000030343F45C1343F001030B43036202461A
:10090000936E13F0010FFBD0034A136A43F09B73FD
:1009100043F480331362704700040E40FCFFC8FEAE
:1009200002003701024B986E00F48030704700BF20
:1009300000040E404FF00052014B9A62704700BF16
:1009400000040E40024B986E00F00200704700BF9A
:1009500000040E4022281ED81F280CD8114B9A697B
:1009600001238340934318D0012303FA00F00D4B79
:1009700018610020704720380A4BD3F80821012362
:10098000834093430BD0012303FA00F0054BC3F8D7
:1009900000010020704701207047002070470020B0
:1009A000704700BF00040E40FEE700BF08B5204BB3
:1009B000204A9A4212D9204B1D4A9A421ED2114611
:1009C000013B9B1A23F0030304331A4A134452F8E1
:1009D000040B41F8040B9A42F9D10FE0144B154A6D
:1009E0009A420BD2144B124A9A1A144811182AB17F
:1009F00051F8042943F8042D8142F9D100BF104B6E
:100A0000104A9A420BD2131D0F4AD21A22F0030247
:100A10001A44043B002143F8041B9A42FBD10B4BC0
:100A20000B4A9A600B4B98470B4B9847FEE700BF69
:100A300000000020741F400054080020701F400078
:100A400030090020540800203309002000ED00E0A8
:100A500000004000E50E4000110E40003D4B1B6BB6
:100A600003F00303032B5DD8DFE803F0020E2B2B0A
:100A7000394B5B6913F0800F14BF4FF400424FF401
:100A8000FA42364B1A604DE0324B1B6A13F0807FFE
:100A900003D0334A314B1A6044E0324A2F4B1A607C
:100AA0002C4B1B6A03F07003102B02D0202B04D0B8
:100AB00038E02D4A294B1A6034E0294A274B1A6046
:100AC00030E0244B1B6A13F0807F03D0244A234B71
:100AD0001A6012E0234A214B1A601E4B1B6A03F076
:100AE0007003102B02D0202B04D006E01E4A1B4BB3
:100AF0001A6002E01A4A194B1A60164B1B6B03F07E
:100B00000303022B134A07BF936A926AD36AD26A1D
:100B10001248C3F30A41036801FB0333D2B2B3FBAB
:100B2000F2F303600B4B1B6B03F07003702B07D1C8
:100B30000A4A13680D49A1FB03135B081360704751
:100B4000044B1B6B0549C3F302120B68D3400B60C7
:100B5000704700BF00040E4010140E40000000203B
:100B6000001BB70000093D0000127A00ABAAAAAA38
:100B70001A4B984207D84FF08063194A136002F568
:100B8000007213607047174B984206D8164B144AF0
:100B9000136002F5007213607047144B984206D838
:100BA000134B0F4A136002F5007213607047114B2C
:100BB000984206D8104B0A4A136002F5007213607F
:100BC00070470E4B984294BF4FF004230C4B044ADD
:100BD000136002F500721360704700BFFF2C3101F3
:100BE000000A0E40FF59620200010004FF869303D1
:100BF00000020004FFB3C40400030004FFE0F50595
:100C000000050004094B1B6813B9094A074B1A6019
:100C1000064B1B681A180749914204DB1046034A29
:100C20001060184670474FF0FF307047E40800200E
:100C300030390020FC7F02204FF0FF30704700BFAA
:100C40004FF400534B600020704700BF00207047F6
:100C5000F0B583B005460C4600230193184B98422B
:100C600007D11F46174E21463846B0470028FAD113
:100C700017E0154B984207D11E46124D21463046CB
:100C8000A8470028FAD118E0104B984209D11E4617
:100C90000F4D01A93046A8470028FAD1019B2370C7
:100CA0000BE00C4B9D4208D11E46094D01A9304670
:100CB000A8470028FAD1019B237003B0F0BD00BF04
:100CC00000060E40D502400000080E4000400240E1
:100CD000790140000080024070B50C46184B9842E4
:100CE00008D11E46174D21463046A8470028FAD1A4
:100CF000012070BD144B984208D11E46114D21466B
:100D00003046A8470028FAD1012070BD0F4B984209
:100D100008D11E460E4D21463046A8470028FAD17C
:100D2000012070BD0B4B984208D11E46084D21464C
:100D30003046A8470028FAD1012070BD002070BDC0
:100D400000060E40C502400000080E400040024070
:100D500065014000008002402DE9F04184B0DFF8D9
:100D60008C80CDF80480164C23680293A36803930B
:100D70000820144FB847144D01A92846134EB04718
:100D8000134B1D60134A144B1A60144A144B1A601B
:100D9000CDF8048023680293A36803930820B84722
:100DA00001A92846B0470F4D2B68002198680E4CCA
:100DB000A0472B6800215868A04704B0BDE8F08127
:100DC000040000205509400000060E408D0240003E
:100DD00024090020D90C400020090020510C4000BB
:100DE0001C09002040040020D10F4000000E2707FE
:100DF00008B500210348044B98471320034B98473C
:100E000008BD00BF0000014011024000A1054000E4
:100E100000B585B0254B9847254B9847254B9847FB
:100E20001720254B9847254C009403AB02AA214676
:100E30000A20234DA847234D039A42F48042002103
:100E40002846214B9847029AB4FBF2F41F4AA2FBB2
:100E50000432D208002128461D4B98471D4B4FF401
:100E60000002C3F88021402183F817131A60102272
:100E700000212846184B984700212846174B9847D1
:100E800005F5502505F560650126009600231A46F4
:100E90004FF400212846124CA047009600231A4622
:100EA0004FF480112846A047FEE700BFE90240004A
:100EB0004D034000590D400055094000000E270722
:100EC0001902400000000140E1014000CDCCCCCC33
:100ED0000102400000E100E009024000F901400089
:100EE0005505400070B50F4E0F4D761BB61018BF5C
:100EF000002405D0013455F8043B9847A642F9D1A7
:100F00000A4E0B4D761B01F023F8B61018BF0024D3
:100F100006D0013455F8043B9847A642F9D170BD7C
:100F200070BD00BF5C1F40005C1F4000641F40009C
:100F30005C1F400070B4840746D0541E002A41D084
:100F4000CDB2034602E0621EE4B3144603F8015B2F
:100F50009A07F8D1032C2ED9CDB245EA05250F2CDE
:100F600045EA054519D903F110022646103E0F2E19
:100F700042F8105C42F80C5C42F8085C42F8045CF1
:100F800002F11002F2D8A4F1100222F00F0204F0D4
:100F90000F041032032C13440DD91E462246043A86
:100FA000032A46F8045BFAD8221F22F00302043217
:100FB000134404F003042CB1C9B21C4403F8011B10
:100FC000A342FBD170BC704714460346C2E700BF82
:100FD00000290CBF022200224FF4806300F000B809
:100FE0002DE9F043514C256883B004460F469046E6
:100FF0001E4615B1AB6B002B79D0B8F1020F04D0AF
:10100000B8F1010F7FD8002E7DDB2146284600F085
:1010100043F9216B41B104F14003994202D02846C3
:1010200000F03AFA00232363B4F90C300022A261E5
:1010300062601A0654D423F44A6323F00303B8F120
:10104000020FA38139D001AB6A462146284600F041
:1010500035FBA3891843A08126B327B3AB6B002BC4
:101060004DD0009BB4F90C0027609E421CBF40F499
:101070000060A081B8F1010F08BF40F0010083B209
:1010800008BFA08103F0080080B22761666118B331
:1010900013F001002FD000207642A661A06003B0BB
:1010A000BDE8F083009E304600F038FB074668B389
:1010B000A38943F08003A381D0E7002004F1430219
:1010C00043F0020300250121A381A5602260226173
:1010D000616103B0BDE8F083A06003B0BDE8F083B8
:1010E0002169284600F0D8F9B4F90C30A3E7284666
:1010F00000F066F981E7A66003B0BDE8F0832846FA
:1011000000F05EF9ADE74FF0FF30E2E7DDF8009068
:10111000B14506D0484600F001FB074608B14E46EF
:10112000C6E7B4F90C304FF0FF30C7E740040020A9
:10113000024B13B1024800F005B8704700000000F0
:10114000D5134000002301461A46184600F016BE8B
:10115000B1F90C309AB22DE9F0410D4611078046E5
:101160003CD46A6843F40063002AAB8173DDAC6A47
:10117000002C4BD09BB203F48052002192B2D8F8DD
:101180000060C8F80010002A69D02A6D5F0705D5F5
:1011900069682B6B521A0BB1EB6BD21A0023E96909
:1011A0004046A047441C3CD0B5F90C302A692A605F
:1011B00023F400630022AB81DB046A6049D4296B0D
:1011C000C8F8006011B305F14003994202D04046CF
:1011D00000F062F900202863BDE8F0812E69AEB10D
:1011E0002C682E6090070CBF6B690023A41BAB60BA
:1011F0000AE0234632466F6AE9694046B84700284C
:10120000A4EB0004064404DD002CF2DC0020BDE861
:10121000F081AB8943F04003AB814FF0FF30BDE874
:10122000F081D8F800201D2AF3D81A4BD34003F0E0
:10123000010383F00104002BEBD0B5F90C302969D0
:10124000296023F40063D9046C60AB81B7D5002A10
:10125000B5D12865B3E7EA6B002A88DCD6E701231D
:10126000E9694046A047431C024602D0AB89AC6AFC
:101270008CE7D8F80030002BF8D01D2B01D0162BAE
:1012800002D1C8F80060C1E7AB8943F04003AB81ED
:10129000BDE8F0810100402010B5044682B008B1DD
:1012A000836B53B1B1F90C0008B902B010BD2046F0
:1012B00002B0BDE81040FFF74BBF019100F080F88D
:1012C0000199EFE7014900F0CFB900BF451E40008A
:1012D0002DE9F04F354B4568C3630024074600F500
:1012E0003B7204230321C0F8E412C0F8E822C0F8DE
:1012F000E04283B02C606C60AC606C66EC812C6169
:101300006C61AC61AB81214605F15C000822FFF7FE
:1013100011FEBE68DFF898B0DFF898A0DFF898906B
:10132000DFF89880C5F820B001230922C5F824A071
:10133000C5F82890C5F82C80ED612146F381B28173
:1013400006F15C0034607460B4607466346174618A
:10135000B46108220193FFF7EDFDFD68F6611220EC
:101360000222C6F820B0C6F824A0C6F82890C6F815
:101370002C802146A881EA812C606C60AC606C6690
:101380002C616C61AC6105F15C000822FFF7D2FDB5
:10139000019BED61C5F820B0C5F824A0C5F82890E0
:1013A000C5F82C80BB6303B0BDE8F08FC5124000C8
:1013B000C91C4000ED1C4000291D4000491D400093
:1013C000836B03B17047FFF783BF00BF704700BF57
:1013D000704700BF38B5074D074C2C1BA41005D033
:1013E000013C55F8043D9847002CF9D1BDE8384040
:1013F00000F0B8BD741F4000701F4000F8B5234FC7
:101400000C46064600F04AFCBB685D6825F0030503
:10141000291B01F6EF7121F47F6121F00F01A1F585
:101420008054B4F5805F07DB0021304600F03AFCC1
:10143000BB682B44984204D0304600F031FC0020B9
:10144000F8BD6142304600F02DFC01300DD0104B4C
:10145000BA6819682D1B45F001053046091B556017
:10146000196000F01DFC0120F8BD0021304600F09D
:1014700019FCBA68831A0F2BDEDD064C0449246878
:1014800043F00103001B53600860D5E744040020CB
:10149000F408002050080020002945D02DE9F04133
:1014A0000D46804600F0FAFB55F8047C6A4927F0A7
:1014B0000103A5F10804E2188E685068B24220F0DA
:1014C000030062D0FE0750600BD455F8087CE41B83
:1014D00001F1080EA56875453B446FD0E768EF60E1
:1014E000BD6015186D68ED0742D543F001026260DA
:1014F000E350B3F5007F18D2DB085A1C4D6851F851
:101500003270A76001209B1000FA03F301EBC200C8
:101510001D430838E0604D6041F83240FC604046B1
:10152000BDE8F04100F0BCBB70475A0A042A53D80A
:101530009A0902F139077F0002F1380501EB8700B3
:1015400051F827204449083890424DD0516821F085
:1015500003018B4202D292689042F7D1D068E060DA
:10156000A2608460D4604046BDE8F04100F098BBC2
:1015700095683A4FBD4203443FD0D068E86043F0DD
:10158000010285606260E350B3E7FF07034407D4BC
:1015900055F8082CA41A1344A068E268C260906051
:1015A0002F4A126843F00100934260608C60B6D30A
:1015B0002C4B40461968FFF721FFB0E71118496826
:1015C000C90744D49168D268CA60034443F001005B
:1015D00091606060E350A2E7142A17D802F15C071B
:1015E0007F0002F15B05A9E7AA104B68012505FA07
:1015F00002F213434B600246B1E743F001024C6133
:101600000C61E560A5606260E35088E7542A06D863
:101610001A0B02F16F077F0002F16E058EE7B2F53B
:10162000AA7F06D8DA0B02F178077F0002F177056E
:1016300084E740F25450824206D89A0C02F17D07AA
:101640007F0002F17C0579E7FE277E2576E743F0EF
:1016500001026260E35062E7440400204C04002071
:101660004C080020F00800202DE9F84310F53877E9
:101670001FD0884606464FF000097D68BC68013DD2
:1016800011D4A389012B05F1FF3508D9B4F90E3027
:1016900001332146304602D0C04749EA00096B1C9D
:1016A00004F16804EDD13F68002FE6D14846BDE85B
:1016B000F883B9464846BDE8F88300BF70B50D46CB
:1016C000B1F90E10002990B014461E4614DB01AA91
:1016D00000F0FAFB00280FDB029A02F47042A2F538
:1016E0000052B2FA82F252094FF480634FF4006064
:1016F0003260236010B070BDA88900F0800082B213
:10170000002030601AB14023236010B070BD4FF448
:1017100080631046236010B070BD00BF024B0146CD
:10172000186800F003B800BF400400202DE9F04F16
:1017300001F10B05162D83B0064640F29F8035F06F
:10174000070500F1BF80A94200F2BC8000F0A6FAB4
:10175000B5F5FC7FC0F09C826B0A00F0BA80042BC8
:1017600000F28381A80900F1390E4FEA4E033830A8
:10177000C44F07EB8303A3F108015C68A14207D1C2
:10178000ACE0002A80F2AC80E468A14200F0A680C0
:10179000636823F003035A1B0F2AF2DDB9493C6941
:1017A00001F1080E744500F0B381636823F0030370
:1017B0005A1B0F2A00F39981002AC1F814E0C1F8DE
:1017C00010E080F29E80B3F5007F80F06781DB0837
:1017D00003F1010C01229B1002FA03F34A6851F84D
:1017E0003C80C4F8088001EBCC091A43A9F1080336
:1017F000E3604A6041F83C40C8F80C408310012483
:101800009C40944200F28A80144206D120F00300EA
:101810006400144200F10400FAD007EBC009CC4682
:101820008046DCF80C108C4507D173E1002A80F269
:101830008181C9688C4500F06D814B6823F00303FA
:101840005A1B0F2AF2DD0C46D1F80CC054F8088F51
:101850004B1945F001054D6042F00101C8F80CC07C
:101860003046CCF808807B613B61C3F80CE0C3F8DC
:1018700008E059609A5000F013FA1FE0102921D8AF
:1018800000F00CFA1025062302207E4F07EB83039D
:10189000A3F108025C68944200F045816368E16846
:1018A000A56823F00303234430465A68E96042F0F8
:1018B00001028D605A6000F0F3F90834204603B04D
:1018C000BDE8F08F00240C232046336003B0BDE850
:1018D000F08F80234FF0400E3F2049E770465DE7D0
:1018E0002344E1685A68A56842F00102E960304685
:1018F0008D605A6000F0D4F90834204603B0BDE88A
:10190000F08F234430465A6842F001025A6000F0DA
:10191000C7F90834204603B0BDE8F08FBC6863689F
:1019200023F00308A84504D3C5EB08030F2B00F3ED
:101930008C80554BDFF860911A68D9F8003001337C
:101940002A4404EB080A00F0608102F580520F324D
:1019500022F47F6222F00F0211463046019200F01D
:10196000A1F9B0F1FF3F8346019A00F0588182450A
:1019700000F2FC80454B1968DA451144196000F00B
:101980005381D9F80000DFF810E101301BBFCAEB2A
:101990000B0A5144CEF800B019601BF0070100F0AB
:1019A0001781C1F10800C1F58051834408315A44C0
:1019B000C2F30B02C2EB010949463046019300F025
:1019C00071F9431C019B00F03F81CBEB00024A44BC
:1019D00042F001021968C7F808B04944BC42CBF88C
:1019E00004201960DFF8A49016D0B8F10F0F40F270
:1019F000FD806268A8F10C0323F00703E01802F0F1
:101A000001024FF0050E1A430F2B6260C0F804E08C
:101A1000C0F808E000F21C811D4BBC681A689142B6
:101A200088BF19601B4B1A689142626888BF1960B1
:101A300022F003029542A2EB050301D80F2B04DC30
:101A4000304600F02DF9002438E7621943F0010315
:101A500045F0010565603046BA60536000F020F93A
:101A60000834204603B0BDE8F08F142B71D9542BF5
:101A700000F2A480280B00F16F0E4FEA4E036E3087
:101A800076E600BF44040020F0080020F40800209F
:101A9000EC080020E8080020500800205A0A042A18
:101AA0005ED9142A00F2B38002F15C0149005B3276
:101AB00007EB810C57F82110DFF8DC81ACF1080C42
:101AC0008C4500F088804A6822F00302934202D2DB
:101AD00089688C45F7D1D1F80CC07A68C4F80CC07D
:101AE000A160CCF80840CC6088E6631942F0010799
:101AF00045F00105656030464B610B61C3F80CE0B1
:101B0000C3F808E05F609A50083400F0C9F8D5E6E1
:101B10004A6873E608F1010818F0030F0CF1080C8D
:101B20007FF47FAE30E0DC68A34208BF02303FF4B0
:101B300035AEB3E60B440C465A68C96854F8085FE2
:101B400042F001025A603046E9608D6000F0A8F86A
:101B5000B4E603F15C0E03F15B004FEA4E0307E6C7
:101B60009A0902F1390149003832A1E7BC424A4BD7
:101B70003FF400AF9C68626822F003025AE759F80C
:101B80000839994540F0828010F0030F00F1FF30D2
:101B9000F5D17B6823EA04037B6064009C423FF636
:101BA000BDAE002C3FF4BAAE1C4240467FF435AEC9
:101BB00064001C4200F10400FAD02EE6B3F5AA7FBF
:101BC00018D8E80B00F1780E4FEA4E037730CFE5D6
:101BD0004FF48051EBE60121D8F80430921001FA5D
:101BE00002F21A43C8F80420614677E70123CBF8D4
:101BF000043025E740F25452934220D8A80C00F15B
:101C00007D0E4FEA4E037C30B2E51032A4E6542A32
:101C100026D81A0B02F16F0149006E3248E7BC6802
:101C2000626822F0030205E7CAF30B0000287FF484
:101C3000A8AE4244BB6842F001025A60ECE6FE23C3
:101C40004FF07F0E7E2093E501224FF00009C1E6A0
:101C500004F108013046FFF71FFCD9F80010DBE65D
:101C6000B2F5AA7F05D8DA0B02F178014900773284
:101C70001EE740F254518A4205D89A0C02F17D01C8
:101C800049007C3214E7FE217E2211E77B6884E75D
:101C9000E808431C5B00F8E544040020704700BFDF
:101CA000704700BF38B5074C00230546084623603F
:101CB000FEF7A8FF431C00D038BD2368002BFBD0E3
:101CC0002B6038BD2C09002010B50C46B1F90E1060
:101CD00000F024F9002803DB236D0344236510BDC5
:101CE000A38923F48053A38110BD00BF2DE9F041E7
:101CF0001646B1F90C201F46D3050C46054607D5FC
:101D000000220223B1F90E1000F0F2F8B4F90C2011
:101D1000B4F90E1022F48052A2813B463246284686
:101D2000BDE8F04100F014B810B50C46B1F90E1042
:101D300000F0DEF8A389421C0EBF23F4805343F465
:101D400080532065A38110BDB1F90E1000F068B872
:101D500070B50D46084C114606461A462846002323
:101D60002360FEF715FA431C00D070BD2368002BDA
:101D7000FBD0336070BD00BF2C0900202DE9F04777
:101D8000254C2568D5F8484106468846924699462E
:101D9000C4B360681F2817DC431C76B104EB8005D0
:101DA0000122C5F888A0D4F8881182401143022E80
:101DB000C4F88811C5F808911ED00230636044F859
:101DC00020800020BDE8F087144B03B34FF4C870A7
:101DD000FFF7A4FC0446D0B1D5F84831002780E8CD
:101DE0008800C5F8484138460123C4F88871C4F812
:101DF0008C71002EE1D0D1E7D4F88C110A43C4F8DD
:101E00008C21DAE705F5A674C5F84841C1E74FF023
:101E1000FF30BDE8F08700BF4C1F40001D17400099
:101E200038B5074C0023054608462360FEF704FF3B
:101E3000431C00D038BD2368002BFBD02B6038BD7D
:101E40002C09002000293DD070B505460C4608B18C
:101E5000836B7BB3B4F90C300BB9002070BD214605
:101E60002846FFF775F9E36A064633B1E16928466B
:101E700098470028B8BF4FF0FF36A3891B061CD433
:101E8000216B41B104F14003994202D02846FFF78B
:101E900003FB00232363616C21B12846FFF7FCFAA2
:101EA00000236364FFF792FA0023A381FFF790FAFF
:101EB000304670BDFFF784FACCE721692846FFF76A
:101EC000EBFADDE70020704738B50B46074C0546B6
:101ED0001146184600232360FEF7B2FE431C00D0D3
:101EE00038BD2368002BFBD02B6038BD2C090020A7
:101EF00070B50D46084C114606461A462846002382
:101F00002360FEF7A3FE431C00D070BD2368002BA6
:101F1000FBD0336070BD00BF2C09002070B50D46AA
:101F2000084C114606461A46284600232360FEF751
:101F3000FBF8431C00D070BD2368002BFBD033603E
:101F400070BD00BF2C0900204300000018000020D5
:101F5000F8B500BFF8BC08BC9E4670473111400080
:101F6000F1004000F8B500BFF8BC08BC9E467047C1
:041F7000CD00400060
:101F740000093D0080250000C000000000080000AA
:101F84000000000000000000000000000403002026
:101F94006C030020D40300200000000000000000B7
:101FA400000000000000000000000000000000002D
:101FB400000000000000000000000000481F400076
:101FC400000000000000000000000000000000000D
:101FD40000000000000000000000000000000000FD
:101FE40000000000000000000000000000000000ED
:101FF40000000000000000000000000000000000DD
:1020040000000000000000000000000000000000CC
:1020140000000000000000000000000000000000BC
:1020240000000000000000000000000000000000AC
:1020340001000000000000000E33CDAB34126DE649
:10204400ECDE05000B0000000000000000000000B2
:10205400000000000000000000000000000000007C
:10206400000000000000000000000000000000006C
:10207400000000000000000000000000000000005C
:10208400000000000000000000000000000000004C
:1023B4001800002000000000000000004404002079
:1023C400440400204C0400204C0400205404002049
:1023D400540400205C0400205C04002064040020F9
:1023E400640400206C0400206C04002074040020A9
:1023F400740400207C0400207C0400208404002059
:10240400840400208C0400208C0400209404002008
:10241400940400209C0400209C040020A4040020B8
:10242400A4040020AC040020AC040020B404002068
:10243400B4040020BC040020BC040020C404002018
:10244400C4040020CC040020CC040020D4040020C8
:10245400D4040020DC040020DC040020E404002078
:10246400E4040020EC040020EC040020F404002028
:10247400F4040020FC040020FC04002004050020D7
:10248400040500200C0500200C0500201405002084
:10249400140500201C0500201C0500202405002034
:1024A400240500202C0500202C05002034050020E4
:1024B400340500203C0500203C0500204405002094
:1024C400440500204C0500204C0500205405002044
:1024D400540500205C0500205C05002064050020F4
:1024E400640500206C0500206C05002074050020A4
:1024F400740500207C0500207C0500208405002054
:10250400840500208C0500208C0500209405002003
:10251400940500209C0500209C050020A4050020B3
:10252400A4050020AC050020AC050020B405002063
:10253400B4050020BC050020BC050020C405002013
:10254400C4050020CC050020CC050020D4050020C3
:10255400D4050020DC050020DC050020E405002073
:10256400E4050020EC050020EC050020F405002023
:10257400F4050020FC050020FC05002004060020D2
:10258400040600200C0600200C060020140600207F
:10259400140600201C0600201C060020240600202F
:1025A400240600202C0600202C06002034060020DF
:1025B400340600203C0600203C060020440600208F
:1025C400440600204C0600204C060020540600203F
:1025D400540600205C0600205C06002064060020EF
:1025E400640600206C0600206C060020740600209F
:1025F400740600207C0600207C060020840600204F
:10260400840600208C0600208C06002094060020FE
:10261400940600209C0600209C060020A4060020AE
:10262400A4060020AC060020AC060020B40600205E
:10263400B4060020BC060020BC060020C40600200E
:10264400C4060020CC060020CC060020D4060020BE
:10265400D4060020DC060020DC060020E40600206E
:10266400E4060020EC060020EC060020F40600201E
:10267400F4060020FC060020FC06002004070020CD
:10268400040700200C0700200C070020140700207A
:10269400140700201C0700201C070020240700202A
:1026A400240700202C0700202C07002034070020DA
:1026B400340700203C0700203C070020440700208A
:1026C400440700204C0700204C070020540700203A
:1026D400540700205C0700205C07002064070020EA
:1026E400640700206C0700206C070020740700209A
:1026F400740700207C0700207C070020840700204A
:10270400840700208C0700208C07002094070020F9
:10271400940700209C0700209C070020A4070020A9
:10272400A4070020AC070020AC070020B407002059
:10273400B4070020BC070020BC070020C407002009
:10274400C4070020CC070020CC070020D4070020B9
:10275400D4070020DC070020DC070020E407002069
:10276400E4070020EC070020EC070020F407002019
:10277400F4070020FC070020FC07002004080020C8
:10278400040800200C0800200C0800201408002075
:10279400140800201C0800201C0800202408002025
:1027A400240800202C0800202C08002034080020D5
:1027B400340800203C0800203C08002000000200EF
:0427C400FFFFFFFF15
:04000005004009AD01
:00000001FF
