S00E00006573747566612E737265638E
S214400000403D002099114000951140009511400058
S21440001095114000951140009511400000000000E9
S21440002000000000000000000000000095114000A5
S21440003095114000000000009511400095114000C9
S21440004095114000951140009511400095114000D3
S21440005095114000951140009511400095114000C3
S2144000609511400095114000000000001D10400012
S2144000703110400045104000951140009511400059
S214400080000000000000000095114000951140005F
S2144000909511400095114000951140009511400083
S2144000A09511400095114000951140009511400073
S2144000B09511400095114000951140009511400063
S2144000C095114000951140009511400010B5054C23
S2144000D0237833B9044B13B10448AFF300800123AF
S2144000E0237010BD6C08002000000000142940005A
S2144000F00C4B43B10C480D4910B5AFF300800C488B
S214400100036823B910BD0A48036833B97047094BE2
S214400110002BF7D0BDE810401847064B002BF5D013
S214400120184700BF00000000142940007008002057
S21440013014294000000000002DE9F04180B90C462B
S2144001409046002A0FDD8F18084E094D306821462C
S2144001502B6898470134BC42F8D14046BDE8F08150
S2144001604FF0FF38F9E78046F7E700BF000D002064
S214400170F80C00200138022815D82DE9F0410E462B
S21440018014469AB10D46DFF838800C4FD8F8000078
S21440019015F8011B3B68984700280ADBA81B013C62
S2144001A0F4D1BDE8F0814FF0FF3070471046BDE80F
S2144001B0F0814FF0FF30BDE8F08100BFFC0C00201E
S2144001C0000D0020436913F0020F1DBFC1F3080164
S2144001D0C161002001207047436913F0010F05D02C
S2144001E08369C3F308030B60002070470120704703
S2144001F009014250704700EB01114A60704700EB1E
S21440020001118A60704700EB0111CA60704710B454
S214400210AC2303600B684A68B3FBF2F31B095C1E11
S2144002204FF6FE7294420BD803628B68436040F2EE
S2144002300223C0F8203150230360002010BC7047D2
S2144002400120FBE7436913F0020F1ABFC16100208B
S21440025001207047436913F0010F1DBF83690B707F
S21440026000200120704700000B4B1B78012B02D06A
S214400270022B07D070474FF0C24300221A7022224A
S2144002801A7070474FF0C2432C221A7000221A7020
S2144002903C221A70EEE700BF88080020C0F30742F1
S2144002A0034B1A70C0F307221A70C0B2187070471A
S2144002B0020000612DE9F8430746884631F00709F9
S2144002C023D004460026124D2068A8476068A847F9
S2144002D0A068A847E068A8472069A8476069A8477B
S2144002E0A069A847E069A847083620344E45EBD3B6
S2144002F0464508D207EB8607054D57F8040BA84736
S2144003000136B045F9D1BDE8F8834E46F0E700BF68
S2144003109D0240004FF0C24300221A7018700A0A2D
S21440032002331A70C9B219707047000010B44FF00B
S214400330C24300241C7018704AB14B1E501E51FA1E
S21440034080F1044813F8012F02708B42FAD110BC9A
S214400350704700BF0200006182B000230193019BFA
S214400360984211D90021094A0191019B934205D830
S214400370019B01330193019B9342F9D9019B0133C1
S2144003800193019B8342EFD302B070479F860100E2
S21440039030B4154C24680568A54224BF04F1FF35E7
S2144003A005601568AC429CBF04F1FF3414600F4CE6
S2144003B024680D68A54224BF04F1FF350D601D6812
S2144003C0AC429CBF04F1FF341C6004681568AC4224
S2144003D084BF056014600A681868824284BF08605B
S2144003E01A6030BC704700BF0C0000201000002090
S2144003F082B04FF0C24300221A70D3221A701A49B4
S2144004000B788DF800300B788DF801300B78DAB227
S2144004108DF802200B78DBB28DF8033003EB022315
S2144004209BB249F24132934214D04FF0C24300226D
S2144004301A701A700C490B78DAB28DF800200B78D7
S21440044003EB02239BB249F22532934207D00120A8
S21440045002B070470222054B1A700020F8E70122CE
S214400460024B1A700020F3E7020000618808002063
S21440047008B5094B1B78012B02D0022B06D008BDCD
S21440048040F233110720054B984708BD002211461D
S2144004902920034B9847F2E78808002015034000C0
S2144004A02D034000044A131F02F56F7243F8040FF1
S2144004B09342FBD1704700BF8C0800202DE9F041E5
S2144004C082B00C4617461E46234B1B78012B04D0A1
S2144004D0022B17D002B0BDE8F08185B229465020E5
S2144004E0DFF87C80C047781E284481B25120C04740
S2144004F0A4B221465220C047013E3444A1B2532004
S214400500C047E7E7030A8DF80430C2B28DF80520ED
S2144005107B1E1844000A8DF806001F4617448DF8C7
S214400520077004220DEB02012A200C4DA847230A2F
S2144005308DF80430E2B28DF80520731E1C44240A60
S2144005408DF806401E4616448DF8076004220DEBD3
S21440055002012B20A847BDE7880800202D03400055
S2144005601503400038B5074B1B78012B00D038BD2B
S2144005700C4601462020044DA84721462120A84786
S214400580F5E700BF88080020150340002DE9F0433A
S21440059083B00646AC4B9847002840F05281F02284
S2144005A0AA4B1A604FF4A072A94B1A60A94B1B784D
S2144005B0012B06D0022B00F0B580012003B0BDE829
S2144005C0F08333210720A44CA04700211020A047E9
S2144005D001210020A0474FF480710120A0474FF42E
S2144005E0E0610220A04700210420A04740F20721F6
S2144005F00820A04700210920A04700210A20A04744
S21440060000210C20A04700210D20A04700210F20EC
S214400610A04700211020A04700211120A04700211C
S2144006201220A04700211320A047C8208B4DA84782
S21440063041F290211020A04740F227211120A047E8
S2144006403220A8471B211220A0473220A8474FF44B
S21440065088511320A04719212920A0470D212B207F
S214400660A0473220A84700213020A0474FF4017110
S2144006703120A0474FF400713220A0470721352093
S214400680A04741F204413620A04740F2057137208A
S214400690A04740F205313820A04740F20771392084
S2144006A0A04740F201713C20A0470E213D20A047C4
S2144006B04DF210010320A0474FF427416020A04789
S2144006C001216120A04700216A20A0470021802008
S2144006D0A04700218120A04700218220A04700217A
S2144006E08320A04700218420A04700218520A047E2
S2144006F010219020A0474FF4C0619220A0474FF4AD
S21440070088719520A0477368326800210846544C8B
S214400710A047B068534B984700210846524B98472D
S21440072000204BE739238DF800302C238DF801301C
S21440073000248DF8024034238DF8033002278DF8CC
S214400740047005226946CB20484DA8478DF80040E6
S214400750AA238DF80130B0238DF802300322694673
S214400760CF20A84730238DF8003001226946F72075
S214400770A84725238DF8003001226946C020A847A7
S2144007804FF011098DF8009001226946C120A84714
S2144007905C238DF800304C238DF801303A4669468C
S2144007A0C520A84794238DF8003001226946C7200B
S2144007B0A84785238DF800304FF001088DF801805A
S2144007C078238DF8023003226946E820A8478DF842
S2144007D000408DF801403A466946EA20A84748233B
S2144007E08DF80030424669463620A84706238DF8E5
S2144007F00030424669463A20A8478DF8007082236A
S2144008008DF8013027238DF802308DF803400422FE
S2144008106946B620A8477368326821462046104F7E
S214400820B847B0680F4B9847224669464846A8479F
S2144008300A200A4B9847224669462920A847204660
S214400840BCE60120BAE600BFF10340000C000020E1
S214400850100000208808002015034000590340007F
S214400860BD044000A5044000650540002D0340003F
S214400870164B1B68834224D9154B1B688B4222D9E2
S21440088010B5144B1B78012B03D0022B0DD0002043
S21440089010BD89B280B2104B9847104B9847104B0A
S2144008A01868104B9847002010BD00231A460E4C7F
S2144008B0A0470A4B98470A4B18680A4B98470020AF
S2144008C010BD012070470120704700BF0C0000207B
S2144008D0100000208808002065054000690240009E
S2144008E08C0800209D024000BD0440002DE9F041E8
S2144008F084B003900291019204AA42F8103D134638
S21440090001AA02A903A8224CA04703980299009B7B
S2144009100133019A01325B1A121A1E4CA047BDF8E9
S2144009200810BDF80C001C4B98471C4B9847039A80
S214400930019B9A1A009B03F10108029BA8EB03084F
S21440094002FB0888164BA3FB0823DB0953B15C1E49
S214400950144FF026144D31463846A847013CB4F1B2
S214400960FF3FF8D10E49A1FB0831C909C1EB01117F
S214400970A8EB01110B480C4B98470C4B1B680C4AD4
S214400980126800210846034CA04704B0BDE8F08139
S21440099091034000BD0440006505400069024000E8
S2144009A0898888888C080020B50240001000002006
S2144009B00C0000202DE9F04F83B006468846994249
S2144009C02BD0904229D081460F46121A5B1A002A35
S2144009D0CCBF01214FF0FF310091002BCCBF01204E
S2144009E04FF0FF30019082EAE275A5EBE27583EAAC
S2144009F0E374A4EBE37441463046214B9847A54246
S214400A0022DD4FEA6508002D0BDD009989460E442D
S214400A104FF0010ADFF868B00EE041463046194C08
S214400A20A04703B0BDE8F08F39463046D8470AF1B4
S214400A30010A4E445545F4DBA0444545F4DCA8EB9A
S214400A400508019B1F44EFE76710002CE9DD019B7A
S214400A509B4643441E464FF00108DFF824A007E0BB
S214400A6031464846D04708F101085E444445D8DB45
S214400A702F44BC42F4DC3F1B009B9944F0E700BF88
S214400A8071084000ED084000F0B482B0C0F111009B
S214400A90102828BF1020002808BF01200021104D34
S214400AA04FF40056374618246F630194019B5A1E34
S214400AB00192002BFAD12E630194019B5A1E01929B
S214400AC0002BFAD101318142EED34FF4003301932B
S214400AD0019B5A1E0192002BFAD102B0F0BC70471F
S214400AE000120E4082B04FF40052064B5A634FF449
S214400AF000330193019B5A1E0192002BFAD102B09B
S214400B00704700BF00120E4010B50E480E4B984777
S214400B103E2100200D4B98470D4CA0470028FCD0A6
S214400B200C4B98470C4A0D4B9A620D4CA047002838
S214400B30FCD010200B4B98470B4B98470148024B74
S214400B40984710BD000E270755134000BD104000C3
S214400B501111400021114000013F132000040E40B7
S214400B6031114000591040004512400038B54FF44E
S214400B700042464B5A600B20454CA0470C20A047ED
S214400B800D20A0474FF060511320424CA0474FF035
S214400B9060511420A04740492320A0473F494C209D
S214400BA0A0474FF000624FF4C0613D483D4B984728
S214400BB04FF080510020A0474FF080510820A047BA
S214400BC04FF080515220A0474FF000610C20A047C4
S214400BD04FF000610D20A0474FF000610E20A04767
S214400BE04FF000610B20A0474FF000611520A04752
S214400BF04FF000611620A0474FF040511720A04705
S214400C001720294B9847294D29464020A04729467A
S214400C104120A04729464220A04729464320A047D6
S214400C2029464420A04729464520A0472946462035
S214400C30A04729464720A04729464B20A04729469B
S214400C404820A04729464F20A04729465320A04782
S214400C504FF040514D20A04705F100552946102041
S214400C60A04729461120A0474FF000610C20A0471E
S214400C704FF000610D20A0474FF000610E20A047C6
S214400C804FF000610B20A04738BD00BF50140E4007
S214400C9041114000BD0D4000790000285900002851
S214400CA0000E0E40DD0E4000A10D40000100000881
S214400CB04264B1F1C05F39D013D8B1F1006F25D08E
S214400CC0B1F1805F0AD1036F13430367436F416FEF
S214400CD00B4023EA02034367426070470029FBD17A
S214400CE07047B1F1205F20D009D8B1F1005FF3D151
S214400CF0036F13430367436F13434367ECE7B1F156
S214400D00405F12D0B1F1605F0FD0E5E710B4016FDD
S214400D10046FD34321401C4619400167436F416F1F
S214400D200B4023404367426010BC7047036F016F1F
S214400D300B4023EA02030367436F13434367CBE743
S214400D40416412F0010F14BF4166016612F00A0FAB
S214400D5014BF0162416212F0020F07D112F0080F71
S214400D6018BFC0F88410416101607047C0F8801019
S214400D70F9E710B4019C416444B9016643B101658A
S214400D8042B941630161016010BC70474166F5E7B6
S214400D904165F5E70163F5E7C06C7047806C7047C6
S214400DA0430903F5001303F207735B0200F01F00CC
S214400DB0012202FA00F058637047000070B582B016
S214400DC00D46430903F5001303F207735C0201F076
S214400DD0F043B3F1005F53D00AD8B3F1805F2DD013
S214400DE0B3F1C05F3BD0B3F1006F15D0002023E0D5
S214400DF0B3F1405F55D0B3F1605F52D0B3F1205F9E
S214400E00F4D100F01F0101262A4606FA01F12046D9
S214400E102F4B984730460FE000F01F0001268640D3
S214400E2032464FF0006120462A4B984715F0010F96
S214400E3014BF66662666012002B070BD00F01F0033
S214400E400126864032464FF080512046214B984737
S214400E5015F0010F14BF666626660120ECE700F029
S214400E601F000126864032464FF0C0512046194B9F
S214400E70984715F0010F14BF666626660120DBE72B
S214400E8000F01F000126864032464FF000512046B3
S214400E90104B984715F0010F14BF66662666012072
S214400EA0CAE705F0605200F01F01012605EA060376
S214400EB00093C5F38003B2F1605F14BF00220122A5
S214400EC006FA01F12046044CA0473046B4E700BF7E
S214400ED0410D4000B10C4000730D400070B582B02B
S214400EE005460E46144602F0F043B3F1005F3DD08F
S214400EF00AD8B3F1805F21D0B3F1C05F2AD0B3F1F6
S214400F00006F0ED0002017E0B3F1405F3AD0B3F147
S214400F10605F37D0B3F1205FF4D1234B9847012070
S214400F200AE00A464FF00061204B984714F0010F44
S214400F3014BF6E662E66012002B070BD0A464FF0A2
S214400F4080511A4B984714F0010F14BF6E662E66F8
S214400F500120F1E70A464FF0C051144B984714F071
S214400F60010F14BF6E662E660120E5E70A464FF075
S214400F7000510E4B984714F0010F14BF6E662E6654
S214400F800120D9E704F0605204F001030093C4F353
S214400F908003B2F1605F14BF00220122314628462A
S214400FA0034CA0470120C7E7410D4000B10C40006C
S214400FB0730D40002DE9F84381460F46124B984783
S214400FC005464846114B9847054013D0104C04F14F
S214400FD0600603E0B4420DD010345DB12068B842DC
S214400FE0F8D161682942F5D0E3689847636825EAF6
S214400FF00305EFE7074B1B6823B1074B1B680BB194
S21440100048469847BDE8F883990D40009D0D40003E
S2144010104C0C0020040D0020BC0C002008B50B2111
S2144010200148024B984708BD000E0E40B50F4000E1
S21440103008B50C210148024B984708BD00100E40E9
S214401040B50F400008B50D210148024B984708BD32
S21440105000120E40B50F4000174A136B23F0700382
S21440106018431063936E13F0080F0AD14FF40063D1
S21440107011498A6E12F0080F03D1013BF9D10120C5
S21440108070470D4A136B23F0030343F002031363C8
S214401090936E13F0080F0AD14FF4006306498A6E28
S2144010A012F0080F05D1013BF9D10120704700200E
S2144010B070470020704700BF00040E40C8B9114A70
S2144010C0136A090289B223F45C1323F0030343F442
S2144010D05C1343F001030B431362936E13F0010F4E
S2144010E0FBD0084A136A43F09B7343F48033136281
S2144010F0704704490B6A044A1A40044B13430B6278
S214401100704700BF00040E40FCFFC8FE02003701D7
S214401110024B986E00F48030704700BF00040E40CB
S2144011204FF00052014B9A62704700BF00040E40D9
S214401130024B986E00F00200704700BF00040E405D
S21440114022281ED81F280CD8114B9A6901238340A9
S214401150934318D0012303FA00F00D4B186100208A
S214401160704720380A4BD3F8082101238340934325
S2144011700BD0012303FA00F0054BC3F80001002012
S214401180704701207047002070470020704700BF1E
S21440119000040E40FEE7000008B5214B214A9A4263
S2144011A028D9214B1E4A9A420CD2013B9B1A23F067
S2144011B00303043313441B4951F8040B42F8040B51
S2144011C09A42F9D100BF194B194A9A420AD2013BBA
S2144011D09B1A23F0030304331344002142F8041BF4
S2144011E09A42FBD1134B144A9A60144B9847144BBF
S2144011F09847FEE70A4B0B4A9A42E3D20A4B084806
S214401200181A1146043A02440028DBD0C1F1040102
S21440121052F8040943F8040DCA42F9D1D2E700BF98
S21440122000000020142940006C080020400D0020DB
S2144012306C08002000ED00E000004000F51740007C
S214401240951640003C4B1B6B03F00303032B0ED854
S214401250DFE803F0021C3838384B5B6913F0800F28
S21440126014BF4FF400424FF4FA42354B1A60324BEB
S2144012701B6B03F07003702B55D02F4B1A6B304905
S214401280C2F302120B68D3400B6070472A4B1B6AAE
S21440129013F0807F03D02B4A294B1A60E7E72A4A8F
S2144012A0274B1A60244B1B6A03F07003102B05D0A3
S2144012B0202BDCD1234A224B1A60D8E7234A204B06
S2144012C01A60D4E71C4B1B6A13F0807F18D01D4A67
S2144012D01B4B1A60184B1B6B03F00303022B164A7A
S2144012E007BF916A926AD16AD26A1548C1F30A4129
S2144012F0036801FB0333D2B2B3FBF2F30360B6E7F5
S214401300114A0F4B1A600C4B1B6A03F07003102BEC
S21440131005D0202BDED10B4A094B1A60DAE70B4A80
S214401320074B1A60D6E7064A13680949A1FB031320
S2144013305B081360704700BF00040E4010140E4058
S21440134014000020001BB70000093D0000127A0080
S214401350ABAAAAAA1A4B984214D91A4B984219D942
S214401360194B98421DD9194B984221D9184B98428F
S21440137094BF4FF00423174B174A136002F50072D0
S214401380136070474FF08063134A136002F5007293
S21440139013607047114B104A136002F500721360D9
S2144013A070470F4B0C4A136002F50072136070478B
S2144013B00C4B094A136002F500721360704700BF79
S2144013C0FF2C3101FF596202FF869303FFB3C4042A
S2144013D0FFE0F50500050004000A0E400001000489
S2144013E000020004000300040A4B1B6853B1094B7B
S2144013F01B681A180849914208DB1046054A1060D7
S21440140018467047054A034B1A60F0E74FF0FF3026
S214401410704700BFC00C0020FC7F0220403D0020EB
S2144014204FF0FF3070474FF400534B60002070473A
S21440143000207047F0B583B005460C460023019364
S214401440184B98420AD0184B98420FD0174B9842E8
S21440145014D0174B9D421BD003B0F0BD1F46154E0F
S21440146021463846B0470028FAD1F2E71E46114DCD
S21440147021463046A8470028FAD1EDE71E460E4DD5
S21440148001A93046A8470028FAD1019B2370E3E71C
S2144014901E46094D01A93046A8470028FAD1019BAF
S2144014A02370D9E700060E4000080E400040024078
S2144014B00080024055024000D901400070B50C46FD
S2144014C0184B98420AD0184B984210D0174B984267
S2144014D016D0174B98421CD0002070BD1E46154DA6
S2144014E021463046A8470028FAD1012070BD1E4646
S2144014F0104D21463046A8470028FAD1012070BD3D
S2144015001E460D4D21463046A8470028FAD10120F8
S21440151070BD1E46084D21463046A8470028FAD1E1
S214401520012070BD00060E4000080E4000400240FC
S2144015300080024045024000C50140002DE9F041D0
S2144015400A201E4B98471E4C4FF00232012120467F
S2144015501C4B98471C4A012120461C4B98471C4A66
S214401560012120461B4B98470322012120461A4B57
S21440157098471A4DF0262E604FF4A0776F600024EF
S214401580AC606FF07F48C5F80C80154B98472846EE
S214401590144B98470820144B98474046134B98479F
S2144015A03B46324621462046114DA847114B9847A8
S2144015B021462046104B9847BDE8F0814111400037
S2144015C000000E40F101400004040A0AF701400002
S2144015D00A001600FF01400007024000080D0020E8
S2144015E0E50A40008D054000890A4000A5044000F9
S2144015F0ED08400071044000650540002DE9F041CB
S21440160084B0DFF88C80CDF80480164C23680293B3
S214401610A36803930820144FB847144D01A92846E1
S214401620134EB047134B1D60134A144B1A60144AAE
S214401630144B1A60CDF8048023680293A368039382
S2144016400820B84701A92846B0470F4D2B6800210F
S21440165098680E4CA0472B6800215868A04704B0F5
S214401660BDE8F081180000204111400000060E4001
S2144016700F024000000D0020BD144000FC0C00206E
S21440168035144000F80C002028000020E1184000E7
S214401690000E2707F8B54B4B98474B4B98474B4B9C
S2144016A098470B204A4CA0470C20A0470D20A04747
S2144016B0484B9847484B4FF400221A61C3F8A02085
S2144016C05A634FF480121A61C3F8A0205A63434904
S2144016D00A61C1F8A0200A634FF480325A61C3F809
S2144016E0A0205A66C3F890205A655A62C3F88020F4
S2144016F01A6F22F480321A675A6F22F480325A6781
S2144017004FF480225A61C3F8A0205A66C3F890204E
S2144017105A655A62C3F880201A6F22F480221A67EC
S2144017205A6F22F480225A6700252D4E2D4F1C46B4
S21440173019E0DC23C822B42110462B4DA8470125CA
S2144017402A482B4B9847E36B13F4803F4FF4002313
S2144017500CBF63632363E36B13F4802F4FF40023C3
S21440176014BF636323636FF07F40B047E6231A4697
S214401770AA210846B8470020B047032DE0D801A369
S21440178053F825F03317400095174000A517400042
S214401790B5174000D723B92211461846124DA84720
S2144017A00225CDE7C823B4221946DC200E4DA847B3
S2144017B00325C5E7B9231A46D72108460A4DA84748
S2144017C00025BDE7090B40006D0B40003D1540006D
S2144017D041114000FD154000000E0E4000120E4024
S2144017E0A5044000ED084000B509400037140D0040
S2144017F00100002070B50F4E0F4D761BB61018BF77
S214401800002405D0013455F8043B9847A642F9D148
S2144018100A4E0B4D761B01F06BF8B61018BF00242D
S21440182006D0013455F8043B9847A642F9D170BD1E
S21440183070BD00BFFC284000FC2840000429400042
S214401840FC28400070B4860746D0541E002A41D07B
S214401850CAB2034602E014F1FF343BD303F8012B2F
S2144018609D07F8D1032C2ED9CDB245EA05250F2C7D
S21440187045EA054519D903F110022646103E0F2EBB
S21440188042F8105C42F80C5C42F8085C42F8045C93
S21440189002F11002F2D8A4F1100222F00F0204F076
S2144018A00F041032032C13440DD91E462246043A28
S2144018B0032A46F8045BFAD8221F22F003020432B9
S2144018C0134404F003042CB1C9B21C4403F8011BB2
S2144018D09C42FBD170BC704714460346C2E700BF2B
S2144018E000290CBF022200224FF4806300F000B8AB
S2144018F02DE9F043614C256883B004460F46904678
S2144019001E4615B1AB6B002B64D0B8F1020F06D063
S214401910B8F1010F00F29F80002EC0F29C80636EEB
S214401920D80734D52146284600F05AF9216B41B1F4
S21440193004F14003994202D0284600F04BFA0023B7
S2144019402363B4F90C300022A26162601A063AD4CE
S21440195023F44A6323F00303B8F1020FA3811DD09A
S21440196001AB6A462146284600F04CFBA389184343
S214401970A081002E32D1009E304600F071FB074613
S21440198000286BD0A38943F08003A38128E0A38975
S2144019909905C7D4A06D00F031FBC3E70025616E02
S2144019A0002604F1430243F002030120A660CE075E
S2144019B0A38122602261606101D498053ED5284605
S2144019C003B0BDE8F0832169284600F003FAB4F975
S2144019D00C30BDE7284600F05BF996E7002FCBD0E9
S2144019E0AB6B002B33D0009BB4F90C2027609E4293
S2144019F01CBF42F40062A281B8F1010F04BF42F05E
S214401A000102A28192B212F00803276166610ED0ED
S214401A10D1071AD5656E7642002315F00105A661FA
S214401A20A36009D00025284603B0BDE8F083A36034
S214401A30656E15F00105F5D19305C0D4A06D00F094
S214401A40DFFA284603B0BDE8F083A660F0E72846F4
S214401A5000F01EF9C7E74FF0FF35B0E7DDF800901D
S214401A60B14504D0484600F0FBFA074620B9B4F921
S214401A700C304FF0FF3592E74E4683E728000020B3
S214401A80024B13B1024800F005B870470000000052
S214401A90011D4000002301461A46184600F010BEBD
S214401AA0B1F90C309AB22DE9F0410D461107804647
S214401AB03AD46A6843F40063002AAB816FDDAC6AAF
S214401AC0002C49D000229BB2D8F80060C8F800200D
S214401AD013F4805267D02A6D5F0705D569682B6B73
S214401AE0521A0BB1EB6BD21A0023E9694046A04765
S214401AF0441C3CD0B5F90C302A692A6023F40063B4
S214401B000022AB81DB046A6047D4296BC8F80060CA
S214401B1011B305F14003994202D0404600F05AF90D
S214401B2000202863BDE8F0812E69AEB12C682E6097
S214401B3091070CBF6B690023A41BAB600AE02346E9
S214401B4032466F6AE9694046B8470028A4EB00046D
S214401B50064404DD002CF2DC0020BDE8F081AB89B1
S214401B6043F04003AB814FF0FF30BDE8F081D8F83A
S214401B7000401D2CF3D8194BE340DB4313F0010320
S214401B80EDD1B5F90C206B6022F400632969AB8176
S214401B90DA042960B9D5002CB7D12865B5E7EA6BD9
S214401BA0002A8CDCD8E70123E9694046A047431C5D
S214401BB0024602D0AB89AC6A8EE7D8F80030002BDC
S214401BC0F8D01D2B01D0162B02D1C8F80060C3E711
S214401BD0AB8943F04003AB81BDE8F0810100402073
S214401BE038B50D46044608B1836BBBB1B5F90C0059
S214401BF088B16B6EDB0701D4810517D52046294690
S214401C00FFF74EFF6B6EDA07044602D4AB899B059E
S214401C1007D5204638BD0446204638BD00F038F883
S214401C20E4E7A86D00F0ECF9204638BDA86D00F05A
S214401C30E5F9E3E7014900F0B3B900BFA927400042
S214401C4010B5002304468181C281036043608360EF
S214401C504366036143618361194608225C30FFF79F
S214401C60F1FD07480749084A084B2062E461616273
S214401C70A262E36204F15800BDE8104000F0BAB931
S214401C800D264000312640006D2640008D2640003F
S214401C9010B50446124800F0B1F9A26BD2B904F56B
S214401CA03B731048C4F8E8320321C4F8E022E063EE
S214401CB0C4F8E41260680421FFF7C2FF012209213C
S214401CC0A068FFF7BDFF02221221E068FFF7B8FFC9
S214401CD00123A3630248BDE8104000F091B900BF5D
S214401CE0240D0020351C4000014800F087B900BF95
S214401CF0380D0020014800F083B900BF380D0020A1
S214401D0038B50A4C0A4D641BA4100AD004F180432F
S214401D10013B05EB8305013C55F804399847002CF8
S214401D20F9D1BDE8384000F0EDBD00BF14294000B1
S214401D3010294000F8B5244F0C46064600F048FCF3
S214401D40BB685D68C4F57E610F3125F00305294404
S214401D5021F47F6121F00F01A1F58054B4F5805F36
S214401D6007DB0021304600F03FFCBB682B4498421E
S214401D7004D0304600F032FC0020F8BD61423046C8
S214401D8000F032FC01300DD0104BBA6819682D1B9C
S214401D9045F001053046091B5560196000F01EFCF1
S214401DA00120F8BD0021304600F01EFCBA68831AB8
S214401DB00F2BDEDD064C0549246843F00103001B6B
S214401DC053600860D5E700BF5C040020C40C0020C8
S214401DD064080020002944D02DE9F0410D46804695
S214401DE000F0F6FB55F8047C694927F00103A5F19D
S214401DF00804E2188E685068B24220F003005ED0B5
S214401E00FE0750600BD455F8087CE41B01F1080E21
S214401E10A56875453B446DD0E768EF60BD60151812
S214401E206D68ED073ED543F001026260E350B3F5BE
S214401E30007F17D2DB08581C9A104D6851F8307056
S214401E40A7600123934001EBC0022B43083AE260AF
S214401E504B6041F83040FC604046BDE8F04100F041
S214401E60BDBB70475A0A042A52D89A0902F139076C
S214401E70FF0002F13805C819CA59083890424FD0B9
S214401E80516821F003018B4232D292689042F7D1DA
S214401E90C368A060E3609C60C4604046BDE8F04113
S214401EA000F09CBB95683B4FBD42034440D0D06891
S214401EB0E86043F0010285606260E350B7E7FF07E1
S214401EC0034407D455F8082CA41A1344A068E268C3
S214401ED0C2609060304A126843F0010093426060EE
S214401EE08C60B9D32D4B40461968FFF723FFB3E704
S214401EF01046CDE711184968C90744D49168D2689E
S214401F00CA60034443F0010091606060E350A3E779
S214401F10142A16D802F15C07FF0002F15B05AAE717
S214401F20AA1001234D6893402B434B600346B0E70D
S214401F3043F001024C610C61E560A5606260E350CD
S214401F408AE7542A06D81A0B02F16F07FF0002F1FF
S214401F506E0590E7B2F5AA7F06D8DA0B02F178074D
S214401F60FF0002F1770586E740F25450824206D8D9
S214401F709A0C02F17D07FF0002F17C057BE74FF4E7
S214401F807E777E2577E743F001016160136063E763
S214401F905C0400206404002068080020F40C002044
S214401FA02DE9F84310F538771FD0884606464FF09F
S214401FB000097D68BC68013D11D4A389012B05F159
S214401FC0FF3508D9B4F90E3001332146304602D0E9
S214401FD0C04749EA00096B1C04F16804EDD13F682C
S214401FE0002FE6D14846BDE8F883B9464846BDE8E6
S214401FF0F88300BF704700BF704700BF704700BF00
S214402000704700BF70B50C46B1F90E10002990B06D
S21440201015461E4614DB01AA00F028FC00280FDBFC
S214402020029A02F47042A2F50052B2FA82F25209C3
S2144020304FF480634FF4006032602B6010B070BD88
S214402040A289002312F08000336004D04022184654
S2144020502A6010B070BD4FF480632B6010B070BD26
S214402060024B0146186800F003B800BF2800002065
S2144020702DE9F04F01F10B06162E83B0054640F2CF
S2144020809E8036F0070600F1BD80B14200F2BA806D
S21440209000F09EFAB6F5FC7FC0F09382730A00F01B
S2144020A0B880042B00F27981B30903F1390003F1BB
S2144020B0380EC300BF4F3B44A3F108015C68A14201
S2144020C006D10CE0002A80F2AA80E468A14206D03D
S2144020D0636823F003039A1B0F2AF3DD70463C69BE
S2144020E0DFF8E4E2744500F0AB81636823F0030355
S2144020F09A1B0F2A00F39081002AC7F814E0C7F80D
S21440210010E080F29D80B3F5007F80F06181DB08AF
S21440211003F1010C99107A6857F83C80C4F808809F
S21440212001238B4007EBCC0113430839E1607B6009
S21440213047F83C40C8F80C408210012494409C422A
S21440214000F28B801C4206D120F0030064001C4243
S21440215000F10400FAD007EBC009CC468046DCF814
S2144021600C309C4507D16DE1002A80F27B81DB680C
S2144021709C4500F06781596821F003018A1B0F2AAD
S214402180F2DDD3F80CC0D3F8088000939C1928469B
S21440219046F0010642F001055E60C8F80CC0CCF877
S2144021A008807C613C61C4F80CE0C4F808E06560D7
S2144021B05A5000F013FA009B03F108041EE0102961
S2144021C020D800F005FA102618230220794F3B4409
S2144021D0A3F108025C68944200F03D816368E168C0
S2144021E0A66823F00303234428465A68F16042F069
S2144021F001028E605A6000F0F1F90834204603B0C0
S214402200BDE8F08F00240C2320462B6003B0BDE8C9
S214402210F08F40204FF400734FF03F0E4AE72344C0
S214402220E1685A68A66842F00102F16028468E606E
S2144022305A6000F0D3F90834204603B0BDE8F08F6A
S214402240234428465A6842F001025A6000F0C6F914
S2144022500834204603B0BDE8F08FBC68636823F0BE
S2144022600308B04504D3A8EB06030F2B00F3858084
S214402270DFF85891504BD9F800201B6801323344A0
S21440228004EB080A00F0558103F580530F3323F41E
S2144022907F6B2BF00F0B5946284600F0A5F9411CE2
S2144022A0024600F0FC80824500F2F780434B1968F6
S2144022B05944196000F04D81D9F8000001301BBF29
S2144022C0A2EB0A0A5144C9F80020196012F007012F
S2144022D000F01581C1F10800C1F580510244083173
S2144022E002EB0B09C9F30B09A1EB0909494628463D
S2144022F00193009200F078F9431C9DE80C0000F032
S2144023004381801A484440F001001968BA60494445
S214402310BC425060196017D0B8F10F0F40F2FB80F6
S2144023206068A8F10C0222F0070204EB020E00F0EF
S21440233001004FF0050C10430F2A6060CEF804C031
S214402340CEF808C000F217811D4BBC681A6891424F
S21440235088BF19601B4B1A689142626888BF196033
S21440236022F003029642A2EB060301D80F2B04DCB0
S214402370284600F033F9002440E7A21943F0010351
S21440238046F0010666602846BA60536000F026F9BB
S2144023900834204603B0BDE8F08F142B71D9542B77
S2144023A000F2A380330B03F16F0003F16E0EC300FF
S2144023B080E600BF5C040020F40C0020C40C002023
S2144023C0EC0C0020F00C0020640400206408002080
S2144023D05A0A042A5BD9142A00F2AE8002F15C0144
S2144023E0C9005B3207EB010C7958ACF1080C8C4500
S2144023F000F088804A6822F00302934273D28968CC
S2144024008C45F7D1DCF80C207B68E260C4F808C045
S2144024109460CCF80C408FE6A11946F0010C42F0CF
S2144024200106C4F804C0284679613961C1F80CE059
S214402430C1F808E04E60E25000F0D0F80834DDE61F
S2144024407B6879E608F1010818F0030F0CF1080CD8
S2144024507FF485AE2DE0DC68A34208BF02303FF42F
S2144024603EAEBBE619441C464A68DB6854F8086F23
S21440247042F001024A602846F3609E6000F0AEF8E3
S214402480BCE603F15C0003F15B0EC30012E69A095A
S21440249002F13901C9003832A4E7BC4254D0BC68C6
S2144024A0626822F003025DE759F80839994540F022
S2144024B0868010F0030F00F1FF30F5D17B6823EAE9
S2144024C004037B6064009C423FF6C7AE002C3FF49A
S2144024D0C4AE1C4240467FF43EAE64001C4200F14F
S2144024E00400FAD037E68C468CE7B3F5AA7F15D8B9
S2144024F0F30B03F1780003F1770EC300DAE54FF4EF
S2144025008051EDE67B689210012101FA02F21343F6
S2144025107B60624679E70123536029E740F25452D4
S214402520934222D8B30C03F17D0003F17C0EC30026
S214402530C0E503F1100BAEE6542A29D81A0B02F177
S2144025406F01C9006E324DE7204B19685944196037
S214402550B2E6CAF30B0000287FF4AEAE08EB0B03DE
S214402560BA6843F001035360EEE67F204FF47E7373
S2144025704FF07E0E9EE504F1080128460093FFF7D3
S21440258029FC009B1968DFE601204FF00009BCE6F5
S214402590B2F5AA7F05D8DA0B02F17801C900773286
S2144025A020E740F254518A4205D89A0C02F17D0148
S2144025B0C9007C3216E74FF47E717E2212E77B68B4
S2144025C080E7F00806F1080300E600BFC40C0020D0
S2144025D00148FFF713BD00BF280D00200148FFF754
S2144025E00FBD00BF280D002038B5074C0023054618
S2144025F008462360FEF7F8FE431C00D038BD23682B
S214402600002BFBD02B6038BD3C0D002010B50C468F
S214402610B1F90E1000F054F9002803DB236D034493
S214402620236510BDA38923F48053A38110BD00BF4A
S2144026302DE9F0411646B1F90C201F46D3050C464D
S214402640054607D500220223B1F90E1000F022F904
S214402650B4F90C20B4F90E1022F48052A2813B4605
S21440266032462846BDE8F04100F014B810B50C4696
S214402670B1F90E1000F00EF9A389421C0EBF23F4E8
S214402680805343F480532065A38110BDB1F90E10EA
S21440269000F078B870B50D46084C114606461A4606
S2144026A0284600232360FDF765FD431C00D070BD1F
S2144026B02368002BFBD0336070BD00BF3C0D00206C
S2144026C02DE9F8432C4D0646286898460F46914615
S2144026D0FFF794FC294B1C68D4F84831002B3ED0B9
S2144026E05A681F2A1CDC02F1010E76B103EB820108
S2144026F00124C1F88890D3F8880194402043022EE4
S214402700C3F88801C1F8088123D00232C3F804E038
S214402710286843F82270FFF773FC0020BDE8F88372
S214402720174B0BB34FF4C870FFF79AFC0346D8B16B
S214402730D4F848210260002141600A46C4F84801A6
S2144027404FF0010EC0F88811C0F88C11002EDCD076
S214402750CCE7D3F88C110C43C3F88C41D5E704F58D
S214402760A673C4F84831BBE72868FFF749FC4FF02A
S214402770FF30BDE8F88300BF58040020EC28400036
S2144027806120400038B5074C0023054608462360C4
S214402790FEF746FE431C00D038BD2368002BFBD016
S2144027A02B6038BD3C0D002070B559B105460C462F
S2144027B010B1836B002B3CD0636ED80705D5B4F9B7
S2144027C00C302BB90026304670BDA38999053CD500
S2144027D021462846FFF764F9E36A064633B1E169C5
S2144027E0284698470028B8BF4FF0FF36A3891A06F8
S2144027F022D4216B41B104F14003994202D02846CD
S214402800FFF7E8FA00232363616C21B12846FFF7FF
S214402810E1FA00236364FFF767FA636E0022DB0782
S214402820A2810ED5A06DFFF7E7FBFFF763FA3046AF
S21440283070BDFFF72DFABFE721692846FFF7CAFAB1
S214402840D7E7A06DFFF7DCFBECE7A06DFFF7D6FB04
S214402850B4F90C30002BBBD1666E16F00106B1D130
S214402860A06DFFF7CDFB304670BD00BF38B50B46B8
S214402870074C05461146184600232360FEF7D3FD55
S214402880431C00D038BD2368002BFBD02B6038BDDE
S2144028903C0D002070B50D46084C114606461A46BB
S2144028A0284600232360FEF7C3FD431C00D070BDBE
S2144028B02368002BFBD0336070BD00BF3C0D00206A
S2144028C070B50D46084C114606461A462846002363
S2144028D02360FDF731FC431C00D070BD2368002BFD
S2144028E0FBD0336070BD00BF3C0D002030000020A0
S2144028F0F8B500BFF8BC08BC9E467047811A400039
S214402900F1004000F8B500BFF8BC08BC9E467047D2
S208402910CD00400071
S214402914BFF35F8F0138FBD170470000F000000022
S2144029244001000000093D0080250000C000000072
S21440293400080000000000003000002000000000F6
S214402944000000001C03002084030020EC03002049
S214402954000000000000000000000000000000002E
S214402964000000000000000000000000000000001E
S214402974000000000000000000000000000000000E
S21440298400000000000000000000000000000000FE
S21440299400000000000000000000000000000000EE
S2144029A400000000000000000000000000000000DE
S2144029B400000000000000000000000000000000CE
S2144029C400000000000000000000000000000000BE
S2144029D400000000000000000000000000000000AE
S2144029E4000000000000000001000000000000009D
S2144029F40E33CDAB34126DE6ECDE05000B00000062
S214402A04000000000000000000000000000000007D
S214402A14000000000000000000000000000000006D
S214402A24000000000000000000000000000000005D
S214402A34000000000000000000000000000000004D
S214402D640000000000000000180D002000000000D5
S214402D74000000005C0400205C0400206404002082
S214402D84640400206C0400206C04002074040020BA
S214402D94740400207C0400207C040020840400206A
S214402DA4840400208C0400208C040020940400201A
S214402DB4940400209C0400209C040020A4040020CA
S214402DC4A4040020AC040020AC040020B40400207A
S214402DD4B4040020BC040020BC040020C40400202A
S214402DE4C4040020CC040020CC040020D4040020DA
S214402DF4D4040020DC040020DC040020E40400208A
S214402E04E4040020EC040020EC040020F404002039
S214402E14F4040020FC040020FC04002004050020E8
S214402E24040500200C0500200C0500201405002095
S214402E34140500201C0500201C0500202405002045
S214402E44240500202C0500202C05002034050020F5
S214402E54340500203C0500203C05002044050020A5
S214402E64440500204C0500204C0500205405002055
S214402E74540500205C0500205C0500206405002005
S214402E84640500206C0500206C05002074050020B5
S214402E94740500207C0500207C0500208405002065
S214402EA4840500208C0500208C0500209405002015
S214402EB4940500209C0500209C050020A4050020C5
S214402EC4A4050020AC050020AC050020B405002075
S214402ED4B4050020BC050020BC050020C405002025
S214402EE4C4050020CC050020CC050020D4050020D5
S214402EF4D4050020DC050020DC050020E405002085
S214402F04E4050020EC050020EC050020F405002034
S214402F14F4050020FC050020FC05002004060020E3
S214402F24040600200C0600200C0600201406002090
S214402F34140600201C0600201C0600202406002040
S214402F44240600202C0600202C06002034060020F0
S214402F54340600203C0600203C06002044060020A0
S214402F64440600204C0600204C0600205406002050
S214402F74540600205C0600205C0600206406002000
S214402F84640600206C0600206C06002074060020B0
S214402F94740600207C0600207C0600208406002060
S214402FA4840600208C0600208C0600209406002010
S214402FB4940600209C0600209C060020A4060020C0
S214402FC4A4060020AC060020AC060020B406002070
S214402FD4B4060020BC060020BC060020C406002020
S214402FE4C4060020CC060020CC060020D4060020D0
S214402FF4D4060020DC060020DC060020E406002080
S214403004E4060020EC060020EC060020F40600202F
S214403014F4060020FC060020FC06002004070020DE
S214403024040700200C0700200C070020140700208B
S214403034140700201C0700201C070020240700203B
S214403044240700202C0700202C07002034070020EB
S214403054340700203C0700203C070020440700209B
S214403064440700204C0700204C070020540700204B
S214403074540700205C0700205C07002064070020FB
S214403084640700206C0700206C07002074070020AB
S214403094740700207C0700207C070020840700205B
S2144030A4840700208C0700208C070020940700200B
S2144030B4940700209C0700209C070020A4070020BB
S2144030C4A4070020AC070020AC070020B40700206B
S2144030D4B4070020BC070020BC070020C40700201B
S2144030E4C4070020CC070020CC070020D4070020CB
S2144030F4D4070020DC070020DC070020E40700207B
S214403104E4070020EC070020EC070020F40700202A
S214403114F4070020FC070020FC07002004080020D9
S214403124040800200C0800200C0800201408002086
S214403134140800201C0800201C0800202408002036
S214403144240800202C0800202C08002034080020E6
S214403154340800203C0800203C0800204408002096
S214403164440800204C0800204C0800205408002046
S21040317454080020FFFFFFFF0000020090
S80440119911
