S010000070726F6A65746F332E73726563DE
S214400000E0340020A90B4000A50B4000A50B4000A3
S214400010A50B4000A50B4000A50B400000000000CB
S214400020000000000000000000000000A50B40009B
S214400030A50B400000000000A50B4000A50B4000AB
S214400040A50B4000A50B4000A50B4000A50B4000AB
S214400050A50B4000A50B4000A50B4000A50B40009B
S214400060A50B4000A50B4000000000000D07400017
S2144000702107400035074000A50B4000A50B400077
S2144000800000000000000000A50B4000A50B40004B
S214400090A50B4000A50B4000A50B4000A50B40005B
S2144000A0A50B4000A50B4000A50B4000A50B40004B
S2144000B0A50B4000A50B4000A50B4000A50B40003B
S2144000C0A50B4000A50B4000A50B400010B5054C05
S2144000D0237833B9044B13B10448AFF300800123AF
S2144000E0237010BD40040020000000004410400073
S2144000F0084B10B51BB108490848AFF300800848C4
S214400100036803B910BD074B002BFBD0BDE8104079
S214400110184700BF00000000440400204410400080
S214400120441040000000000010B50E480E4B9847A3
S2144001303E2100200D4B98470D4CA0470028FCD090
S2144001400C4B98470C4A0D4B9A620D4CA047002822
S214400150FCD010200B4B98470B4B98470148024B5E
S214400160984710BD000E27076D0D4000B1074000B0
S2144001700508400015084000013F132000040E40CB
S2144001802508400049074000590C400038B54FF458
S2144001900042464B5A600B20454CA0470C20A047D7
S2144001A00D20A0474FF060511320424CA0474FF01F
S2144001B060511420A04740492320A0473F494C2087
S2144001C0A0474FF000624FF4C0613D483D4B984712
S2144001D04FF080510020A0474FF080510820A047A4
S2144001E04FF080515220A0474FF000610C20A047AE
S2144001F04FF000610D20A0474FF000610E20A04751
S2144002004FF000610B20A0474FF000611520A0473B
S2144002104FF000611620A0474FF040511720A047EE
S2144002201720294B9847294D29464020A047294664
S2144002304120A04729464220A04729464320A047C0
S21440024029464420A04729464520A047294646201F
S214400250A04729464720A04729464B20A047294685
S2144002604820A04729464F20A04729465320A0476C
S2144002704FF040514D20A04705F10055294610202B
S214400280A04729461120A0474FF000610C20A04708
S2144002904FF000610D20A0474FF000610E20A047B0
S2144002A04FF000610B20A04738BD00BF50140E40F1
S2144002B041084000390440007900002859000028D1
S2144002C0000E0E405D054000F903400001000008A6
S2144002D04264B1F1C05F2FD007D8B1F1006F14D09F
S2144002E0B1F1805F1ED039B97047B1F1205F36D08A
S2144002F004D8B1F1005F29D042607047B1F1405F49
S2144003002DD0B1F1605F2AD0F6E710B4046F016FCC
S214400310D343214019400167446F416F21400B4051
S21440032043671AE0036F13430367416F436F0B4005
S21440033023EA02034367DFE7016F036F0B4023EABC
S21440034002030367436F13434367D5E7036F1343C3
S2144003500367436F13434367CEE7426010BC704762
S214400360416412F0010F14BF4166016612F00A0F95
S21440037014BF0162416212F0020F02D0C0F8801032
S21440038004E012F0080F18BFC0F884104161016005
S214400390704700BF10B44164019C0CB1416600E058
S2144003A001660BB1016500E041650AB1016300E0FA
S2144003B041630161016010BC704700BF12F0100F2E
S2144003C010D0C0F8B01012F0200F14BFC0F8D410F0
S2144003D0C0F8D01012F0400F14BFC0F8C010C0F8DC
S2144003E0C4107047C0F8B410704700BF016470472F
S2144003F0C06C7047806C7047430903F5001303F2E6
S21440040007735B0200F01F00012202FA00F05863F7
S214400410704700BF430903F5001303F207735B02FE
S214400420996B00F01F00012202FA00F0014214BF4F
S21440043058631863704700BF70B582B00D464309D5
S21440044003F5001303F207735C0201F0F043B3F1C7
S214400450005F47D009D8B3F1805F21D0B3F1C05FC9
S2144004602FD0B3F1006F6FD109E0B3F1405F55D0A4
S214400470B3F1605F52D0B3F1205F44D064E000F047
S2144004801F000126864032464FF000612046304B22
S214400490984715F0010F14BF66662666012054E0A3
S2144004A000F01F000126864032464FF0805120461D
S2144004B0274B984715F0010F14BF66662666012045
S2144004C043E000F01F000126864032464FF0C05100
S2144004D020461F4B984715F0010F14BF66662666E8
S2144004E0012032E000F01F000126864032464FF0E1
S2144004F000512046164B984715F0010F14BF66660C
S2144005002666012021E000F01F0101262A4606FA51
S21440051001F120460F4B9847304616E005F06052F2
S21440052000F01F01012605EA06030093C5F3800389
S214400530B2F1605F14BF0022012206FA01F12046A4
S214400540054CA047304600E0002002B070BD00BF1A
S214400550D1024000610340009503400070B582B070
S21440056005460E46144602F0F043B3F1005F38D01D
S21440057009D8B3F1805F1CD0B3F1C05F25D0B3F18A
S214400580006F50D109E0B3F1405F3AD0B3F1605FFD
S21440059037D0B3F1205F30D045E00A464FF00061D7
S2144005A0224B984714F0010F14BF6E662E6601204A
S2144005B03AE00A464FF080511C4B984714F0010F22
S2144005C014BF6E662E6601202EE00A464FF0C051DC
S2144005D0164B984714F0010F14BF6E662E66012026
S2144005E022E00A464FF00051104B984714F0010F96
S2144005F014BF6E662E66012016E00D4B984701200C
S21440060012E004F0605204F001030093C4F3800348
S214400610B2F1605F14BF0022012231462846054CE5
S214400620A047012000E0002002B070BDD10240008B
S21440063061034000950340002DE9F8438146884613
S214400640124B984705464846114B9847054013D0ED
S214400650104C04F160062368434508D1616829427E
S21440066005D0E36840469847636825EA0305B442E8
S21440067002D01034002DEED1074B1B6823B1074B38
S2144006801B680BB148469847BDE8F883F103400025
S214400690F503400064040020DC04002060040020D1
S2144006A0F8B5174C2668062E28D84FF0000C64463E
S2144006B0144FA64625017D598D4204D107EB0415FB
S2144006C06D68954204D00134E4B2A446A642F0D206
S2144006D00C4D4FEA0E1E05EB0E0445F80E106260F8
S2144006E0A3600699E1600136664504BF04490E6082
S2144006F011461A46044B98470020F8BD0120F8BD25
S2144007005C04002064040020BD03400008B50B21B3
S2144007100148024B984708BD000E0E40390640007F
S21440072008B50C210148024B984708BD00100E4002
S2144007303906400008B50D210148024B984708BDD0
S21440074000120E4039064000184A136B23F070031F
S21440075018431063936E13F0080F03D009E0013B73
S21440076003D11EE04FF4006310498A6E12F0080F62
S214400770F5D00E4A136B23F0030343F002031363D2
S214400780906E10F0080004D000207047013B03D163
S21440079009E04FF4006305498A6E12F0080FF5D061
S2144007A07047012070470120704700BF00040E408C
S2144007B038B111490B6A114A1A40114B13430B6268
S2144007C070470D48026A090289B222F45C1323F08E
S2144007D0030343F45C1343F001030B4303620246F6
S2144007E0936E13F0010FFBD0034A136A43F09B73DA
S2144007F043F480331362704700040E40FCFFC8FE8B
S21440080002003701024B986E00F48030704700BFFC
S21440081000040E404FF00052014B9A62704700BFF2
S21440082000040E40024B986E00F00200704700BF76
S21440083000040E400022014BDA62704700040E406E
S21440084022281ED81F280CD8114B9A6901238340B2
S214400850934318D0012303FA00F00D4B1861002093
S214400860704720380A4BD3F808210123834093432E
S2144008700BD0012303FA00F0054BC3F8000100201B
S214400880704701207047002070470020704700BF27
S21440089000040E40014B1860704700BF1000002057
S2144008A0114A136F23F4C001104B1B680B431367A8
S2144008B0136A43F45C1343F004031362936E13F01D
S2144008C0080FFBD04FF4FA7300BF013BFCD1064A39
S2144008D0136A13F0080FFBD0034A136F23F4C003C8
S2144008E043F480031367704700040E401000002056
S2144008F02DE9F84F431E042B00F23481DFE813F055
S21440090005000500130013002301974A136923F0DE
S214400910040313610122954B1A70BFF35F8F62B6D2
S21440092030BFBDE8F88F044603280CBF00204FF4C4
S21440093000108F4B984772B6BFF35F8F00228B4BE9
S2144009401A7001228B4B1A708B4BD3F820801D6B8C
S2144009508A4AD2F800A002F50072D2F800909F6A48
S214400960D3F82CB048F45C1242F008021A6205F044
S2144009700306012E0AD925F0030141F0010119634F
S2144009801A46936E13F0080FFBD000E0294611F08C
S214400990700F08D021F07001774B19631A46936E9A
S2144009A013F0080FFBD0764B9847764B9847724A21
S2144009B0936E13F4003FFBD06F4A136A23F09B7389
S2144009C023F4803343F45C131362936E13F4803F36
S2144009D0FBD02AF47063694A136029F4706302F509
S2144009E000721360042C09D1A2F50062136A23F446
S2144009F05C1323F0010343F45C1313625B4C012346
S214400A002370BFF35F8F62B65F4B984772B6BFF3F3
S214400A105F8F0023237018F0020F0FD0564A136AD8
S214400A205A4919405A4B0B431362136A23F45C131A
S214400A3023F0780343F45C1313622FE018F0010FA1
S214400A402CD04D4B1B6A13F0010F0ED14A4A136A45
S214400A5023F45C1323F0030343F45C1343F00103D5
S214400A601362936E13F0010FFBD0434B1B6A13F0D7
S214400A70807F0AD1404A136A43F09B7343F4803325
S214400A801362936E13F4803FFBD03B4A136A23F401
S214400A905C1323F0780343F45C1313623D4B3B40F6
S214400AA02BB147F00057344B9F62022200E00022F1
S214400AB0384B0BEA030323B12F4BC3F82CB042F05C
S214400AC00402022E02D0032E06D00AE02A498B6E7C
S214400AD013F0020FFBD004E027498B6E13F0040F8F
S214400AE0FBD02548036B23F0700105F070030B43E1
S214400AF0036301468B6E13F0080FFBD01F4BC3F801
S214400B0000A003F50073C3F80090A3F500631D63CF
S214400B1019468B6E13F0080FFBD017498B6E1342A5
S214400B20FCD00022134B1A701B4B1B681BB1984716
S214400B300022194B1A6001220C4B1A70BFF35F8FCC
S214400B4062B6BDE8F88F084A136943F004031361A0
S214400B50124A134B1A600122044B1A70BFF35F8F80
S214400B6062B630BFBDE8F88F00ED00E00C00002014
S214400B7095084000D804002000040E40000A0E40AD
S214400B801508400035084000A1084000FCFFC8FE9C
S214400B90020037010000FF07D4040020040000A52F
S214400BA010140E40FEE700BF08B5204B204A9A427C
S214400BB012D9204B1D4A9A421ED21146013B9B1A1F
S214400BC023F0030304331A4A134452F8040B41F843
S214400BD0040B9A42F9D10FE0144B154A9A420BD2B5
S214400BE0144B124A9A1A144811182AB151F804297B
S214400BF043F8042D8142F9D100BF104B104A9A4267
S214400C000BD2131D0F4AD21A22F003021A44043B99
S214400C10002143F8041B9A42FBD10B4B0B4A9A60C7
S214400C200B4B98470B4B9847FEE700BF0000002051
S214400C30441040004004002040104000E0040020E3
S214400C4040040020E304002000ED00E000004000E7
S214400C50DD0E4000710E40003D4B1B6B03F003035E
S214400C60032B5DD8DFE803F0020E2B2B394B5B6974
S214400C7013F0800F14BF4FF400424FF4FA42364B45
S214400C801A604DE0324B1B6A13F0807F03D0334A24
S214400C90314B1A6044E0324A2F4B1A602C4B1B6A89
S214400CA003F07003102B02D0202B04D038E02D4ADE
S214400CB0294B1A6034E0294A274B1A6030E0244B0F
S214400CC01B6A13F0807F03D0244A234B1A6012E03D
S214400CD0234A214B1A601E4B1B6A03F07003102BED
S214400CE002D0202B04D006E01E4A1B4B1A6002E0BE
S214400CF01A4A194B1A60164B1B6B03F00303022B60
S214400D00134A07BF936A926AD36AD26A1248C3F3F9
S214400D100A41036801FB0333D2B2B3FBF2F303602C
S214400D200B4B1B6B03F07003702B07D10A4A1368FA
S214400D300D49A1FB03135B0813607047044B1B6B04
S214400D400549C3F302120B68D3400B60704700BFDF
S214400D5000040E4010140E4014000020001BB70084
S214400D6000093D0000127A00ABAAAAAA1A4B984284
S214400D7007D84FF08063194A136002F5007213607B
S214400D807047174B984206D8164B144A136002F524
S214400D90007213607047144B984206D8134B0F4AA4
S214400DA0136002F5007213607047114B984206D8E4
S214400DB0104B0A4A136002F50072136070470E4BE0
S214400DC0984294BF4FF004230C4B044A136002F53C
S214400DD000721360704700BFFF2C3101000A0E40BE
S214400DE0FF59620200010004FF86930300020004DC
S214400DF0FFB3C40400030004FFE0F505000500044B
S214400E0008B51320024B98470248034B984708BD45
S214400E101504400025CA82000100002030B583B08A
S214400E200D4C0922082120460C4B98470C4B00934A
S214400E30702308220C2120460A4DA8470821204648
S214400E40094B9847094BF02283F80C234FF4805205
S214400E501A6003B030BD00BF00100E406103400072
S214400E60010E4000A1064000ED03400000E100E016
S214400E7008B5114B9847114B98470B20104CA0478C
S214400E800C20A0470D20A0470E4B98470E4B4FF422
S214400E9080121A61C3F8A0204FF400221A61C3F8EA
S214400EA0A0200A4E0A4D0B4C1420B0472846A047B7
S214400EB00220094B9847F7E7290140008D01400082
S214400EC0410840001D0E4000000E0E401504400034
S214400ED0A53C270001000020F108400070B50F4EE9
S214400EE00F4D761BB61018BF002405D0013455F8B8
S214400EF0043B9847A642F9D10A4E0B4D761B00F0AC
S214400F008FF8B61018BF002406D0013455F8043BBD
S214400F109847A642F9D170BD70BD00BF2C10400066
S214400F202C104000341040002C104000024B13B1EF
S214400F30024800F005B87047000000004D0F400022
S214400F40002301461A46184600F014B838B5074D37
S214400F50074C2C1BA41005D0013C55F8043D98477F
S214400F60002CF9D1BDE8384000F064B84410400089
S214400F70401040002DE9F047254C2568D5F84841FB
S214400F800646884692469946C4B360681F2817DCD2
S214400F90431C76B104EB80050122C5F888A0D4F83E
S214400FA0881182401143022EC4F88811C5F8089172
S214400FB01ED00230636044F820800020BDE8F087F1
S214400FC0144B03B34FF4C870AFF300800446D0B15F
S214400FD0D5F84831002780E88800C5F848413846AB
S214400FE00123C4F88871C4F88C71002EE1D0D1E793
S214400FF0D4F88C110A43C4F88C21DAE705F5A674B8
S214401000C5F84841C1E74FF0FF30BDE8F08700BF64
S2144010101C104000000000004300000018000020A4
S214401020F8B500BFF8BC08BC9E4670472D0F400080
S214401030F1004000F8B500BFF8BC08BC9E467047BB
S208401040CD0040005A
S214401044BFF35F8F0138FBD1704700BF010000003B
S2144010540000200000093D000000000004030020BA
S2144010646C030020D40300200000000000000000B1
S2144010740000000000000000000000000000000027
S21440108400000000000000000000000018104000AF
S2144010940000000000000000000000000000000007
S2144010A400000000000000000000000000000000F7
S2144010B400000000000000000000000000000000E7
S2144010C400000000000000000000000000000000D7
S2144010D400000000000000000000000000000000C7
S2144010E400000000000000000000000000000000B7
S2144010F400000000000000000000000000000000A7
S21440110401000000000000000E33CDAB34126DE643
S214401114ECDE05000B0000000000000000000000AC
S2144011240000000000000000000000000000000076
S2144011340000000000000000000000000000000066
S2144011440000000000000000000000000000000056
S2144011540000000000000000000000000000000046
S804400BA907
