S010000070726F6A65746F322E73726563DF
S21440000068390020D9084000D5084000D50840008F
S214400010D5084000D5084000D50840000000000044
S214400020000000000000000000000000D50840006E
S214400030D508400000000000D5084000D508400024
S214400040D5084000D5084000D5084000D5084000F7
S214400050D5084000D5084000D5084000D5084000E7
S214400060D5084000D5084000000000005D0740006D
S2144000707107400085074000D5084000D50840007D
S2144000800000000000000000D5084000D5084000F1
S214400090D5084000D5084000D5084000D5084000A7
S2144000A0D5084000D5084000D5084000D508400097
S2144000B0D5084000D5084000D5084000D508400087
S2144000C0D5084000D5084000D508400010B5054C7E
S2144000D0237833B9044B13B10448AFF300800123AF
S2144000E0237010BD6408002000000000F02D400082
S2144000F00C4B43B10C480D4910B5AFF300800C488B
S214400100036823B910BD0A48036833B97047094BE2
S214400110002BF7D0BDE810401847064B002BF5D013
S214400120184700BF00000000F02D4000680800207F
S214400130F02D4000000000002DE9F04180B90C464B
S2144001409046002A0FDD8F18084E094D306821462C
S2144001502B6898470134BC42F8D14046BDE8F08150
S2144001604FF0FF38F9E78046F7E700BF3409002034
S2144001702C090020436913F0020F1DBFC1F308018C
S214400180C161002001207047436913F0010F05D07C
S2144001908369C3F308030B60002070470120704753
S2144001A00138022815D82DE9F0410E4614469AB17A
S2144001B00D46DFF838800C4FD8F8000015F8011BC4
S2144001C03B68984700280ADBA81B013CF4D1BDE8F1
S2144001D0F0814FF0FF3070471046BDE8F0814FF099
S2144001E0FF30BDE8F08100BF300900203409002010
S2144001F010B4AC2303600B684A68B3FBF2F31B09E8
S2144002005C1E4FF6FE7294420BD803628B684360C6
S21440021040F20223C0F8203150230360002010BC77
S21440022070470120FBE7436913F0020F1ABFC16114
S214400230002001207047436913F0010F1DBF8369FA
S2144002400B7000200120704710B50E480E4B9847A3
S2144002503E2100200D4B98470D4CA0470028FCD06F
S2144002600C4B98470C4A0D4B9A620D4CA047002801
S214400270FCD010200B4B98470B4B98470148024B3D
S214400280984710BD000E2707950A4000FD0740001E
S2144002905108400061084000013F132000040E4012
S2144002A071084000990740008509400038B54FF472
S2144002B00042464B5A600B20454CA0470C20A047B6
S2144002C00D20A0474FF060511320424CA0474FF0FE
S2144002D060511420A04740492320A0473F494C2066
S2144002E0A0474FF000624FF4C0613D483D4B9847F1
S2144002F04FF080510020A0474FF080510820A04783
S2144003004FF080515220A0474FF000610C20A0478C
S2144003104FF000610D20A0474FF000610E20A0472F
S2144003204FF000610B20A0474FF000611520A0471A
S2144003304FF000611620A0474FF040511720A047CD
S2144003401720294B9847294D29464020A047294643
S2144003504120A04729464220A04729464320A0479F
S21440036029464420A04729464520A04729464620FE
S214400370A04729464720A04729464B20A047294664
S2144003804820A04729464F20A04729465320A0474B
S2144003904FF040514D20A04705F10055294610200A
S2144003A0A04729461120A0474FF000610C20A047E7
S2144003B04FF000610D20A0474FF000610E20A0478F
S2144003C04FF000610B20A04738BD00BF50140E40D0
S2144003D081084000FD0440007900002859000028AC
S2144003E0000E0E401D064000E104400001000008DB
S2144003F04264B1F1C05F39D013D8B1F1006F25D057
S214400400B1F1805F0AD1036F13430367436F416FB7
S2144004100B4023EA02034367426070470029FBD142
S2144004207047B1F1205F20D009D8B1F1005FF3D119
S214400430036F13430367436F13434367ECE7B1F11E
S214400440405F12D0B1F1605F0FD0E5E710B4016FA6
S214400450046FD34321401C4619400167436F416FE8
S2144004600B4023404367426010BC7047036F016FE8
S2144004700B4023EA02030367436F13434367CBE70C
S214400480416412F0010F14BF4166016612F00A0F74
S21440049014BF0162416212F0020F07D112F0080F3A
S2144004A018BFC0F88410416101607047C0F88010E2
S2144004B0F9E710B4019C416444B9016643B1016553
S2144004C042B941630161016010BC70474166F5E77F
S2144004D04165F5E70163F5E7C06C7047806C70478F
S2144004E0430903F5001303F207735B0200F01F0095
S2144004F0012202FA00F058637047000070B582B0DF
S2144005000D46430903F5001303F207735C0201F03E
S214400510F043B3F1005F53D00AD8B3F1805F2DD0DB
S214400520B3F1C05F3BD0B3F1006F15D0002023E09D
S214400530B3F1405F55D0B3F1605F52D0B3F1205F66
S214400540F4D100F01F0101262A4606FA01F12046A2
S2144005502F4B984730460FE000F01F00012686409C
S21440056032464FF0006120462A4B984715F0010F5F
S21440057014BF66662666012002B070BD00F01F00FC
S2144005800126864032464FF080512046214B984700
S21440059015F0010F14BF666626660120ECE700F0F2
S2144005A01F000126864032464FF0C0512046194B68
S2144005B0984715F0010F14BF666626660120DBE7F4
S2144005C000F01F000126864032464FF0005120467C
S2144005D0104B984715F0010F14BF6666266601203B
S2144005E0CAE705F0605200F01F01012605EA06033F
S2144005F00093C5F38003B2F1605F14BF002201226E
S21440060006FA01F12046044CA0473046B4E700BF46
S21440061081044000F1034000B304400070B582B04E
S21440062005460E46144602F0F043B3F1005F3DD057
S2144006300AD8B3F1805F21D0B3F1C05F2AD0B3F1BE
S214400640006F0ED0002017E0B3F1405F3AD0B3F110
S214400650605F37D0B3F1205FF4D1234B9847012039
S2144006600AE00A464FF00061204B984714F0010F0D
S21440067014BF6E662E66012002B070BD0A464FF06B
S21440068080511A4B984714F0010F14BF6E662E66C1
S2144006900120F1E70A464FF0C051144B984714F03A
S2144006A0010F14BF6E662E660120E5E70A464FF03E
S2144006B000510E4B984714F0010F14BF6E662E661D
S2144006C00120D9E704F0605204F001030093C4F31C
S2144006D08003B2F1605F14BF0022012231462846F3
S2144006E0034CA0470120C7E781044000F1034000C7
S2144006F0B30440002DE9F84381460F46124B984715
S21440070005464846114B9847054013D0104C04F117
S214400710600603E0B4420DD010345DB12068B842A4
S214400720F8D161682942F5D0E3689847636825EABE
S2144007300305EFE7074B1B6823B1074B1B680BB15C
S21440074048469847BDE8F883D9044000DD04400099
S2144007508008002038090020F008002008B50B214A
S2144007600148024B984708BD000E0E40F506400073
S21440077008B50C210148024B984708BD00100E40B2
S214400780F506400008B50D210148024B984708BDC4
S21440079000120E40F5064000174A136B23F0700314
S2144007A018431063936E13F0080F0AD14FF400639A
S2144007B011498A6E12F0080F03D1013BF9D101208E
S2144007C070470D4A136B23F0030343F00203136391
S2144007D0936E13F0080F0AD14FF4006306498A6EF1
S2144007E012F0080F05D1013BF9D1012070470020D7
S2144007F070470020704700BF00040E40C8B9114A39
S214400800136A090289B223F45C1323F0030343F40A
S2144008105C1343F001030B431362936E13F0010F16
S214400820FBD0084A136A43F09B7343F48033136249
S214400830704704490B6A044A1A40044B13430B6240
S214400840704700BF00040E40FCFFC8FE02003701A0
S214400850024B986E00F48030704700BF00040E4094
S2144008604FF00052014B9A62704700BF00040E40A2
S214400870024B986E00F00200704700BF00040E4026
S21440088022281ED81F280CD8114B9A690123834072
S214400890934318D0012303FA00F00D4B1861002053
S2144008A0704720380A4BD3F80821012383409343EE
S2144008B00BD0012303FA00F0054BC3F800010020DB
S2144008C0704701207047002070470020704700BFE7
S2144008D000040E40FEE7000008B5214B214A9A422C
S2144008E028D9214B1E4A9A420CD2013B9B1A23F030
S2144008F00303043313441B4951F8040B42F8040B1A
S2144009009A42F9D100BF194B194A9A420AD2013B82
S2144009109B1A23F0030304331344002142F8041BBC
S2144009209A42FBD1134B144A9A60144B9847144B87
S2144009309847FEE70A4B0B4A9A42E3D20A4B0848CE
S214400940181A1146043A02440028DBD0C1F10401CB
S21440095052F8040943F8040DCA42F9D1D2E700BF61
S21440096000000020F02D40006408002064090020AC
S2144009706408002000ED00E000004000ED0E40005E
S2144009805D0D40003C4B1B6B03F00303032B0ED85E
S214400990DFE803F0021C3838384B5B6913F0800FF1
S2144009A014BF4FF400424FF4FA42354B1A60324BB4
S2144009B01B6B03F07003702B55D02F4B1A6B3049CE
S2144009C0C2F302120B68D3400B6070472A4B1B6A77
S2144009D013F0807F03D02B4A294B1A60E7E72A4A58
S2144009E0274B1A60244B1B6A03F07003102B05D06C
S2144009F0202BDCD1234A224B1A60D8E7234A204BCF
S214400A001A60D4E71C4B1B6A13F0807F18D01D4A2F
S214400A101B4B1A60184B1B6B03F00303022B164A42
S214400A2007BF916A926AD16AD26A1548C1F30A41F1
S214400A30036801FB0333D2B2B3FBF2F30360B6E7BD
S214400A40114A0F4B1A600C4B1B6A03F07003102BB5
S214400A5005D0202BDED10B4A094B1A60DAE70B4A49
S214400A60074B1A60D6E7064A13680949A1FB0313E9
S214400A705B081360704700BF00040E4010140E4021
S214400A800C000020001BB70000093D0000127A0051
S214400A90ABAAAAAA1A4B984214D91A4B984219D90B
S214400AA0194B98421DD9194B984221D9184B984258
S214400AB094BF4FF00423174B174A136002F5007299
S214400AC0136070474FF08063134A136002F500725C
S214400AD013607047114B104A136002F500721360A2
S214400AE070470F4B0C4A136002F500721360704754
S214400AF00C4B094A136002F500721360704700BF42
S214400B00FF2C3101FF596202FF869303FFB3C404F2
S214400B10FFE0F50500050004000A0E400001000451
S214400B2000020004000300040A4B1B6853B1094B43
S214400B301B681A180849914208DB1046054A10609F
S214400B4018467047054A034B1A60F0E74FF0FF30EF
S214400B50704700BFF4080020FC7F02206839002060
S214400B604FF0FF3070474FF400534B600020704703
S214400B700120704700207047F0B583B005460C460C
S214400B8000230193184B98420AD0184B98420FD036
S214400B90174B984214D0174B9D421BD003B0F0BD64
S214400BA01F46154E21463846B0470028FAD1F2E790
S214400BB01E46114D21463046A8470028FAD1EDE79B
S214400BC01E460E4D01A93046A8470028FAD1019B83
S214400BD02370E3E71E46094D01A93046A847002882
S214400BE0FAD1019B2370D9E700060E4000080E405C
S214400BF00040024000800240370240008901400029
S214400C0070B50C46184B98420AD0184B984210D0F4
S214400C10174B984216D0174B98421CD0002070BDF8
S214400C201E46154D21463046A8470028FAD10120D9
S214400C3070BD1E46104D21463046A8470028FAD1C2
S214400C40012070BD1E460D4D21463046A84700285F
S214400C50FAD1012070BD1E46084D21463046A847B1
S214400C600028FAD1012070BD00060E4000080E4054
S214400C7000400240008002402702400075014000CC
S214400C802DE9F04184B0DFF88C80CDF80480164C16
S214400C9023680293A36803930820144FB847144D63
S214400CA001A92846134EB047134B1D60134A144BF8
S214400CB01A60144A144B1A60CDF8048023680293D5
S214400CC0A36803930820B84701A92846B0470F4DAC
S214400CD02B68002198680E4CA0472B680021586866
S214400CE0A04704B0BDE8F081100000208108400015
S214400CF000060E40F101400034090020010C40007F
S214400D0030090020790B40002C09002020000020EC
S214400D10B9104000000E270738B554280FD04309B5
S214400D2003F5001303F207735C0200F01F00012571
S214400D30854065630648074B9847256338BD064C93
S214400D404FF4801525630248024B9847656338BDCB
S214400D504A3B05000100002000120E402DE9F84FE6
S214400D60544B9847544B98470B20544CA0470C2064
S214400D70A0470D20A047524B9847524A4FF40023B5
S214400D801361C2F8A0304FF480131361C2F8A0304C
S214400D9002F580621361C2F8A030DFF848A1DFF8A0
S214400DA024B108E04168484B9847C0B210E04FF481
S214400DB08013464A1363DAF8000042685368013BE2
S214400DC05360002BEEDB42681368591C116018789C
S214400DD06138122869D801A353F820F0AF0D4000BF
S214400DE0AB0E4000AB0E4000330E4000AB0E400052
S214400DF03D0E4000470E4000510E4000AB0E4000F6
S214400E00AB0E4000AB0E4000AB0E4000AB0E4000B9
S214400E10AB0E4000AB0E4000AB0E40005B0E4000F9
S214400E20AB0E4000290E40004FF40023CBF8343080
S214400E30C1E74FF48013CBF83430BCE74FF480134F
S214400E40224A5363B7E74FF40023CBF83030B2E77B
S214400E504FF48013CBF83030ADE74FF005095427F8
S214400E601B4D1C4E3846A84730461B4CA0473846BC
S214400E70A8473046A0473846A8473046A047384699
S214400E80A8473046A0471320A847DFF85C80404676
S214400E90A0471420A8474046A0471320A8474046EE
S214400EA0A047B9F10109DDD185E70C480C4B9847BE
S214400EB081E700BF49024000AD0240008108400083
S214400EC0810C4000000E0E408510400000120E407F
S214400ED0190D40004A3B050001000020B82D400097
S214400EE075104000200000206E281A0070B50F4E86
S214400EF00F4D761BB61018BF002405D0013455F8A8
S214400F00043B9847A642F9D10A4E0B4D761B01F09A
S214400F105DFFB61018BF002406D0013455F8043BD8
S214400F209847A642F9D170BD70BD00BFD82D40008D
S214400F30D82D4000E02D4000D82D400070B48607E4
S214400F4046D0541E002A41D0CAB2034602E014F1ED
S214400F50FF343BD303F8012B9D07F8D1032C2ED941
S214400F60CDB245EA05250F2C45EA054519D903F1CA
S214400F7010022646103E0F2E42F8105C42F80C5CDB
S214400F8042F8085C42F8045C02F11002F2D8A4F180
S214400F90100222F00F0204F00F041032032C134408
S214400FA00DD91E462246043A032A46F8045BFAD870
S214400FB0221F22F003020432134404F003042CB12F
S214400FC0C9B21C4403F8011B9C42FBD170BC70475D
S214400FD014460346C2E700BFF0B5054689B008464A
S214400FE00C4600F04DF9AB6B214F04940126441C8F
S214400FF004A9022203940590AC68069707960191CF
S214401000029253B3636E13F0010FB4F90C309AB2E8
S21440101001D1900525D5910406D4626E43F4005361
S21440102022F40052A3816266284601AA214600F0B7
S21440103037FC636E00280CBF0A254FF0FF35DA07F1
S21440104002D4A3899B0502D5284609B0F0BDA06D01
S21440105000F0F4FD284609B0F0BD284600F098FAA6
S214401060D0E7A06D00F0E8FDB4F90C309AB2D2E7B4
S214401070C82D4000024B01461868FFF7ADBF00BFC1
S2144010802000002038B50C46054608B1836B63B196
S2144010902846214601F00EFC50B994E80C00013B6E
S2144010A0511C84E80A00107838BD00F071FAEFE76A
S2144010B04FF0FF3038BD00BF00290CBF022200228F
S2144010C04FF4806300F000B82DE9F043614C25688A
S2144010D083B004460F4690461E4615B1AB6B002BB8
S2144010E064D0B8F1020F06D0B8F1010F00F29F802D
S2144010F0002EC0F29C80636ED80734D52146284621
S21440110000F0DCF9216B41B104F14003994202D072
S214401110284600F0DFFA00232363B4F90C3000229F
S214401120A26162601A063AD423F44A6323F00303AA
S214401130B8F1020FA3811DD001AB6A46214628466E
S21440114000F07EFDA3891843A081002E32D1009E78
S214401150304600F0EDFD074600286BD0A38943F0EB
S2144011608003A38128E0A3899905C7D4A06D00F029
S21440117063FDC3E70025616E002604F1430243F099
S21440118002030120A660CE07A3812260226160612F
S21440119001D498053ED5284603B0BDE8F0832169C2
S2144011A0284600F097FAB4F90C30BDE7284600F020
S2144011B0EFF996E7002FCBD0AB6B002B33D0009BDC
S2144011C0B4F90C2027609E421CBF42F40062A28104
S2144011D0B8F1010F04BF42F00102A28192B212F0B0
S2144011E00803276166610ED0D1071AD5656E764230
S2144011F0002315F00105A661A36009D00025284606
S21440120003B0BDE8F083A360656E15F00105F5D127
S2144012109305C0D4A06D00F011FD284603B0BDE88C
S214401220F083A660F0E7284600F0B2F9C7E74FF033
S214401230FF35B0E7DDF80090B14504D0484600F0F1
S21440124077FD074620B9B4F90C304FF0FF3592E7EA
S2144012504E4683E72000002000000000000000000B
S2144012600000000000000000000000000000000039
S2144012700000000000000000000000000000000029
S21440128090F800F06DE9024520F007016FF0000C81
S21440129010F0070491F820F040F049804FF0000429
S2144012A06FF00700D1E9002391F840F000F1080004
S2144012B082FA4CF2A4FA8CF283FA4CF3A2FA8CF33C
S2144012C04BBBD1E9022382FA4CF200F10800A4FAA3
S2144012D08CF283FA4CF3A2FA8CF3E3B9D1E90423F7
S2144012E082FA4CF200F10800A4FA8CF283FA4CF32E
S2144012F0A2FA8CF37BB9D1E9062301F1200182FAE8
S2144013004CF200F10800A4FA8CF283FA4CF3A2FAED
S2144013108CF3002BC6D0002A04BF04301A4612BAFB
S214401320B2FA82F2FDE8024500EBD2007047D1E9FE
S214401330002304F00305C4F100004FEAC50514F08D
S214401340040F91F840F00CFA05F562EA05021CBF5E
S21440135063EA050362464FF00004A9E7024B13B167
S214401360024800F005B87047000000000116400033
S214401370002301461A46184601F0F6BBB1F90C3078
S2144013809AB22DE9F0410D46110780463AD46A6874
S21440139043F40063002AAB816FDDAC6A002C49D071
S2144013A000229BB2D8F80060C8F8002013F48052A0
S2144013B067D02A6D5F0705D569682B6B521A0BB14B
S2144013C0EB6BD21A0023E9694046A047441C3CD048
S2144013D0B5F90C302A692A6023F400630022AB81F9
S2144013E0DB046A6047D4296BC8F8006011B305F186
S2144013F04003994202D0404600F06CF90020286332
S214401400BDE8F0812E69AEB12C682E6091070CBF06
S2144014106B690023A41BAB600AE0234632466F6A22
S214401420E9694046B8470028A4EB0004064404DDBA
S214401430002CF2DC0020BDE8F081AB8943F040038D
S214401440AB814FF0FF30BDE8F081D8F800401D2C4E
S214401450F3D8194BE340DB4313F00103EDD1B5F964
S2144014600C206B6022F400632969AB81DA042960A2
S214401470B9D5002CB7D12865B5E7EA6B002A8CDCD5
S214401480D8E70123E9694046A047431C024602D0FC
S214401490AB89AC6A8EE7D8F80030002BF8D01D2B0D
S2144014A001D0162B02D1C8F80060C3E7AB8943F0E1
S2144014B04003AB81BDE8F0810100402038B50D46C1
S2144014C0044608B1836BBBB1B5F90C0088B16B6EAE
S2144014D0DB0701D4810517D520462946FFF74EFF86
S2144014E06B6EDA07044602D4AB899B0507D52046C7
S2144014F038BD0446204638BD00F04AF8E4E7A86DFB
S21440150000F09CFB204638BDA86D00F095FBE3E755
S21440151020B1054B01461868FFF7D0BF034B04497E
S214401520186800F05BBB00BF20000020C42D4000C0
S214401530BD144000014900F051BB00BF512C400093
S21440154010B5002304468181C281036043608360F6
S2144015504366036143618361194608225C30FFF7A6
S214401560EDFC07480749084A084B2062E46161627F
S214401570A262E36204F15800BDE8104000F058BB98
S214401580ED294000112A40004D2A40006D2A4000B7
S21440159010B50446124800F04FFBA26BD2B904F5D2
S2144015A03B731048C4F8E8320321C4F8E022E063F5
S2144015B0C4F8E41260680421FFF7C2FF0122092143
S2144015C0A068FFF7BDFF02221221E068FFF7B8FFD0
S2144015D00123A3630248BDE8104000F02FBB00BFC4
S2144015E04809002035154000014800F025BB00BFE3
S2144015F05C090020014800F021BB00BF5C090020C8
S21440160038B50A4C0A4D641BA4100AD004F1804336
S214401610013B05EB8305013C55F804399847002CFF
S214401620F9D1BDE8384001F0DBBB00BFF02D4000EB
S214401630EC2D4000F8B5244F0C46064600F07EFFE1
S214401640BB685D68C4F57E610F3125F0030529440B
S21440165021F47F6121F00F01A1F58054B4F5805F3D
S21440166007DB0021304601F0AFF9BB682B449842B7
S21440167004D0304600F068FF0020F8BD6142304696
S21440168001F0A2F901300DD0104BBA6819682D1B35
S21440169045F001053046091B5560196000F054FFBF
S2144016A00120F8BD0021304601F08EF9BA68831A51
S2144016B00F2BDEDD064C0549246843F00103001B72
S2144016C053600860D5E700BF54040020F8080020A7
S2144016D05C080020002944D02DE9F0410D468046A4
S2144016E000F02CFF55F8047C694927F00103A5F16A
S2144016F00804E2188E685068B24220F003005ED0BC
S214401700FE0750600BD455F8087CE41B01F1080E28
S214401710A56875453B446DD0E768EF60BD60151819
S2144017206D68ED073ED543F001026260E350B3F5C5
S214401730007F17D2DB08581C9A104D6851F830705D
S214401740A7600123934001EBC0022B43083AE260B6
S2144017504B6041F83040FC604046BDE8F04100F048
S214401760F3BE70475A0A042A52D89A0902F139073A
S214401770FF0002F13805C819CA59083890424FD0C0
S214401780516821F003018B4232D292689042F7D1E1
S214401790C368A060E3609C60C4604046BDE8F0411A
S2144017A000F0D2BE95683B4FBD42034440D0D0685F
S2144017B0E86043F0010285606260E350B7E7FF07E8
S2144017C0034407D455F8082CA41A1344A068E268CA
S2144017D0C2609060304A126843F0010093426060F5
S2144017E08C60B9D32D4B40461968FFF723FFB3E70B
S2144017F01046CDE711184968C90744D49168D268A5
S214401800CA60034443F0010091606060E350A3E780
S214401810142A16D802F15C07FF0002F15B05AAE71E
S214401820AA1001234D6893402B434B600346B0E714
S21440183043F001024C610C61E560A5606260E350D4
S2144018408AE7542A06D81A0B02F16F07FF0002F106
S2144018506E0590E7B2F5AA7F06D8DA0B02F1780754
S214401860FF0002F1770586E740F25450824206D8E0
S2144018709A0C02F17D07FF0002F17C057BE74FF4EE
S2144018807E777E2577E743F001016160136063E76A
S214401890540400205C040020600800202809002032
S2144018A09368002B73D02DE9F04F8B8983B00C469C
S2144018B019070090164626D5226922B313F0020077
S2144018C035682CD04FF00009B04FC846B246B845F0
S2144018D043464A4628BF3B460098B8F1000F50D0D2
S2144018E0E169666AB047002858DDDAF808301B1A06
S2144018F08144A8EB0008CAF80830002BE7D1002046
S21440190003B0BDE8F08F2146009801F0C9F80028E2
S21440191040F03381A389356813F00200D2D113F02A
S214401920010945D14F46019637B39A05D4F8088049
S21440193040F183804745C346C0F0AB8013F4906FB8
S21440194040F0AC802068BA465A46494600F092FDC0
S214401950A2682368A2EB08025B44A2602360019A57
S2144019609368A3EB0A03D144A7EB0A079360002BC6
S214401970C5D0A389002FD8D1D5F800906F68083518
S214401980D2E7D5F80090D5F8048008359FE70020C8
S214401990704721460098FFF791FD70B3B4F90C30BC
S2144019A043F040034FF0FF30A38103B0BDE8F08F13
S2144019B0814633464E46A8469A464D464EB380B379
S2144019C0206823696269B145CB4628BFB346984232
S2144019D05F4604D9A36813449B4500F3A68093450D
S2144019E04BDB1346676AE16900982A46B847071EEC
S2144019F0D4DDB9EB0709CCD00120DAF80830DB1B80
S214401A003D44F61BCAF80830002B3FF478AF002E52
S214401A10D5D108F1080313E9600098460833002E34
S214401A20F9D032460A21284600F03AFC002800F059
S214401A30A1800130A0EB0509C2E7206823699842DF
S214401A4002D863699F425DD2B84528BFB846424631
S214401A50494600F00FFDA3682268A3EB0803424402
S214401A60A36022600BB1C24679E721460098FFF793
S214401A7025FD002892D1C24671E75A46294600F015
S214401A80F9FCA2682368A2EB0B025B44A2602360C9
S214401A90AFE72068B846BA46BB4655E76269206855
S214401AA0216902EB4208A0EB010A08EBD8780AF15C
S214401AB001004FEA680838444045424684BF8046A5
S214401AC042465B0544D51146009800F039F98346F6
S214401AD0002855D05246216900F032FCA38923F4F1
S214401AE0906343F08003A3810BEB0A00A8EB0A0344
S214401AF0C4F810B0C4F814802060A360B846BA4654
S214401B00BB4621E76FF00041B94228BF39464A46F6
S214401B1091FBF3F10098666A03FB01F3E169B04775
S214401B20B0F1000A3FF71BAF38E71A462946019343
S214401B3000F0A0FC2268019B00981A4422602146CF
S214401B40FFF7BCFC019B00287FF428AF1F4650E7F8
S214401B50009800F0FFFC83460028C5D1009D21690F
S214401B602846FFF7B7FDB4F90C300C2223F080036B
S214401B702A6015E706F1010922E74FF0FF30BFE67D
S214401B80009A0C231360B4F90C3009E700FCFF7F81
S214401B902DE9F04110F538771BD0884600267D6841
S214401BA0BC68013D0FD4A389012B05F1FF3506D94A
S214401BB0B4F90E300133204601D0C04706436B1CB3
S214401BC004F16804EFD13F68002FE8D13046BDE805
S214401BD0F0813E463046BDE8F08100BF2DE9F8432F
S214401BE010F538771FD0884606464FF000097D68C6
S214401BF0BC68013D11D4A389012B05F1FF3508D9F6
S214401C00B4F90E3001332146304602D0C04749EA87
S214401C1000096B1C04F16804EDD13F68002FE6D143
S214401C204846BDE8F883B9464846BDE8F88300BF55
S214401C30704700BF704700BF704700BF704700BF87
S214401C4070B50C46B1F90E10002990B015461E46E8
S214401C5014DB01AA01F05EF800280FDB029A02F4BA
S214401C607042A2F50052B2FA82F252094FF48063F3
S214401C704FF4006032602B6010B070BDA289002324
S214401C8012F08000336004D0402218462A6010B01C
S214401C9070BD4FF480632B6010B070BD8A89920788
S214401CA00B4606D501F1430201211A601A615961BB
S214401CB07047F0B583B001AB6A460C460646FFF760
S214401CC0BFFF00990546304600F03AF8B4F90C30AC
S214401CD0D8B1019A154F0099F76343F08003A3816A
S214401CE02060206161611AB92B43A38103B0F0BD27
S214401CF03046B4F90E1001F021F8A0B1A38923F0C4
S214401D00030343F001031BB2EEE79A05EED423F03B
S214401D10030304F1430243F002030121A38122603E
S214401D2022616161E2E7B4F90C30DDE73515400029
S214401D30024B0146186800F003B800BF20000020A0
S214401D402DE9F04F01F10B06162E83B0054640F202
S214401D509E8036F0070600F1BD80B14200F2BA80A0
S214401D6000F0ECFBB6F5FC7FC0F09382730A00F0FF
S214401D70B880042B00F27981B30903F1390003F1EE
S214401D80380EC300BF4F3B44A3F108015C68A14234
S214401D9006D10CE0002A80F2AA80E468A14206D070
S214401DA0636823F003039A1B0F2AF3DD70463C69F1
S214401DB0DFF8E4E2744500F0AB81636823F0030388
S214401DC09A1B0F2A00F39081002AC7F814E0C7F840
S214401DD010E080F29D80B3F5007F80F06181DB08E3
S214401DE003F1010C99107A6857F83C80C4F80880D3
S214401DF001238B4007EBCC0113430839E1607B603D
S214401E0047F83C40C8F80C408210012494409C425D
S214401E1000F28B801C4206D120F0030064001C4276
S214401E2000F10400FAD007EBC009CC468046DCF847
S214401E300C309C4507D16DE1002A80F27B81DB683F
S214401E409C4500F06781596821F003018A1B0F2AE0
S214401E50F2DDD3F80CC0D3F8088000939C192846CE
S214401E6046F0010642F001055E60C8F80CC0CCF8AA
S214401E7008807C613C61C4F80CE0C4F808E065600A
S214401E805A5000F061FB009B03F108041EE0102945
S214401E9020D800F053FB102618230220794F3B44ED
S214401EA0A3F108025C68944200F03D816368E168F3
S214401EB0A66823F00303234428465A68F16042F09C
S214401EC001028E605A6000F03FFB0834204603B0A3
S214401ED0BDE8F08F00240C2320462B6003B0BDE8FD
S214401EE0F08F40204FF400734FF03F0E4AE72344F4
S214401EF0E1685A68A66842F00102F16028468E60A2
S214401F005A6000F021FB0834204603B0BDE8F08F4D
S214401F10234428465A6842F001025A6000F014FBF7
S214401F200834204603B0BDE8F08FBC68636823F0F1
S214401F300308B04504D3A8EB06030F2B00F38580B7
S214401F40DFF85891504BD9F800201B6801323344D3
S214401F5004EB080A00F0558103F580530F3323F451
S214401F607F6B2BF00F0B5946284600F02DFD411C89
S214401F70024600F0FC80824500F2F780434B196829
S214401F805944196000F04D81D9F8000001301BBF5C
S214401F90A2EB0A0A5144C9F80020196012F0070162
S214401FA000F01581C1F10800C1F5805102440831A6
S214401FB002EB0B09C9F30B09A1EB09094946284670
S214401FC00193009200F000FD431C9DE80C0000F0D9
S214401FD04381801A484440F001001968BA60494479
S214401FE0BC425060196017D0B8F10F0F40F2FB802A
S214401FF06068A8F10C0222F0070204EB020E00F023
S21440200001004FF0050C10430F2A6060CEF804C064
S214402010CEF808C000F217811D4BBC681A68914282
S21440202088BF19601B4B1A689142626888BF196066
S21440203022F003029642A2EB060301D80F2B04DCE3
S214402040284600F081FA002440E7A21943F0010335
S21440205046F0010666602846BA60536000F074FA9F
S2144020600834204603B0BDE8F08F142B71D9542BAA
S21440207000F2A380330B03F16F0003F16E0EC30032
S21440208080E600BF5404002028090020F8080020FD
S21440209020090020240900205C0400205C08002061
S2144020A05A0A042A5BD9142A00F2AE8002F15C0177
S2144020B0C9005B3207EB010C7958ACF1080C8C4533
S2144020C000F088804A6822F00302934273D28968FF
S2144020D08C45F7D1DCF80C207B68E260C4F808C079
S2144020E09460CCF80C408FE6A11946F0010C42F003
S2144020F00106C4F804C0284679613961C1F80CE08D
S214402100C1F808E04E60E25000F01EFA0834DDE602
S2144021107B6879E608F1010818F0030F0CF1080C0B
S2144021207FF485AE2DE0DC68A34208BF02303FF462
S2144021303EAEBBE619441C464A68DB6854F8086F56
S21440214042F001024A602846F3609E6000F0FCF9C7
S214402150BCE603F15C0003F15B0EC30012E69A098D
S21440216002F13901C9003832A4E7BC4254D0BC68F9
S214402170626822F003025DE759F80839994540F055
S214402180868010F0030F00F1FF30F5D17B6823EA1C
S21440219004037B6064009C423FF6C7AE002C3FF4CD
S2144021A0C4AE1C4240467FF43EAE64001C4200F182
S2144021B00400FAD037E68C468CE7B3F5AA7F15D8EC
S2144021C0F30B03F1780003F1770EC300DAE54FF422
S2144021D08051EDE67B689210012101FA02F213432A
S2144021E07B60624679E70123536029E740F2545208
S2144021F0934222D8B30C03F17D0003F17C0EC3005A
S214402200C0E503F1100BAEE6542A29D81A0B02F1AA
S2144022106F01C9006E324DE7204B1968594419606A
S214402220B2E6CAF30B0000287FF4AEAE08EB0B0311
S214402230BA6843F001035360EEE67F204FF47E73A6
S2144022404FF07E0E9EE504F1080128460093FFF706
S21440225041FA009B1968DFE601204FF00009BCE612
S214402260B2F5AA7F05D8DA0B02F17801C9007732B9
S21440227020E740F254518A4205D89A0C02F17D017B
S214402280C9007C3216E74FF47E717E2212E77B68E7
S21440229080E7F00806F1080300E600BFF8080020D3
S2144022A001F0FF01102A2BDB10F0070F08D010F8C2
S2144022B0013B013A8B422DD010F0070F42B3F6D1C6
S2144022C0F0B441EA012141EA014122F007047FF0DF
S2144022D000070023F0E80256083C85EA010586EA36
S2144022E0010685FA47F5A3FA87F586FA47F6A5FA72
S2144022F087F68EB9EED1F0BC01F0FF0102F007027E
S21440230032B110F8013B013A83EA010313B1F8D128
S2144023100020704701387047002D06BF3546033809
S214402320073815F0010F07D1013015F4807F02BF42
S214402330013015F4C03F0130F0BC0138704700BF93
S214402340844641EA000313F003036DD1403A41D37B
S21440235051F8043B40F8043B51F8043B40F8043B3A
S21440236051F8043B40F8043B51F8043B40F8043B2A
S21440237051F8043B40F8043B51F8043B40F8043B1A
S21440238051F8043B40F8043B51F8043B40F8043B0A
S21440239051F8043B40F8043B51F8043B40F8043BFA
S2144023A051F8043B40F8043B51F8043B40F8043BEA
S2144023B051F8043B40F8043B51F8043B40F8043BDA
S2144023C051F8043B40F8043B51F8043B40F8043BCA
S2144023D0403ABDD2303211D351F8043B40F8043B6A
S2144023E051F8043B40F8043B51F8043B40F8043BAA
S2144023F051F8043B40F8043B103AEDD20C3205D37A
S21440240051F8043B40F8043B043AF9D2043208D071
S214402410D2071CBF11F8013B00F8013B01D30B88E3
S21440242003806046704700BF082A13D38B078DD0C1
S21440243010F003038AD0C3F10403D21ADB071CBF93
S21440244011F8013B00F8013B80D331F8023B20F8FD
S214402450023B7BE7043AD9D3013A11F8013B00F836
S214402460013BF9D20B7803704B7843708B788370BE
S214402470604670478842F0B50DD98B1898420AD20C
S2144024808418002A51D0224613F8014D02F8014D17
S2144024909942F9D1F0BD0F2A48D941EA00039B077B
S2144024A046D100F1100401F11003154653F8106CA4
S2144024B044F8106C53F80C6C44F80C6C53F8086CE9
S2144024C044F8086C103D53F8046C44F8046C0F2D27
S2144024D003F1100304F11004E8D8A2F1100323F02E
S2144024E00F0302F00F0E1033BEF1030F19440344DE
S2144024F021D91E1F0D467446043C55F8047B46F809
S214402500047F032CF8D8AEF1040424F0030404340A
S2144025102144234402F0030262B1013B0A4411F80D
S214402520014B03F8014F8A42F9D1F0BD0346F3E769
S2144025300346F2E7F0BD7246EEE700BF0148FFF7FC
S2144025407BBB00BF4C0900200148FFF777BB00BFAC
S2144025504C090020002900F095802DE9F04F0D46EB
S214402560164683B0804606F10B07FFF7E7FF55F89F
S21440257004EC162F2EF00304A5F108093CD81022CF
S2144025801746BE423DD8944243DAC44B996809EB9D
S2144025900400884200F0B480436823F001010144FF
S2144025A04968C9074CD51EF0010F00F09B803146A4
S2144025B04046FFF7C5FB064600283AD055F8043C8F
S2144025C023F001034B44A0F108029A4200F0218117
S2144025D0221F242A00F20781132A00F2DB800346DA
S2144025E02A46116819605168596092689A6029466F
S2144025F04046FFF76FF81CE027F00707002F3A46E3
S214402600BFDA00260C233046C8F8003003B0BDE8D9
S214402610F08F2E46E31B0F2B1ED8D9F8043003F05C
S214402620010323434C44C9F80430636843F0010374
S21440263063604046FFF788FF304603B0BDE8F08F42
S21440264023F00303E11891421FDBC36882682E46DD
S214402650D3600C469A60DDE7D9F8042009EB070101
S21440266002F001024C4443F001031743C9F80470DA
S2144026704B60636843F00103083163604046FFF7F0
S21440268029F8D6E71146FFF75BBB1EF0010F8ED147
S21440269055F8081CA9EB010ADAF8041021F00301EA
S2144026A00B442344934225DBC26881685646CA6081
S2144026B09160DAF80C1056F8080F221F242AC160E1
S2144026C0886000F29480132A6FD92968CAF80810E7
S2144026D06968CAF80C101B2A00F2A28008350AF175
S2144026E0100263E055F8083CA9EB030ADAF8041038
S2144026F021F0030163189342FFF659AF5646D8E7D8
S214402700416821F0030BA34407F11000834556DAD5
S2144027101EF0010F7FF44BAF55F8081CA9EB010AD9
S214402720DAF8041021F003018B445845E2DC5646A3
S214402730DAF80C1056F8080F221F242AC160886069
S21440274000F28F80132A40F28A802968CAF808105F
S2144027506968CAF80C101B2A00F28A8008350AF10C
S21440276010022968116069685160A96891600AEB97
S2144027700701ABEB070242F0010299604A60DAF8C3
S214402780043003F001031F434046CAF80470FFF7C5
S214402790DBFE51E72B6803606B6843601B2A2DD82D
S2144027A000F1080305F108021BE73246296811606C
S2144027B069685160A96891601C46D1462AE709EBD2
S2144027C00701ABEB070B4BF0010299604A6055F8E6
S2144027D0043C03F001031F43404645F8047CFFF7E2
S2144027E0B3FE2E4628E72946FFF744FEFFE6294675
S2144027F030461C46D146FFF73DFE0BE7AB6883608C
S214402800EB68C360242A17D000F1100305F11002CC
S214402810E7E650F8043C23F003031C442E46F9E652
S214402820A968CAF81010E968CAF81410242A0CD00F
S21440283010350AF11802B9E72B6903616B694361E9
S21440284005F1180200F11803CBE62A69CAF81820E9
S2144028506A69CAF81C2018350AF12002A6E73246F3
S2144028607FE7294630460193FFF704FE019B7EE74B
S214402870A968CAF81010E968CAF81410242A03D0C8
S21440288010350AF118026CE72A69CAF818206A69F6
S214402890CAF81C2018350AF1200262E754040020CA
S2144028A0838903F00903092B01D000207047FEF707
S2144028B02FBE00BFF8B50C46054610B1836B002B03
S2144028C045D0B4F90C309AB2970407D4626E43F4FC
S2144028D0005322F400526266A3819AB20021960603
S2144028E0616031D4500722D5216B61B104F14003B9
S2144028F0994202D02846FEF7EDFEE36B6360002067
S2144029002063002B3FD12369002B4CD0B4F90C70C8
S214402910BEB2B3071ED12269226028466369256A83
S214402920E169A8470028606009DD0020F8BDD106AF
S2144029303ED512072AD443F00403A381E3E7A389D4
S21440294019D143F02003A3814FF0FF30F8BDFEF7C6
S2144029501FFEB6E71A4B1B4918680123A38106F0F1
S2144029600906FFF715F9092EA781D4D12146284636
S214402970FEF704FDCFE7002243F04003A3816260E8
S2144029804FF0FF30F8BDA36B2360F8BD21462846C4
S214402990FEF794FD0028D7D1B4F90C30A060A061B2
S2144029A023F00803C7E721462846FFF777F9ADE747
S2144029B043F0400309222A604FF0FF30A381F8BD60
S2144029C0C42D4000A128400038B5074C00230546DA
S2144029D008462360FEF7A8F8431C00D038BD23689D
S2144029E0002BFBD02B6038BD6009002010B50C468C
S2144029F0B1F90E1000F0CAF9002803DB236D03443A
S214402A00236510BDA38923F48053A38110BD00BF66
S214402A102DE9F0411646B1F90C201F46D3050C4669
S214402A20054607D500220223B1F90E1000F098F9AA
S214402A30B4F90C20B4F90E1022F48052A2813B4621
S214402A4032462846BDE8F04100F014B810B50C46B2
S214402A50B1F90E1000F084F9A389421C0EBF23F48E
S214402A60805343F480532065A38110BDB1F90E1006
S214402A7000F0DCB870B50D46084C114606461A46BE
S214402A80284600232360FDF78BFB431C00D070BD17
S214402A902368002BFBD0336070BD00BF6009002068
S214402AA038B5304B1B6805460C4613B19A6B002A66
S214402AB038D0B4F90C2093B218070CD52069A8B1C9
S214402AC013F001021ED0636900225B42A361A2603C
S214402AD0F0B1002038BDD9063CD5580726D4206929
S214402AE042F00803A3819BB20028E9D103F4207288
S214402AF0B2F5007FE4D028462146FFF7CFF8A389F9
S214402B002069DDE7990758BF6269A2600028E0D1D6
S214402B10B4F90C301A06DDD543F04003A3814FF0DC
S214402B20FF3038BD1846FEF733FDC2E7216B51B182
S214402B3004F14003994204D02846FEF7CBFDB4F991
S214402B400C200023236300232069636022F02402C4
S214402B502060C5E742F0400209232B604FF0FF306B
S214402B60A28138BD200000202DE9F8432C4D0646B2
S214402B70286898460F469146FFF75EF8294B1C6832
S214402B80D4F84831002B3ED05A681F2A1CDC02F18C
S214402B90010E76B103EB82010124C1F88890D3F888
S214402BA0880194402043022EC3F88801C1F808816A
S214402BB023D00232C3F804E0286843F82270FFF7B7
S214402BC03DF80020BDE8F883174B0BB34FF4C870B0
S214402BD0FFF7AEF80346D8B1D4F84821026000218A
S214402BE041600A46C4F848014FF0010EC0F888110B
S214402BF0C0F88C11002EDCD0CCE7D3F88C110C43F7
S214402C00C3F88C41D5E704F5A673C4F84831BBE752
S214402C102868FFF713F84FF0FF30BDE8F88300BF91
S214402C2050040020C42D4000311D400038B5074CEC
S214402C300023054608462360FDF792FF431C00D05C
S214402C4038BD2368002BFBD02B6038BD60090020C0
S214402C5070B559B105460C4610B1836B002B3CD07D
S214402C60636ED80705D5B4F90C302BB9002630462C
S214402C7070BDA38999053CD521462846FEF77EFBC4
S214402C80E36A064633B1E169284698470028B8BF4C
S214402C904FF0FF36A3891A0622D4216B41B104F1C6
S214402CA04003994202D02846FEF714FD00232363D2
S214402CB0616C21B12846FEF70DFD00236364FEF7E4
S214402CC093FC636E0022DB07A2810ED5A06DFEF753
S214402CD0B1FFFEF78FFC304670BDFEF759FCBFE7EC
S214402CE021692846FEF7F6FCD7E7A06DFEF7A6FF5B
S214402CF0ECE7A06DFEF7A0FFB4F90C30002BBBD17B
S214402D00666E16F00106B1D1A06DFEF797FF30460D
S214402D1070BD00BF38B50B46074C054611461846F1
S214402D2000232360FDF71FFF431C00D038BD2368F7
S214402D30002BFBD02B6038BD6009002038B5074C0F
S214402D400023054608462360FDF712FF431C00D0CB
S214402D5038BD2368002BFBD02B6038BD60090020AF
S214402D6070B50D46084C114606461A4628460023BE
S214402D702360FDF7FFFE431C00D070BD2368002B88
S214402D80FBD0336070BD00BF6009002070B50D46B3
S214402D90084C114606461A46284600232360FDF78F
S214402DA0CBF9431C00D070BD2368002BFBD03360AA
S214402DB070BD00BF60090020425552524F2121216C
S214402DC00D000000280000200A000000F8B500BFF3
S214402DD0F8BC08BC9E4670475D134000F1004000BA
S214402DE0F8B500BFF8BC08BC9E467047CD00400012
S214402DF0BFF35F8F0138FBD17047000000093D00EC
S214402E0080250000C0000000000800000000000010
S214402E1028000020000000000000000014030020EE
S214402E207C030020E40300200000000000000000B7
S214402E30000000000000000000000000000000004D
S214402E40000000000000000000000000000000003D
S214402E50000000000000000000000000000000002D
S214402E60000000000000000000000000000000001D
S214402E70000000000000000000000000000000000D
S214402E8000000000000000000000000000000000FD
S214402E9000000000000000000000000000000000ED
S214402EA000000000000000000000000000000000DD
S214402EB000000000000000000000000000000000CD
S214402EC001000000000000000E33CDAB34126DE66A
S214402ED0ECDE05000B0000000000000000000000D3
S214402EE0000000000000000000000000000000009D
S214402EF0000000000000000000000000000000008D
S214402F00000000000000000000000000000000007C
S214402F10000000000000000000000000000000006C
S2144032403C0900200000000000000000540400205C
S214403250540400205C0400205C0400206404002029
S214403260640400206C0400206C04002074040020D9
S214403270740400207C0400207C0400208404002089
S214403280840400208C0400208C0400209404002039
S214403290940400209C0400209C040020A4040020E9
S2144032A0A4040020AC040020AC040020B404002099
S2144032B0B4040020BC040020BC040020C404002049
S2144032C0C4040020CC040020CC040020D4040020F9
S2144032D0D4040020DC040020DC040020E4040020A9
S2144032E0E4040020EC040020EC040020F404002059
S2144032F0F4040020FC040020FC0400200405002008
S214403300040500200C0500200C05002014050020B4
S214403310140500201C0500201C0500202405002064
S214403320240500202C0500202C0500203405002014
S214403330340500203C0500203C05002044050020C4
S214403340440500204C0500204C0500205405002074
S214403350540500205C0500205C0500206405002024
S214403360640500206C0500206C05002074050020D4
S214403370740500207C0500207C0500208405002084
S214403380840500208C0500208C0500209405002034
S214403390940500209C0500209C050020A4050020E4
S2144033A0A4050020AC050020AC050020B405002094
S2144033B0B4050020BC050020BC050020C405002044
S2144033C0C4050020CC050020CC050020D4050020F4
S2144033D0D4050020DC050020DC050020E4050020A4
S2144033E0E4050020EC050020EC050020F405002054
S2144033F0F4050020FC050020FC0500200406002003
S214403400040600200C0600200C06002014060020AF
S214403410140600201C0600201C060020240600205F
S214403420240600202C0600202C060020340600200F
S214403430340600203C0600203C06002044060020BF
S214403440440600204C0600204C060020540600206F
S214403450540600205C0600205C060020640600201F
S214403460640600206C0600206C06002074060020CF
S214403470740600207C0600207C060020840600207F
S214403480840600208C0600208C060020940600202F
S214403490940600209C0600209C060020A4060020DF
S2144034A0A4060020AC060020AC060020B40600208F
S2144034B0B4060020BC060020BC060020C40600203F
S2144034C0C4060020CC060020CC060020D4060020EF
S2144034D0D4060020DC060020DC060020E40600209F
S2144034E0E4060020EC060020EC060020F40600204F
S2144034F0F4060020FC060020FC06002004070020FE
S214403500040700200C0700200C07002014070020AA
S214403510140700201C0700201C070020240700205A
S214403520240700202C0700202C070020340700200A
S214403530340700203C0700203C07002044070020BA
S214403540440700204C0700204C070020540700206A
S214403550540700205C0700205C070020640700201A
S214403560640700206C0700206C07002074070020CA
S214403570740700207C0700207C070020840700207A
S214403580840700208C0700208C070020940700202A
S214403590940700209C0700209C070020A4070020DA
S2144035A0A4070020AC070020AC070020B40700208A
S2144035B0B4070020BC070020BC070020C40700203A
S2144035C0C4070020CC070020CC070020D4070020EA
S2144035D0D4070020DC070020DC070020E40700209A
S2144035E0E4070020EC070020EC070020F40700204A
S2144035F0F4070020FC070020FC07002004080020F9
S214403600040800200C0800200C08002014080020A5
S214403610140800201C0800201C0800202408002055
S214403620240800202C0800202C0800203408002005
S214403630340800203C0800203C08002044080020B5
S214403640440800204C0800204C080020FFFFFFFFE5
S208403650000002002F
S8044008D9DA
