:020000040040BA
:1000000030390020DD084000D9084000D908400000
:10001000D9084000D9084000D9084000000000007D
:10002000000000000000000000000000D9084000AF
:10003000D908400000000000D9084000D90840005D
:10004000D9084000D9084000D9084000D90840002C
:10005000D9084000D9084000D9084000D90840001C
:10006000D9084000D9084000000000005D074000AA
:100070007107400085074000D9084000D9084000BA
:100080000000000000000000D9084000D90840002E
:10009000D9084000D9084000D9084000D9084000DC
:1000A000D9084000D9084000D9084000D9084000CC
:1000B000D9084000D9084000D9084000D9084000BC
:1000C000D9084000D9084000D908400010B5054CB7
:1000D000237833B9044B13B10448AFF300800123F4
:1000E000237010BD5408002000000000082D4000BF
:1000F000084B10B51BB108490848AFF30080084809
:10010000036803B910BD074B002BFBD0BDE81040BE
:10011000184700BF0000000058080020082D4000CC
:10012000082D40000000000090B92DE9F0410C4678
:100130009046002A0FDD8F18084E094D3068214681
:100140002B6898470134A742F8D14046BDE8F081BA
:100150004FF0FF3070470020BDE8F08124090020F7
:100160001C090020436913F0020F1DBFC1F30801F1
:10017000C161002001207047436913F0010F05D0D1
:100180008369C3F308030B600020704701207047A8
:100190000138022815D82DE9F0410E4614469AB1CF
:1001A0000D46DFF838800C4FD8F8000015F8011B19
:1001B0003B68984700280ADBA81B013CF4D1BDE846
:1001C000F0814FF0FF3070470020BDE8F0814FF024
:1001D000FF30BDE8F08100BF200900202409002085
:1001E00010B4AC2303600B684A68B3FBF2F31B093D
:1001F0005C1E4FF6FE7294420AD803628B6843601D
:1002000040F20223C0F8203150230360002000E0B8
:10021000012010BC704700BF436913F0020F1ABFE2
:10022000C161002001207047436913F0010F1DBF19
:1002300083690B7000200120704700BF10B50E4885
:100240000E4B98473E2100200D4B98470D4CA04780
:100250000028FCD00C4B98470C4A0D4B9A620D4C71
:10026000A0470028FCD010200B4B98470B4B984719
:100270000148024B984710BD000E2707A10A400015
:10028000010840005508400065084000013F132068
:1002900000040E4075084000990740008D09400099
:1002A00038B54FF40042464B5A600B20454CA047EE
:1002B0000C20A0470D20A0474FF060511320424C66
:1002C000A0474FF060511420A04740492320A04789
:1002D0003F494C20A0474FF000624FF4C0613D48B9
:1002E0003D4B98474FF080510020A0474FF0805180
:1002F0000820A0474FF080515220A0474FF00061E6
:100300000C20A0474FF000610D20A0474FF0006186
:100310000E20A0474FF000610B20A0474FF0006176
:100320001520A0474FF000611620A0474FF0405124
:100330001720A0471720294B9847294D29464020D0
:10034000A04729464120A04729464220A0472946E8
:100350004320A04729464420A04729464520A047DE
:1003600029464620A04729464720A04729464B203A
:10037000A04729464820A04729464F20A0472946A4
:100380005320A0474FF040514D20A04705F10055A4
:1003900029461020A04729461120A0474FF00061B0
:1003A0000C20A0474FF000610D20A0474FF00061E6
:1003B0000E20A0474FF000610B20A04738BD00BFC2
:1003C00050140E4085084000F504400079000028D4
:1003D00059000028000E0E4019064000D9044000C4
:1003E000010000084264B1F1C05F2FD007D8B1F11D
:1003F000006F14D0B1F1805F1ED039B97047B1F1F0
:10040000205F36D004D8B1F1005F29D04260704738
:10041000B1F1405F2DD0B1F1605F2AD0F6E710B4A2
:10042000046F016FD343214019400167446F416F4E
:1004300021400B4043671AE0036F13430367416F8A
:10044000436F0B4023EA02034367DFE7016F036F4B
:100450000B4023EA02030367436F13434367D5E767
:10046000036F13430367436F13434367CEE7426051
:1004700010BC7047416412F0010F14BF4166016661
:1004800012F00A0F14BF0162416212F0020F02D093
:10049000C0F8801004E012F0080F18BFC0F88410F4
:1004A00041610160704700BF10B44164019C0CB110
:1004B000416600E001660BB1016500E041650AB1EB
:1004C000016300E041630161016010BC704700BF3F
:1004D000C06C7047806C7047430903F5001303F24A
:1004E00007735B0200F01F00012202FA00F058635C
:1004F000704700BF70B582B00D46430903F5001385
:1005000003F207735C0201F0F043B3F1005F47D0E0
:1005100009D8B3F1805F21D0B3F1C05F2FD0B3F120
:10052000006F6FD109E0B3F1405F55D0B3F1605F68
:1005300052D0B3F1205F44D064E000F01F000126E8
:10054000864032464FF000612046304B984715F008
:10055000010F14BF66662666012054E000F01F00FC
:100560000126864032464FF080512046274B98475F
:1005700015F0010F14BF66662666012043E000F007
:100580001F000126864032464FF0C05120461F4BC7
:10059000984715F0010F14BF66662666012032E009
:1005A00000F01F000126864032464FF000512046E1
:1005B000164B984715F0010F14BF6666266601209A
:1005C00021E000F01F0101262A4606FA01F120462B
:1005D0000F4B9847304616E005F0605200F01F01BF
:1005E000012605EA06030093C5F38003B2F1605FBC
:1005F00014BF0022012206FA01F12046054CA04753
:10060000304600E0002002B070BD00BFE5034000AE
:1006100075044000A904400070B582B005460E463E
:10062000144602F0F043B3F1005F38D009D8B3F1BB
:10063000805F1CD0B3F1C05F25D0B3F1006F50D103
:1006400009E0B3F1405F3AD0B3F1605F37D0B3F166
:10065000205F30D045E00A464FF00061224B9847BA
:1006600014F0010F14BF6E662E6601203AE00A46B0
:100670004FF080511C4B984714F0010F14BF6E6669
:100680002E6601202EE00A464FF0C051164B9847C7
:1006900014F0010F14BF6E662E66012022E00A4698
:1006A0004FF00051104B984714F0010F14BF6E66C5
:1006B0002E66012016E00D4B9847012012E004F051
:1006C000605204F001030093C4F38003B2F1605F51
:1006D00014BF0022012231462846054CA0470120C4
:1006E00000E0002002B070BDE5034000750440004A
:1006F000A90440002DE9F84381468846124B9847EB
:1007000005464846114B9847054013D0104C04F15C
:1007100060062368434508D16168294205D0E36833
:1007200040469847636825EA0305B44202D0103476
:10073000002DEED1074B1B6823B1074B1B680BB193
:1007400048469847BDE8F883D1044000D5044000EE
:1007500074080020280900207008002008B50B212B
:100760000148024B984708BD000E0E40F5064000B8
:1007700008B50C210148024B984708BD00100E40F7
:10078000F506400008B50D210148024B984708BD09
:1007900000120E40F5064000184A136B23F0700358
:1007A00018431063936E13F0080F03D009E0013B68
:1007B00003D11EE04FF4006310498A6E12F0080F57
:1007C000F5D00E4A136B23F0030343F002031363C7
:1007D000906E10F0080004D000207047013B03D158
:1007E00009E04FF4006305498A6E12F0080FF5D056
:1007F0007047012070470120704700BF00040E4081
:1008000038B111490B6A114A1A40114B13430B625C
:1008100070470D48026A090289B222F45C1323F082
:10082000030343F45C1343F001030B4303620246EA
:10083000936E13F0010FFBD0034A136A43F09B73CE
:1008400043F480331362704700040E40FCFFC8FE7F
:1008500002003701024B986E00F48030704700BFF1
:1008600000040E404FF00052014B9A62704700BFE7
:1008700000040E40024B986E00F00200704700BF6B
:1008800000040E4022281ED81F280CD8114B9A694C
:1008900001238340934318D0012303FA00F00D4B4A
:1008A00018610020704720380A4BD3F80821012333
:1008B000834093430BD0012303FA00F0054BC3F8A8
:1008C0000001002070470120704700207047002081
:1008D000704700BF00040E40FEE700BF08B5204B84
:1008E000204A9A4212D9204B1D4A9A421ED21146E2
:1008F000013B9B1A23F0030304331A4A134452F8B2
:10090000040B41F8040B9A42F9D10FE0144B154A3D
:100910009A420BD2144B124A9A1A144811182AB14F
:1009200051F8042943F8042D8142F9D100BF104B3E
:10093000104A9A420BD2131D0F4AD21A22F0030218
:100940001A44043B002143F8041B9A42FBD10B4B91
:100950000B4A9A600B4B98470B4B9847FEE700BF3A
:1009600000000020082D400054080020042D400005
:1009700030090020540800203309002000ED00E079
:1009800000004000250E4000250D40003D4B1B6B34
:1009900003F00303032B5DD8DFE803F0020E2B2BDB
:1009A000394B5B6913F0800F14BF4FF400424FF4D2
:1009B000FA42364B1A604DE0324B1B6A13F0807FCF
:1009C00003D0334A314B1A6044E0324A2F4B1A604D
:1009D0002C4B1B6A03F07003102B02D0202B04D089
:1009E00038E02D4A294B1A6034E0294A274B1A6017
:1009F00030E0244B1B6A13F0807F03D0244A234B42
:100A00001A6012E0234A214B1A601E4B1B6A03F046
:100A10007003102B02D0202B04D006E01E4A1B4B83
:100A20001A6002E01A4A194B1A60164B1B6B03F04E
:100A30000303022B134A07BF936A926AD36AD26AEE
:100A40001248C3F30A41036801FB0333D2B2B3FB7C
:100A5000F2F303600B4B1B6B03F07003702B07D199
:100A60000A4A13680D49A1FB03135B081360704722
:100A7000044B1B6B0549C3F302120B68D3400B6098
:100A8000704700BF00040E4010140E40000000200C
:100A9000001BB70000093D0000127A00ABAAAAAA09
:100AA0001A4B984207D84FF08063194A136002F539
:100AB000007213607047174B984206D8164B144AC1
:100AC000136002F5007213607047144B984206D809
:100AD000134B0F4A136002F5007213607047114BFD
:100AE000984206D8104B0A4A136002F50072136050
:100AF00070470E4B984294BF4FF004230C4B044AAE
:100B0000136002F500721360704700BFFF2C3101C3
:100B1000000A0E40FF59620200010004FF869303A1
:100B200000020004FFB3C40400030004FFE0F50565
:100B300000050004094B1B6813B9094A074B1A60EA
:100B4000064B1B681A180749914204DB1046034AFA
:100B50001060184670474FF0FF307047E4080020DF
:100B600030390020FC7F02204FF0FF30704700BF7B
:100B70004FF400534B600020704700BF01207047C6
:100B800000207047F0B583B005460C460023019362
:100B9000184B984207D11F46174E21463846B0479A
:100BA0000028FAD117E0154B984207D11E46124D86
:100BB00021463046A8470028FAD118E0104B984249
:100BC00009D11E460F4D01A93046A8470028FAD189
:100BD000019B23700BE00C4B9D4208D11E46094D32
:100BE00001A93046A8470028FAD1019B237003B021
:100BF000F0BD00BF00060E402902400000080E4074
:100C000000400240790140000080024070B50C466F
:100C1000184B984208D11E46174D21463046A8472A
:100C20000028FAD1012070BD144B984208D11E460D
:100C3000114D21463046A8470028FAD1012070BD49
:100C40000F4B984208D11E460E4D21463046A8470C
:100C50000028FAD1012070BD0B4B984208D11E46E6
:100C6000084D21463046A8470028FAD1012070BD22
:100C7000002070BD00060E401902400000080E4022
:100C80000040024065014000008002402DE9F04133
:100C900084B0DFF88C80CDF80480164C2368029372
:100CA000A36803930820144FB847144D01A92846A0
:100CB000134EB047134B1D60134A144B1A60144A6D
:100CC000144B1A60CDF8048023680293A368039341
:100CD0000820B84701A92846B0470F4D2B680021CE
:100CE00098680E4CA0472B6800215868A04704B0B4
:100CF000BDE8F081040000208508400000060E4099
:100D0000E1014000240900200D0C400020090020D2
:100D1000850B40001C09002040040020BD0F40004E
:100D2000000E270770B5364B9847364B98470B2077
:100D3000354CA0470C20A0470D20A047334B9847C7
:100D4000334A4FF400231361C2F8A0304FF48013EC
:100D50001361C2F8A03002F580621361C2F8A030BE
:100D60002C4C2B4D1646206842685368013B53605B
:100D7000002B04DA4168284B9847C0B204E042686F
:100D80001368591C116018784138322833D8DFE8CD
:100D900000F01A26323232323232323232323232CB
:100DA0003232323232323232323232323232323223
:100DB00032323232322232322A2E3232323232322F
:100DC000323232321E004FF480133363CBE74FF4DC
:100DD00000236B63C7E74FF480136B63C3E74FF4E3
:100DE00080137363BFE74FF400232B63BBE74FF41B
:100DF00080132B63B7E70948094B9847B3E700BF57
:100E00003D024000A1024000850840008D0C4000DA
:100E1000000E0E4040040020890F4000CC2C400002
:100E2000790F400070B50F4E0F4D761BB61018BFEE
:100E3000002405D0013455F8043B9847A642F9D167
:100E40000A4E0B4D761B01F04DFFB61018BF002463
:100E500006D0013455F8043B9847A642F9D170BD3D
:100E600070BD00BFF02C4000F02C4000F82C40007A
:100E7000F02C400070B4840746D0541E002A41D0A4
:100E8000CDB2034602E0621EE4B3144603F8015BF0
:100E90009A07F8D1032C2ED9CDB245EA05250F2C9F
:100EA00045EA054519D903F110022646103E0F2EDA
:100EB00042F8105C42F80C5C42F8085C42F8045CB2
:100EC00002F11002F2D8A4F1100222F00F0204F095
:100ED0000F041032032C13440DD91E462246043A47
:100EE000032A46F8045BFAD8221F22F003020432D8
:100EF000134404F003042CB1C9B21C4403F8011BD1
:100F0000A342FBD170BC704714460346C2E700BF42
:100F1000F0B5054689B008460C4600F011F9AB6BF8
:100F2000144F04940126441C04A902220394059042
:100F3000AC680697079601910292B3B1B4F90C30F0
:100F40009A0406D4626E43F4005322F40052A38143
:100F500062662146284601AA00F00EFC002814BF54
:100F60004FF0FF300A2009B0F0BD284600F0B0FA7B
:100F7000E4E700BFE02C4000024B01461868FFF791
:100F8000C7BF00BF4004002038B50C46054608B175
:100F9000836B63B12846214601F046FC50B994E8C2
:100FA0000C00013B511C84E80A00107838BD00F0A9
:100FB0008FFAEFE74FF0FF3038BD00BF00290CBFBC
:100FC000022200224FF4806300F000B82DE9F043C4
:100FD000514C256883B004460F4690461E4615B115
:100FE000AB6B002B79D0B8F1020F04D0B8F1010F30
:100FF0007FD8002E7DDB2146284600F0C3F9216B07
:1010000041B104F14003994202D0284600F0CCFAE5
:1010100000232363B4F90C300022A26162601A0637
:1010200054D423F44A6323F00303B8F1020FA381DD
:1010300039D001AB6A462146284600F06FFDA389EE
:101040001843A08126B327B3AB6B002B4DD0009B78
:10105000B4F90C0027609E421CBF40F40060A081E0
:10106000B8F1010F08BF40F0010083B208BFA081B2
:1010700003F0080080B22761666118B313F0010025
:101080002FD000207642A661A06003B0BDE8F083B7
:10109000009E304600F0B6FD074668B3A38943F0D2
:1010A0008003A381D0E7002004F1430243F0020350
:1010B00000250121A381A56022602261616103B046
:1010C000BDE8F083A06003B0BDE8F0832169284645
:1010D00000F06AFAB4F90C30A3E7284600F0F8F9FA
:1010E00081E7A66003B0BDE8F083284600F0F0F980
:1010F000ADE74FF0FF30E2E7DDF80090B14506D0F4
:10110000484600F07FFD074608B14E46C6E7B4F9F1
:101110000C304FF0FF30C7E7400400200000000013
:1011200000000000000000000000000000000000BF
:1011300000000000000000000000000000000000AF
:1011400090F800F06DE9024520F007016FF0000C07
:1011500010F0070491F820F040F049804FF00004AF
:101160006FF00700D1E9002391F840F000F108008A
:1011700082FA4CF2A4FA8CF283FA4CF3A2FA8CF3C2
:101180004BBBD1E9022382FA4CF200F10800A4FA29
:101190008CF283FA4CF3A2FA8CF3E3B9D1E904237D
:1011A00082FA4CF200F10800A4FA8CF283FA4CF3B4
:1011B000A2FA8CF37BB9D1E9062301F1200182FA6E
:1011C0004CF200F10800A4FA8CF283FA4CF3A2FA74
:1011D0008CF3002BC6D0002A04BF04301A4612BA82
:1011E000B2FA82F2FDE8024500EBD2007047D1E985
:1011F000002304F00305C4F100004FEAC50514F014
:10120000040F91F840F00CFA05F562EA05021CBFE4
:1012100063EA050362464FF00004A9E7024B13B1ED
:10122000024800F005B8704700000000E5144000D7
:10123000002301461A46184601F050BCB1F90C30A3
:101240009AB22DE9F0410D46110780463CD46A68F8
:1012500043F40063002AAB8173DDAC6A002C4BD0F1
:101260009BB203F48052002192B2D8F80060C8F813
:101270000010002A69D02A6D5F0705D569682B6BBD
:10128000521A0BB1EB6BD21A0023E9694046A04712
:10129000441C3CD0B5F90C302A692A6023F4006361
:1012A0000022AB81DB046A6049D4296BC8F8006076
:1012B00011B305F14003994202D0404600F074F9A1
:1012C00000202863BDE8F0812E69AEB12C682E6045
:1012D00090070CBF6B690023A41BAB600AE0234698
:1012E00032466F6AE9694046B8470028A4EB00041B
:1012F000064404DD002CF2DC0020BDE8F081AB895F
:1013000043F04003AB814FF0FF30BDE8F081D8F8E7
:1013100000201D2AF3D81A4BD34003F0010383F0B9
:101320000104002BEBD0B5F90C302969296023F4B6
:101330000063D9046C60AB81B7D5002AB5D12865AC
:10134000B3E7EA6B002A88DCD6E70123E969404667
:10135000A047431C024602D0AB89AC6A8CE7D8F8A0
:101360000030002BF8D01D2B01D0162B02D1C8F86D
:101370000060C1E7AB8943F04003AB81BDE8F08179
:101380000100402010B5044682B008B1836B53B110
:10139000B1F90C0008B902B010BD204602B0BDE89A
:1013A0001040FFF74BBF019100F092F80199EFE771
:1013B00020B1054B01461868FFF7E4BF034B044911
:1013C000186800F081BB00BF40040020DC2C400006
:1013D00085134000014900F077BB00BFA52B4000FA
:1013E0002DE9F04F354B4568C3630024074600F5EF
:1013F0003B7204230321C0F8E412C0F8E822C0F8CD
:10140000E04283B02C606C60AC606C66EC812C6157
:101410006C61AC61AB81214605F15C000822FFF7ED
:1014200029FDBE68DFF898B0DFF898A0DFF8989043
:10143000DFF89880C5F820B001230922C5F824A060
:10144000C5F82890C5F82C80ED612146F381B28162
:1014500006F15C0034607460B46074663461746179
:10146000B46108220193FFF705FDFD68F6611220C3
:101470000222C6F820B0C6F824A0C6F82890C6F804
:101480002C802146A881EA812C606C60AC606C667F
:101490002C616C61AC6105F15C000822FFF7EAFC8D
:1014A000019BED61C5F820B0C5F824A0C5F82890CF
:1014B000C5F82C80BB6303B0BDE8F08FD5134000A6
:1014C0006129400085294000C1294000E1294000F0
:1014D000836B03B17047FFF783BF00BF704700BF46
:1014E000704700BF38B5074D074C2C1BA41005D022
:1014F000013C55F8043D9847002CF9D1BDE838402F
:1015000001F0FABB082D4000042D4000F8B5234F30
:101510000C46064600F08AFFBB685D6825F00305AF
:10152000291B01F6EF7121F47F6121F00F01A1F574
:101530008054B4F5805F07DB0021304601F0FEF9EE
:10154000BB682B44984204D0304600F071FF002065
:10155000F8BD6142304601F0F1F901300DD0104B79
:10156000BA6819682D1B45F001053046091B556006
:10157000196000F05DFF0120F8BD0021304601F048
:10158000DDF9BA68831A0F2BDEDD064C04492468A6
:1015900043F00103001B53600860D5E744040020BA
:1015A000F408002050080020002945D02DE9F04122
:1015B0000D46804600F03AFF55F8047C6A4927F052
:1015C0000103A5F10804E2188E685068B24220F0C9
:1015D000030062D0FE0750600BD455F8087CE41B72
:1015E00001F1080EA56875453B446FD0E768EF60D0
:1015F000BD6015186D68ED0742D543F001026260C9
:10160000E350B3F5007F18D2DB085A1C4D6851F83F
:101610003270A76001209B1000FA03F301EBC200B7
:101620001D430838E0604D6041F83240FC604046A0
:10163000BDE8F04100F0FCBE70475A0A042A53D8B6
:101640009A0902F139077F0002F1380501EB8700A2
:1016500051F827204449083890424DD0516821F074
:1016600003018B4202D292689042F7D1D068E060C9
:10167000A2608460D4604046BDE8F04100F0D8BE6E
:1016800095683A4FBD4203443FD0D068E86043F0CC
:10169000010285606260E350B3E7FF07034407D4AB
:1016A00055F8082CA41A1344A068E268C260906040
:1016B0002F4A126843F00100934260608C60B6D3F9
:1016C0002C4B40461968FFF721FFB0E71118496815
:1016D000C90744D49168D268CA60034443F001004A
:1016E00091606060E350A2E7142A17D802F15C070A
:1016F0007F0002F15B05A9E7AA104B68012505FAF6
:1017000002F213434B600246B1E743F001024C6121
:101710000C61E560A5606260E35088E7542A06D852
:101720001A0B02F16F077F0002F16E058EE7B2F52A
:10173000AA7F06D8DA0B02F178077F0002F177055D
:1017400084E740F25450824206D89A0C02F17D0799
:101750007F0002F17C0579E7FE277E2576E743F0DE
:1017600001026260E35062E7440400204C04002060
:101770004C080020F00800209368002B76D02DE95B
:10178000F04F8B8985B00C4619070190164629D574
:1017900022693AB303F002081FFA88F0356800287E
:1017A0002FD04FF00009B44FC846B246B845434663
:1017B0004A4628BF3B460198B8F1000F50D0E16976
:1017C000666AB047002871DDDAF808301B1A8144D8
:1017D000C0EB0808CAF80830002BE7D1002005B09C
:1017E000BDE8F08F2146019801F014F9002840F07F
:1017F0003A81A389356803F002081FFA88F00028AF
:10180000CFD113F001095BD14F4602961FB39A0561
:10181000D4F808802CD54745C246C0F0A48013F404
:10182000906F40F0B18020685246494600F09AFD22
:10183000A0682368C8EB00005344A06023603846CA
:10184000029A93681B1A81443F1A9360002BC5D0FB
:10185000A389002FDBD1D5F800906F680835D5E754
:10186000D5F80090D5F8048008359FE70020704730
:1018700020682369984203D861698F4280F0B7805D
:10188000B84528BFB8464246494600F06BFDA368FC
:101890002268C8EB03034244A3602260002B49D1B5
:1018A00021460198FFF76EFD002843D0B4F90C30B3
:1018B00043F040034FF0FF30A38105B0BDE8F08F47
:1018C0008046029082468146B9F1000F2AD0029BE1
:1018D000002B4CD0206823696269C845C34628BFE5
:1018E000CB4698425F4604D9A36813449B4500F356
:1018F0009080934520DB1346676AE1690198524660
:10190000B847071ED2DDB8EB070823D0B368DB1B4E
:10191000BA44C7EB0909B360002B3FF45FAFB9F1DC
:10192000000FD4D10023D5F800A0D5F8049002937D
:101930000835C9E7404683E75A46514600F012FD94
:10194000A2682368CBEB02025B44B8EB0708A260F5
:101950002360DBD121460198FFF714FD0028A5D1B3
:10196000CDF80880D2E72068B846BA465CE74A4618
:101970000A21504600F00CFC00286FD001300123F2
:10198000CAEB00080293A5E762692068216902EBAF
:101990004208C1EB000A08EBD8780AF101004FEACF
:1019A000680838444045424684BF804642465B054D
:1019B00042D51146019800F02DF98346002855D0F4
:1019C0005246216900F034FCA38923F4906343F06C
:1019D0008003A381CAEB08030BEB0A00C4F8148050
:1019E000C4F810B02060A360B846BA461CE76FF098
:1019F0000043BB4228BF3B464A4693FBF1F30198A4
:101A0000666A01FB03F3E169B04700283FF718AFAE
:101A10004CE71A465146039300F0A4FC2268039B4E
:101A200001981A4422602146FFF7ACFC039B002872
:101A30007FF43CAF1F4666E7019800F0FBFC83464D
:101A40000028C7D1019D21692846FFF7ADFDB4F9F3
:101A50000C300C2223F080032A6029E7012309F1CE
:101A60000108029336E74FF0FF30B8E6019A0C23E5
:101A70001360B4F90C301BE700FCFF7F2DE9F04147
:101A800010F538771BD0884600267D68BC68013D7C
:101A90000FD4A389012B05F1FF3506D9B4F90E3017
:101AA0000133204601D0C04706436B1C04F1680493
:101AB000EFD13F68002FE8D13046BDE8F0813E46C7
:101AC0003046BDE8F08100BF2DE9F84310F53877C6
:101AD0001FD0884606464FF000097D68BC68013D6E
:101AE00011D4A389012B05F1FF3508D9B4F90E30C3
:101AF00001332146304602D0C04749EA00096B1C39
:101B000004F16804EDD13F68002FE6D14846BDE8F6
:101B1000F883B9464846BDE8F88300BF70B50D4666
:101B2000B1F90E10002990B014461E4614DB01AA2C
:101B300001F07AF800280FDB029A02F47042A2F555
:101B40000052B2FA82F252094FF480634FF40060FF
:101B50003260236010B070BDA88900F0800082B2AE
:101B6000002030601AB14023236010B070BD4FF4E4
:101B700080631046236010B070BD00BF8A89920751
:101B80000B4606D501F1430201211A601A61596121
:101B90007047F0B583B001AB6A460C460546FFF7C7
:101BA000BDFF00990646284600F034F8B4F90C3021
:101BB000D0B1019A124F0099EF6343F08003A381E3
:101BC0002060206161611AB93343A38103B0F0BD85
:101BD0002846B4F90E1001F03BF8B4F90C30002897
:101BE000F2D043F00103EFE79A05EFD404F143028A
:101BF00043F002030121A381226022616161E5E7D4
:101C0000D5134000024B0146186800F003B800BF2E
:101C1000400400202DE9F04F01F10B05162D83B093
:101C2000064640F29F8035F0070500F1BF80A942CB
:101C300000F2BC8000F0FAFBB5F5FC7FC0F09C829E
:101C40006B0A00F0BA80042B00F28381A80900F12E
:101C5000390E4FEA4E033830C44F07EB8303A3F12C
:101C600008015C68A14207D1ACE0002A80F2AC8098
:101C7000E468A14200F0A680636823F003035A1BC6
:101C80000F2AF2DDB9493C6901F1080E744500F0F4
:101C9000B381636823F003035A1B0F2A00F3998171
:101CA000002AC1F814E0C1F810E080F29E80B3F57C
:101CB000007F80F06781DB0803F1010C01229B109B
:101CC00002FA03F34A6851F83C80C4F8088001EB3B
:101CD000CC091A43A9F10803E3604A6041F83C408B
:101CE000C8F80C40831001249C40944200F28A8082
:101CF000144206D120F003006400144200F10400F5
:101D0000FAD007EBC009CC468046DCF80C108C45B5
:101D100007D173E1002A80F28181C9688C4500F007
:101D20006D814B6823F003035A1B0F2AF2DD0C462A
:101D3000D1F80CC054F8088F4B1945F001054D60DF
:101D400042F00101C8F80CC03046CCF808807B6135
:101D50003B61C3F80CE0C3F808E059609A5000F00A
:101D600067FB1FE0102921D800F060FB1025062337
:101D700002207E4F07EB8303A3F108025C689442C4
:101D800000F045816368E168A56823F003032344FC
:101D900030465A68E96042F001028D605A6000F0F6
:101DA00047FB0834204603B0BDE8F08F00240C2325
:101DB0002046336003B0BDE8F08F80234FF0400E23
:101DC0003F2049E770465DE72344E1685A68A5680B
:101DD00042F00102E96030468D605A6000F028FB55
:101DE0000834204603B0BDE8F08F234430465A68DB
:101DF00042F001025A6000F01BFB0834204603B099
:101E0000BDE8F08FBC68636823F00308A84504D3DD
:101E1000C5EB08030F2B00F38C80554BDFF8609166
:101E20001A68D9F8003001332A4404EB080A00F09C
:101E3000608102F580520F3222F47F6222F00F029D
:101E400011463046019200F079FDB0F1FF3F834624
:101E5000019A00F05881824500F2FC80454B1968D8
:101E6000DA451144196000F05381D9F80000DFF819
:101E700010E101301BBFCAEB0B0A5144CEF800B091
:101E800019601BF0070100F01781C1F10800C1F5CE
:101E90008051834408315A44C2F30B02C2EB01095A
:101EA00049463046019300F049FD431C019B00F078
:101EB0003F81CBEB00024A4442F001021968C7F8A7
:101EC00008B04944BC42CBF804201960DFF8A49064
:101ED00016D0B8F10F0F40F2FD806268A8F10C0334
:101EE00023F00703E01802F001024FF0050E1A4339
:101EF0000F2B6260C0F804E0C0F808E000F21C811B
:101F00001D4BBC681A68914288BF19601B4B1A6848
:101F10009142626888BF196022F003029542A2EBE9
:101F2000050301D80F2B04DC304600F081FA0024B1
:101F300038E7621943F0010345F00105656030465A
:101F4000BA60536000F074FA0834204603B0BDE86C
:101F5000F08F142B71D9542B00F2A480280B00F1C0
:101F60006F0E4FEA4E036E3076E600BF4404002049
:101F7000F0080020F4080020EC080020E808002009
:101F8000500800205A0A042A5ED9142A00F2B380AD
:101F900002F15C0149005B3207EB810C57F821101C
:101FA000DFF8DC81ACF1080C8C4500F088804A68D1
:101FB00022F00302934202D289688C45F7D1D1F80E
:101FC0000CC07A68C4F80CC0A160CCF80840CC60A2
:101FD00088E6631942F0010745F001056560304667
:101FE0004B610B61C3F80CE0C3F808E05F609A50E6
:101FF000083400F01DFAD5E64A6873E608F10108D6
:1020000018F0030F0CF1080C7FF47FAE30E0DC68B1
:10201000A34208BF02303FF435AEB3E60B440C4692
:102020005A68C96854F8085F42F001025A603046A5
:10203000E9608D6000F0FCF9B4E603F15C0E03F199
:102040005B004FEA4E0307E69A0902F139014900A5
:102050003832A1E7BC424A4B3FF400AF9C6862684B
:1020600022F003025AE759F80839994540F0828076
:1020700010F0030F00F1FF30F5D17B6823EA040371
:102080007B6064009C423FF6BDAE002C3FF4BAAECC
:102090001C4240467FF435AE64001C4200F104004F
:1020A000FAD02EE6B3F5AA7F18D8E80B00F1780E27
:1020B0004FEA4E037730CFE54FF48051EBE6012134
:1020C000D8F80430921001FA02F21A43C8F804203A
:1020D000614677E70123CBF8043025E740F25452FC
:1020E000934220D8A80C00F17D0E4FEA4E037C30BD
:1020F000B2E51032A4E6542A26D81A0B02F16F0179
:1021000049006E3248E7BC68626822F0030205E7C6
:10211000CAF30B0000287FF4A8AE4244BB6842F02B
:1021200001025A60ECE6FE234FF07F0E7E2093E51D
:1021300001224FF00009C1E604F108013046FFF723
:1021400033FAD9F80010DBE6B2F5AA7F05D8DA0B2E
:1021500002F17801490077321EE740F254518A4279
:1021600005D89A0C02F17D0149007C3214E7FE216A
:102170007E2211E77B6884E7E808431C5B00F8E5F2
:1021800044040020000000000000000000000000E7
:1021900001F0FF01102A2BDB10F0070F08D010F818
:1021A000013B013A8B422DD010F0070F42B3F6D11C
:1021B000F0B441EA012141EA014122F007047FF035
:1021C00000070023F0E80256083C85EA010586EA8C
:1021D000010685FA47F5A3FA87F586FA47F6A5FAC8
:1021E00087F68EB9EED1F0BC01F0FF0102F00702D4
:1021F00032B110F8013B013A83EA010313B1F8D17F
:102200000020704701387047002D06BF354603385F
:10221000073815F0010F07D1013015F4807F02BF98
:10222000013015F4C03F0130F0BC0138704700BFE9
:10223000844641EA000313F003036DD1403A41D3D1
:1022400051F8043B40F8043B51F8043B40F8043B90
:1022500051F8043B40F8043B51F8043B40F8043B80
:1022600051F8043B40F8043B51F8043B40F8043B70
:1022700051F8043B40F8043B51F8043B40F8043B60
:1022800051F8043B40F8043B51F8043B40F8043B50
:1022900051F8043B40F8043B51F8043B40F8043B40
:1022A00051F8043B40F8043B51F8043B40F8043B30
:1022B00051F8043B40F8043B51F8043B40F8043B20
:1022C000403ABDD2303211D351F8043B40F8043BC0
:1022D00051F8043B40F8043B51F8043B40F8043B00
:1022E00051F8043B40F8043B103AEDD20C3205D3D0
:1022F00051F8043B40F8043B043AF9D2043208D0C8
:10230000D2071CBF11F8013B00F8013B01D30B8839
:1023100003806046704700BF082A13D38B078DD017
:1023200010F003038AD0C3F10403D21ADB071CBFE9
:1023300011F8013B00F8013B80D331F8023B20F853
:10234000023B7BE7043AD9D3013A11F8013B00F88C
:10235000013BF9D20B7803704B7843708B78837014
:10236000604670478842F0B50DD98B1898420AD262
:102370008118002A51D09A1A13F8014D01F8014D25
:102380009342F9D1F0BD0F2A48D941EA00039B07D7
:1023900046D100F1100401F11003154653F8106CFA
:1023A00044F8106C53F80C6C44F80C6C53F8086C3F
:1023B00044F8086C103D53F8046C44F8046C0F2D7D
:1023C00003F1100304F11004E8D8A2F1100323F084
:1023D0000F0302F00F0E1033BEF1030F1944034434
:1023E00021D91E1F0D467446043C55F8047B46F85F
:1023F000047F032CF8D8AEF1040424F00304043461
:102400002344214402F0030262B1013B0A4411F863
:10241000014B03F8014F8A42F9D1F0BD0346F3E7BF
:102420000346F2E7F0BD7246EEE700BF704700BF1B
:10243000704700BF2DE9F04F174683B0002900F028
:10244000C1800E46814607F10B05FFF7EFFF56F8F6
:1024500004EC162D2EF00304A6F1080840D8102233
:102460001546AF4241D8944275DAC94B996808EBDA
:1024700004008842416800F0D98021F00103034440
:102480005B68DB077DD51EF0010F35D03946484625
:10249000FFF7C0FB0746E0B156F8043C23F0010308
:1024A0004344A0F108029A4200F04481221F242AEA
:1024B00000F23181132A00F204810346324611688A
:1024C00019605168596092689A6031464846FFF732
:1024D0006BF84846FFF7ACFF384603B0BDE8F08F15
:1024E00025F00705002D2A46BBDA0C230020C9F889
:1024F000003003B0BDE8F08F56F8083CC3EB080A83
:10250000DAF8043023F0030C04EB0C039342BDDB38
:102510005746DAF80C1057F8080F221F242AC1601A
:10252000886000F21781132A40F212813168CAF8DC
:1025300008107168CAF80C101B2A00F22B810836AB
:102540000AF110023168116071685160B1689160E0
:102550003E461C46D046631B0F2B1DD8D8F80430CE
:1025600003F0010323434444C8F80430636843F094
:10257000010363604846FFF75BFF304603B0BDE8E8
:10258000F08F21F003012144914221DBC36882686E
:102590000C46D3609A60DEE7D8F8042008EB05010A
:1025A00002F00102154343F001020B44C8F8045045
:1025B0004A605A6842F0010208315A604846FEF704
:1025C000F3FFD7E7114603B0BDE8F04FFFF722BB9A
:1025D0001EF0010F7FF45AAF56F8083CC3EB080A0F
:1025E000DAF8043023F0030C01EB0C0E96458BDB7C
:1025F000C36882685746D3609A6057F8081FDAF8B4
:102600000C30CB60221F242A996000F29980132A93
:1026100062D93368CAF808307368CAF80C301B2ACC
:1026200000F2A08008360AF1100356E021F0030BF7
:10263000A34405F11000834559DA1EF0010F7FF421
:1026400025AF56F8081CC1EB080ADAF8041021F08F
:10265000030CE34458453FF757AF5746DAF80C10E0
:1026600057F8080F221F242AC160886000F2B48046
:10267000132A40F2A5803168CAF808107168CAF8B8
:102680000C101B2A00F2AF8008360AF110023168E4
:10269000116071685160B16891600AEB0501C5EB8A
:1026A0000B0242F0010299604A60DAF8043003F04C
:1026B00001031D434846CAF80450FFF7B9FE3846E7
:1026C0005CE733680360736843601B2A27D800F116
:1026D000080306F10802F2E63B4632681A607268A7
:1026E0005A60B2689A603E467446D04633E708EBBB
:1026F0000501C5EB0B0B4BF0010299604A6056F8DF
:10270000043C03F001031D43484646F8045CFFF710
:102710008FFE304632E73146FFF724FED5E6B36838
:102720008360F368C360242A28D000F1100306F107
:102730001002C4E650F8043C23F003031C440AE7EB
:10274000314638467446D046FFF70CFE3E4602E757
:102750003A46F7E6314638461C46D046FFF702FEB9
:102760003E46F8E6B368CAF81030F368CAF8143089
:10277000242A1BD010360AF11803AEE7336903612F
:102780007369436106F1180200F1180397E600BF70
:1027900044040020B168CAF81010F168CAF8141097
:1027A000242A0FD010360AF11802CBE63369CAF892
:1027B00018307369CAF81C3018360AF120038CE708
:1027C0003A4664E73269CAF818207269CAF81C20D0
:1027D00018360AF12002B5E6314638460193FFF774
:1027E000C1FD019B59E7B168CAF81010F168CAF839
:1027F0001410242A03D010360AF1180247E7326970
:10280000CAF818207269CAF81C2018360AF120028A
:102810003DE700BF838903F00903092B01D00020A5
:102820007047FEF7C5BD00BFF8B50C46054610B1B0
:10283000836B002B45D0B4F90C309AB2970407D4BF
:10284000626E43F4005322F400526266A3819AB28E
:1028500000219606616031D4500722D5216B61B109
:1028600004F14003994202D02846FEF79DFEE36B37
:10287000636000202063002B3FD12369002B4CD0E4
:10288000B4F90C70BEB2B3071ED12269226028468B
:102890006369256AE169A8470028606009DD0020B6
:1028A000F8BDD1063ED512072AD443F00403A38114
:1028B000E3E7A38919D143F02003A3814FF0FF3050
:1028C000F8BDFEF705FEB6E71A4B1B491868012351
:1028D000A38106F00906FFF7D1F8092EA781D4D10C
:1028E00021462846FEF7AAFCCFE7002243F040032A
:1028F000A38162604FF0FF30F8BDA36B2360F8BD89
:1029000021462846FEF73EFD0028D7D1B4F90C3009
:10291000A060A06123F00803C7E721462846FFF71F
:102920002DF9ADE743F0400309222A604FF0FF3054
:10293000A381F8BDDC2C40001528400038B5074CB9
:102940000023054608462360FEF7F4F8431C00D038
:1029500038BD2368002BFBD02B6038BD2C0900202C
:1029600010B50C46B1F90E1000F09AF9002803DBFF
:10297000236D0344236510BDA38923F48053A381F1
:1029800010BD00BF2DE9F0411646B1F90C201F46DD
:10299000D3050C46054607D500220223B1F90E10D7
:1029A00000F068F9B4F90C20B4F90E1022F480524A
:1029B000A2813B4632462846BDE8F04100F014B8FB
:1029C00010B50C46B1F90E1000F054F9A389421C61
:1029D0000EBF23F4805343F480532065A38110BDC0
:1029E000B1F90E1000F0CCB870B50D46084C114688
:1029F00006461A46284600232360FDF7C9FB431C00
:102A000000D070BD2368002BFBD0336070BD00BFC9
:102A10002C09002038B5304B1B6805460C4613B115
:102A20009A6B002A38D0B4F90C2093B218070CD551
:102A30002069A8B113F001021ED0636900225B4235
:102A4000A361A260F0B1002038BDD9063CD558077B
:102A500026D4206942F00803A3819BB20028E9D163
:102A600003F42072B2F5007FE4D028462146FFF738
:102A700085F8A3892069DDE7990758BF6269A260DC
:102A80000028E0D1B4F90C301A06DDD543F040033C
:102A9000A3814FF0FF3038BD1846FEF719FDC2E79D
:102AA000216B51B104F14003994204D02846FEF74E
:102AB0007BFDB4F90C2000232363002320696360AD
:102AC00022F024022060C5E742F0400209232B6077
:102AD0004FF0FF30A28138BD400400202DE9F047BF
:102AE000254C2568D5F848410646884692469946C1
:102AF000C4B360681F2817DC431C76B104EB800563
:102B00000122C5F888A0D4F8881182401143022E12
:102B1000C4F88811C5F808911ED00230636044F8EB
:102B200020800020BDE8F087144B03B34FF4C87039
:102B3000FFF768F80446D0B1D5F84831002780E89F
:102B40008800C5F8484138460123C4F88871C4F8A4
:102B50008C71002EE1D0D1E7D4F88C110A43C4F86F
:102B60008C21DAE705F5A674C5F84841C1E74FF0B6
:102B7000FF30BDE8F08700BFDC2C4000051C4000A2
:102B800038B5074C0023054608462360FDF7ECFFE7
:102B9000431C00D038BD2368002BFBD02B6038BD10
:102BA0002C09002000293DD070B505460C4608B11F
:102BB000836B7BB3B4F90C300BB9002070BD214698
:102BC0002846FEF73BFBE36A064633B1E169284637
:102BD00098470028B8BF4FF0FF36A3891B061CD4C6
:102BE000216B41B104F14003994202D02846FEF71F
:102BF000DBFC00232363616C21B12846FEF7D4FC83
:102C000000236364FEF76AFC0023A381FEF768FCDF
:102C1000304670BDFEF75CFCCCE721692846FEF724
:102C2000C3FCDDE70020704738B50B46074C05466E
:102C30001146184600232360FDF79AFF431C00D07D
:102C400038BD2368002BFBD02B6038BD2C09002039
:102C500038B5074C0023054608462360FDF78EFF74
:102C6000431C00D038BD2368002BFBD02B6038BD3F
:102C70002C09002070B50D46084C114606461A4630
:102C8000284600232360FDF77BFF431C00D070BD66
:102C90002368002BFBD0336070BD00BF2C090020DF
:102CA00070B50D46084C114606461A4628460023C4
:102CB0002360FDF739FA431C00D070BD2368002B58
:102CC000FBD0336070BD00BF2C090020425552522A
:102CD0004F2121210D0000004300000018000020BA
:102CE0000A000000F8B500BFF8BC08BC9E4670475B
:102CF0001D124000F1004000F8B500BFF8BC08BC50
:082D00009E467047CD00400023
:102D080000093D0080250000C00000000008000008
:102D18000000000000000000000000000403002084
:102D28006C030020D4030020000000000000000015
:102D3800000000000000000000000000000000008B
:102D4800000000000000000000000000D82C400037
:102D5800000000000000000000000000000000006B
:102D6800000000000000000000000000000000005B
:102D7800000000000000000000000000000000004B
:102D8800000000000000000000000000000000003B
:102D9800000000000000000000000000000000002B
:102DA800000000000000000000000000000000001B
:102DB800000000000000000000000000000000000B
:102DC80001000000000000000E33CDAB34126DE6A8
:102DD800ECDE05000B000000000000000000000011
:102DE80000000000000000000000000000000000DB
:102DF80000000000000000000000000000000000CB
:102E080000000000000000000000000000000000BA
:102E180000000000000000000000000000000000AA
:1031480018000020000000000000000044040020D7
:10315800440400204C0400204C04002054040020A7
:10316800540400205C0400205C0400206404002057
:10317800640400206C0400206C0400207404002007
:10318800740400207C0400207C04002084040020B7
:10319800840400208C0400208C0400209404002067
:1031A800940400209C0400209C040020A404002017
:1031B800A4040020AC040020AC040020B4040020C7
:1031C800B4040020BC040020BC040020C404002077
:1031D800C4040020CC040020CC040020D404002027
:1031E800D4040020DC040020DC040020E4040020D7
:1031F800E4040020EC040020EC040020F404002087
:10320800F4040020FC040020FC0400200405002035
:10321800040500200C0500200C05002014050020E2
:10322800140500201C0500201C0500202405002092
:10323800240500202C0500202C0500203405002042
:10324800340500203C0500203C05002044050020F2
:10325800440500204C0500204C05002054050020A2
:10326800540500205C0500205C0500206405002052
:10327800640500206C0500206C0500207405002002
:10328800740500207C0500207C05002084050020B2
:10329800840500208C0500208C0500209405002062
:1032A800940500209C0500209C050020A405002012
:1032B800A4050020AC050020AC050020B4050020C2
:1032C800B4050020BC050020BC050020C405002072
:1032D800C4050020CC050020CC050020D405002022
:1032E800D4050020DC050020DC050020E4050020D2
:1032F800E4050020EC050020EC050020F405002082
:10330800F4050020FC050020FC0500200406002030
:10331800040600200C0600200C06002014060020DD
:10332800140600201C0600201C060020240600208D
:10333800240600202C0600202C060020340600203D
:10334800340600203C0600203C06002044060020ED
:10335800440600204C0600204C060020540600209D
:10336800540600205C0600205C060020640600204D
:10337800640600206C0600206C06002074060020FD
:10338800740600207C0600207C06002084060020AD
:10339800840600208C0600208C060020940600205D
:1033A800940600209C0600209C060020A40600200D
:1033B800A4060020AC060020AC060020B4060020BD
:1033C800B4060020BC060020BC060020C40600206D
:1033D800C4060020CC060020CC060020D40600201D
:1033E800D4060020DC060020DC060020E4060020CD
:1033F800E4060020EC060020EC060020F40600207D
:10340800F4060020FC060020FC060020040700202B
:10341800040700200C0700200C07002014070020D8
:10342800140700201C0700201C0700202407002088
:10343800240700202C0700202C0700203407002038
:10344800340700203C0700203C07002044070020E8
:10345800440700204C0700204C0700205407002098
:10346800540700205C0700205C0700206407002048
:10347800640700206C0700206C07002074070020F8
:10348800740700207C0700207C07002084070020A8
:10349800840700208C0700208C0700209407002058
:1034A800940700209C0700209C070020A407002008
:1034B800A4070020AC070020AC070020B4070020B8
:1034C800B4070020BC070020BC070020C407002068
:1034D800C4070020CC070020CC070020D407002018
:1034E800D4070020DC070020DC070020E4070020C8
:1034F800E4070020EC070020EC070020F407002078
:10350800F4070020FC070020FC0700200408002026
:10351800040800200C0800200C08002014080020D3
:10352800140800201C0800201C0800202408002083
:10353800240800202C0800202C0800203408002033
:10354800340800203C0800203C080020000002004D
:04355800FFFFFFFF73
:04000005004008DDD2
:00000001FF
